:020000022000DC
:106000000000042021D2020049D202004BD202003B
:106010004DD202004FD2020051D202000000000017
:1060200000000000000000000000000053D2020049
:1060300055D202000000000057D2020059D20200DF
:106040003D1B03005BD202004D1B0300C91F030070
:10605000652503005BD2020039170300B11B030062
:106060005BD202005BD202005BD202005BD2020074
:106070005BD202005BD202005BD202005BD2020064
:106080005BD20200C5F002005BD202005BD20200CC
:1060900061F102005BD20200F96E03005BD20200E4
:1060A0005BD202005BD202005BD202005BD2020034
:1060B0001D2903005BD20200000000000000000068
:1060C0005BD202005BD202005BD20200611F0300C0
:1060D0005BD202005BD202005BD20200E5A00300AB
:1060E0005BD202005BD202005BD202000000000023
:1060F000000000005BD20200000000005BD2020042
:10610000000000000000000000000000000000008F
:10611000000000000000000000000000000000007F
:10612000000000000000000000000000000000006F
:10613000000000000000000000000000000000005F
:10614000000000000000000000000000000000004F
:10615000000000000000000000000000000000003F
:10616000000000000000000000000000000000002F
:10617000000000000000000000000000000000001F
:10618000000000000000000000000000000000000F
:1061900000000000000000000000000000000000FF
:1061A00000000000000000000000000000000000EF
:1061B00000000000000000000000000000000000DF
:1061C00000000000000000000000000000000000CF
:1061D00000000000000000000000000000000000BF
:1061E00000000000000000000000000000000000AF
:1061F000000000000000000000000000000000009F
:1062000010B5054C237833B9044B13B10448AFF3F0
:1062100000800123237010BDA8C1002000000000F1
:106220000807040008B5034B1BB103490348AFF34B
:10623000008008BD00000000ACC100200807040079
:10624000154B002B08BF134B9D46A3F5803A002148
:106250008B460F461348144A121A14F0A4F90F4B38
:10626000002B00D098470E4B002B00D09847002001
:10627000002104000D000D48002802D00C48AFF3A7
:10628000008014F019F92000290006F049FF14F0ED
:10629000FFF800BF0000080000000420000000001C
:1062A00000000000A8C10020B8E6002000000000A7
:1062B0000000000007B500238DF80500022201A9A7
:1062C0003C208DF8043005F01BF8B0FA80F040094E
:1062D00003B05DF804FB07B500238DF805008DF8C9
:1062E0000610032201A93C208DF8043005F008F8BF
:1062F000B0FA80F0400903B05DF804FB07B5042252
:1063000000238DF805008DF807103C200DEB0201ED
:106310008DF804308DF8063004F0F2FFB0FA80F00A
:10632000400903B05DF804FBAE20FFF7C3BFAF2008
:10633000FFF7C0BF10B5436D1970436D013343655E
:106340001B1A542B04460DD13F2200F1150114F005
:1063500011F904F13F00606515222021BDE81040CD
:1063600014F021B910BD01230A2970B5054680F843
:10637000583013D1446D1522231A93FBF2F402FB1B
:106380001434E4B20026A319DBB2142B00D970BD7B
:1063900020212846FFF7CEFF0136F4E7BDE8704024
:1063A000FFF7C8BF70B5064608460C4614F058F90A
:1063B0002518AC4200D370BD14F8011B3046FFF71E
:1063C000D2FFF6E7B0B5054600AF08460C4614F01C
:1063D00047F900F1090222F00702ADEB020D234656
:1063E000054A811C684614F0E7F869462846FFF71D
:1063F000D9FFBD46B0BD00BF78D3030010B554220D
:106400000446202114F0CFF80123646584F8583045
:1064100010BD00002DE9F843064603F08BFC224B2B
:106420001880FFF784FF03212220FFF767FFC0B326
:106430007D212120FFF762FF98B31C4C4FF40072BE
:106440000021204614F0AFF84023DFF864E0237009
:10645000B4460122204640F2F918114600251CF8E6
:10646000053003EB430300240EEB43030F1913F82D
:106470000490BFB20134062C00F80790F6D1013524
:106480000631152D89B2EAD17E3292B242450CF125
:10649000150CE2D105493C2004F032FF002386F8B8
:1064A0005830BDE8F88300BFC4C1002060E200207E
:1064B0008CD303000148FFF7ADBF00BF04E200200A
:1064C00038B5044604F000FFAE20FFF7F3FE10B924
:1064D0000024204638BD8021D520FFF7FCFE00288F
:1064E000F6D01F21A820FFF7F6FE0028F0D00021EB
:1064F000D320FFF7F0FE0028EAD04020FFF7DAFEB5
:106500000028E5D014218D20FFF7E5FE0028DFD01C
:1065100000212020FFF7DFFE0028D9D0002C5FD01B
:10652000A020FFF7C7FE0028D2D0C020FFF7C2FE90
:106530000028CDD00221DA20FFF7CDFE0028C7D0F9
:106540008F218120FFF7C7FE0028C1D0F121D9207B
:10655000FFF7C1FE0028BBD04021DB20FFF7BBFEC8
:106560000028B5D0A420FFF7A5FE0028B0D0A620B3
:10657000FFF7A0FE0028ABD02E20FFF79BFE0028DF
:10658000A6D0AF20FFF796FE0028A1D000218120E1
:10659000FFF7A1FE044600289AD01548FFF72EFF0A
:1065A00003212220FFF7AAFEB8B17F212120FFF7A7
:1065B000A5FE90B10F4D4FF400720021284613F054
:1065C000F2FF402340F2012229463C202B7004F0C8
:1065D00097FE074B002283F85820FFF76BFF78E700
:1065E000A120FFF767FE00283FF472AFC8209DE7A7
:1065F00004E2002060E2002010B500F059FB0C4BD3
:106600000C4C93F858300BB923781BB1FFF752FFAD
:1066100000232370084B188803F098FB4EF6602384
:10662000984203D9BDE81040FFF77EBE10BD00BF01
:1066300004E2002070BC0020C4C100201F288ABFD3
:10664000054B4FF0A04300F01F00D3F8103523FA9C
:1066500000F000F0010070470003005008B500F0A2
:1066600039FB08BD08B54FF0A0430C22C3F85827EA
:106670001620C3F85027FFF7E1FF02461420FFF76A
:10668000DDFF024B42EA4000187008BDC6C1002081
:1066900010B5184C227816209200D2B2FFF7CEFF28
:1066A00001461420FFF7CAFF41EA40001043C0B280
:1066B0002070114B114C00F00F0022781B5C13442A
:1066C0005BB2012B237003DD00210846FFF7C6FFF4
:1066D00094F90030013303DA01210020FFF7BEFFF7
:1066E00094F90030002B03F00103B8BF5B42237024
:1066F00010BD00BFC6C100207CD30300C7C100206D
:106700003CDF704738B5054D642445F001054FF472
:106710007A40A847013CFAD138BD00BFD0D8030069
:1067200008B557210020FFF7EBFFBFF34F8F054956
:10673000054BCA6802F4E0621343CB60BFF34F8F8E
:1067400000BFFDE700ED00E00400FA0570B54FF072
:10675000A043174ED3F810359B0E03F00102D1B2BF
:1067600010B93078904222D003F0010381F001008B
:10677000104C33704FF4806506F07AFC307806F0E8
:106780006BFCC4F80C5533788BB1C4F80855FFF78F
:10679000B9FFC4F80C55FFF7B5FFC4F80855FFF76B
:1067A000B1FFC4F80C55BDE87040FFF7ABBF70BD3A
:1067B000C8C100200003005010B54FF08043D3F84B
:1067C0003824D10701D5920705D5D3F8383403F022
:1067D0000303032B0ED106F045FC0446A0B906F0D6
:1067E00035FC88B1012006F043FC2046BDE810408E
:1067F00006F032BC06F036FC30B106F027FC18B9C2
:1068000006F036FC0120F1E710BD000008B5084B8A
:106810000322C3F828274FF0A0430422C3F86827B7
:10682000FFF770FF0120BDE80840FFF78FBF00BFF2
:1068300000030050FFF7C0BF10B5232001F0DCFAC1
:10684000FFF7E4FF032004F079FB0B4B4FF44860A3
:1068500043F00103984704F0FDFA044604F01AFBE4
:10686000382C01D104F0A6FC0020FFF729FEBDE87A
:106870001040FFF7F7BE00BFE0D8030008B5FFF7F0
:10688000BBFEFFF705FFBDE80840FFF7D3BF037865
:10689000032B02D0352002F091B9704710B5037870
:1068A000032B044607D1022002F0D2FF2046BDE8A8
:1068B000104001F083BE3520BDE8104002F0A5B8BD
:1068C00010B54FF0A043D3F810355B0115D504F097
:1068D00079FD104A034618210F4813F06DFE04F0AD
:1068E00071FD1223A0F516600C4A90FBF3F31821FA
:1068F0000B48BDE8104013F05FBE0A4A0648182155
:1069000013F05AFE084A06481821BDE8104013F05B
:1069100053BE00BF43DC0300D8E4002050DC03007A
:10692000F0E400205ADC03006DDC030037B506F00C
:1069300099FB0B4D0B4C002808BF2C4606F086FB3C
:10694000094B0A4A002814BF1846284600902346DF
:106950001821074813F030FE054803B030BD00BFD2
:10696000E8F8030006DC030009DC03000CDC03008C
:10697000A8E4002007B50A4B0A4A1B780A4813F01E
:10698000010FC3F3450300934FF01801074B18BFE5
:106990001346074A13F010FE034803B05DF804FBEA
:1069A00008E5002016DC0300C0E400201ADC030028
:1069B0001EDC030013B503F09BF80C4B0C4C10F0DD
:1069C000020F08BF1C4603F093F80A4A0A4B10F066
:1069D000080F08BF13460093084A094823461821A8
:1069E00013F0EAFD064802B010BD00BFE7F803004F
:1069F00030DC0300E8F8030033DC030010DC0300A4
:106A000078E4002037B503F073F80B4D0B4C10F011
:106A1000010F08BF2C4603F06BF810F0040F084B71
:106A2000084A094808BF2B4600931821234613F053
:106A3000C3FD054803B030BDE8F8030002DC0300E5
:106A400004DC030010DC030090E4002010B5044CCB
:106A5000044A1821204613F0AFFD204610BD00BFA8
:106A600060E4002035DC030030B545F6F04290428A
:106A700085B005460C468B781CD045F6F142904215
:106A80001FD0A3780BB1FFF71BFFA478FFF712FD0F
:106A9000A5F5B9435B3B142B6BD8DFE803F01B274C
:106AA0002C343A22454545454545534C4C4C4C4CBD
:106AB0004C5F6300002BE4D000F0C0FE01F080F9D1
:106AC000DFE7002BDDD02C4B1B78DB07F4D501F082
:106AD000F7F9D6E7002C49D0002000F09AF90024FD
:106AE00044E0002C42D004F065FBF8E7002C3DD0D8
:106AF00006F0FAF9F3E7CCB3012006F0ADFA002076
:106B000006F0B6FAEBE78CB3002006F0A5FA0120F8
:106B1000F6E75CB306F09AFA044680F00100C0B2D2
:106B200006F09AFA2046EBE704B305F11F00C0B265
:106B300006F022FAD3E7CCB105F11800C0B204F098
:106B40004FFBCCE794B104F03DFC0C49024668468B
:106B500013F066FD684600F059F9C0E734B1FFF75D
:106B6000DFFDBCE7002CBAD104F054FB204605B091
:106B700030BD0124FAE700BF08E50020FCDB03007C
:106B800038B5542204460D4613F0DAFC38B15422CD
:106B90002946204613F0E3FC012384F8583038BD21
:106BA00010B5324B0446186803F002F805285AD88D
:106BB000DFE800F0031B212F3F49FFF7B7FE014636
:106BC0002046FFF7FFFB2A492046FFF7FBFBFFF7B4
:106BD000F1FE01462046FFF7F5FBFFF713FF0146E4
:106BE0002046BDE81040FFF7DDBB22492046FFF7F5
:106BF000E9FB2149E8E721492046FFF7E3FB20496B
:106C00002046FFF7DFFB1F492046FFF7DBFB1E494D
:106C1000E6E71E492046FFF7D5FB1D492046FFF752
:106C2000D1FBFFF713FF01462046BDE81040FFF7F8
:106C3000C9BB18492046FFF7C5FB17492046FFF797
:106C4000C1FB1649F0E716492046FFF7BBFBFFF7EB
:106C500091FE01462046FFF7B5FB12492046FFF79B
:106C6000B1FB1149BCE71149DEE700BF68C2002053
:106C7000F0E4002026DB0300D8E4002029DB030039
:106C80003DDB030047DB030054DB030061DB030053
:106C900075DB030083DB030097DB0300A5DB030048
:106CA000B4DB0300C8DB0300DCDB0300F0DB030024
:106CB00000B599B001A8FFF7A1FB01A8FFF770FF8D
:106CC00001A90348FFF75CFF19B05DF804FB00BFA2
:106CD00004E2002010B5234B18680C4602F068FF50
:106CE000012811D002D3052819D010BD3CB147208E
:106CF00001F08BFE4720BDE8104001F05FBF482047
:106D000001F083FE4820F6E724B14B2001F07DFE20
:106D10004B20F0E74E2001F078FE4E20EBE702F02A
:106D2000E7FE420708D51CB1BDE8104000F06EBF79
:106D3000BDE8104000F05CBF02F0DAFEC30708D5E2
:106D40001CB1BDE8104000F045BFBDE8104000F0A8
:106D500033BF1CB1BDE8104000F016BFBDE81040C5
:106D600000F000BF68C200200120704708B5FFF79F
:106D70007BFE08BD10B50C4B1C5C0C4BC35C6BB1AF
:106D8000E12001F042FE204601F03FFE204601F0E6
:106D900015FFE120BDE8104001F010BF204601F0D2
:106DA00034FE2046F6E700BF7EDC0300FEDC030075
:106DB000F8B5154E04460F4646F00106207810B38C
:106DC000012804F1010507D16478204601F01DFE79
:106DD000204601F0F3FE04E002280CD1607801F0B7
:106DE00014FE6C1C3D46013DEDB2FF2DE6D04FF484
:106DF0007A40B047F7E7032801D16078E9E7FFF769
:106E0000B9FF2546EDE7F8BD80DD03000021FFF75F
:106E1000CFBF10B501248440E0B202F00FFF20463E
:106E2000BDE8104002F0DFBC08B501F065FCBDE82C
:106E3000084004F003B8704708B5FFF7FCFF08BD31
:106E400008B5FFF7F9FF08BD7047000038B502F03C
:106E50004BF9074DFFF7F8FFFA2445F001054FF411
:106E60007A40A847013CFAD1BDE83840FFF758BC4A
:106E700080DD030037B50388ADF80430C04B1B78C4
:106E80000546F3B983780198BBB102F061FDC4B245
:106E90002146019802F016FD0199204600F066FA9D
:106EA0002946044601F0B0FB29462046FFF75EFF65
:106EB00068B90024204603B030BD02F029FD044625
:106EC000EAE7019802F044FD0199C0B2E6E72946DD
:106ED000204601F0CDFB0028EBD02946204600F0EB
:106EE00031FC0028E5D045F6C8439C4200F00981FA
:106EF00051D845F6C1439C4200F0D88029D845F6C8
:106F000014439C4216D845F602439C4280F05C81B3
:106F1000B4F5B84F00F0B18045F601439C4200F053
:106F2000B380984B01221A705A702846FFF71CFF55
:106F30000446BFE745F615439C4200F0F28145F652
:106F4000C0439C42EDD1AB78002BB2D000F0DEFF05
:106F5000AFE745F6C4439C4200F0C0800ED845F62A
:106F6000C2439C4200F0AE8045F6C3439C42D8D158
:106F7000AB78002B9DD000F0F5FD9AE745F6C643AF
:106F80009C42AA7800F0B78040F2AF80002A90D0EF
:106F900000F02EFE8DE745F6CF439C4200F0E180E5
:106FA0002AD845F6CB439C4200F0B9800FD845F66D
:106FB000C9439C4200F0AC8045F6CA439C42B0D124
:106FC000AB78002B3FF475AF00F0D8FC71E745F6C5
:106FD000CD439C42AA7800F0B78040F2A880002AF6
:106FE0003FF467AF00F0B6FC082803D900F0B2FC0C
:106FF0000D2870D9092097E045F6D3439C4200F054
:10700000DD8014D845F6D1439C42AA7800F0D180A7
:1070100040F2C280002A3FF44CAF00F09BFC1828DD
:1070200003D900F097FC212855D919207CE045F6BA
:10703000D5439C42534B00F05881C0F0388145F64F
:10704000D64294427FF46DAFAA78002A40F04F8177
:107050005C78002C40F061814B4B588802F076FE42
:10706000C72800F25A81202001F00EFE282001F0EE
:10707000CCFC282001F0A2FD1CE7AB78002B3FF4EC
:1070800018AFFFF7E3FE14E7AB78002B3FF411AF26
:107090003E4A3F49137843F0010313703D4B188873
:1070A000000440F0030007F017FE02E7AB78002B66
:1070B0003FF4FFAE02F01CFD10F0220F0BD000F0E9
:1070C00071FEF6E6AB78002B3FF4F3AE02F010FD54
:1070D00010F0220FF3D000F059FEEAE6AB78002B57
:1070E0003FF4E7AE00F050FDE3E6002A3FF4E1AEE6
:1070F00000F062FDDDE6002A3FF4DBAE00F06AFD41
:10710000D7E6AB78002B3FF4D4AE00F07FFDD0E69D
:10711000AB78002B3FF4CDAE00F026FCC9E6AB788F
:10712000002B3FF4C6AE012000F02CFEC1E6002A81
:107130003FF4BFAE00F00EFC012803D900F00AFCBA
:107140000428C8D90220EFE7002A3FF4B2AE00F0CD
:1071500001FC052803D900F0FDFB0728BBD9062058
:10716000E2E7AB78002B3FF4A4AE00F0F3FB0E286F
:1071700003D900F0EFFB1328ADD90F20D4E700BFEF
:1071800016C20020CEC10020CAC1002097C2002034
:1071900086DD030048C10020002A3FF48AAE00F0DB
:1071A000D9FB142803D900F0D5FB162893D9152054
:1071B000BAE7002A3FF47DAE1820B5E7AB78002B84
:1071C0003FF477AE2320AFE7AB78002B3FF4ADAEB2
:1071D00002F024FD08B902F005FD02F033FDA4F52C
:1071E000B8445D4B033C1880112C0AD8DFE804F04A
:1071F00013171B1F23272B2F33373B3F43474B4F7F
:1072000053571A7842F001021A70187802F01DFDE7
:1072100001F06AFF4DE61A7842F00202F4E71A78AC
:1072200042F00402F0E71A7842F00802ECE71A781C
:1072300042F01002E8E71A7842F02002E4E71A78F8
:1072400042F04002E0E71A7842F08002DCE71A7868
:1072500042F00C02D8E71A786FF30002D4E71A78EC
:107260006FF34102D0E71A786FF38202CCE71A7805
:107270006FF3C302C8E71A786FF30412C4E71A78F1
:107280006FF34512C0E71A786FF38612BCE71A78DD
:107290006FF3C712B8E71A7802F0FB02E8E71A7832
:1072A000C2F3C01181F0010161F3C712ACE7AC7801
:1072B0004CB100241C7002F03DFD284B18800220C8
:1072C00001F0D9FCF6E51B785BB9244B188802F075
:1072D0003DFDC72805D8262001F097FB262001F0A8
:1072E0006DFC022001F0D0FCE4E5AA783AB100245C
:1072F0005C7002F01FFD194B58802020E0E75B789E
:107300005BB9164B588802F021FDC72805D8272005
:1073100001F07BFB272001F051FC202001F0B4FCA0
:10732000C7E502F0E5FBAA780D4B6AB100F0AA00B0
:10733000002815BF01220022352029201A7002F0F2
:107340005BFB02F0A5FBB4E51B78002B14BF3520D6
:10735000292002F059FBF4E738E50020CAC10020DB
:10736000C9C1002000207047704700003022504300
:10737000C1F307230C2202FB030353FA81F3034AF0
:1073800032F8130082B002B0704700BFE6D80300A5
:10739000014B33F81000704798DD030013B5ADF8CA
:1073A00004100199FFF7E2FF00F02EF9B0F5A04FAD
:1073B00004462FD2B0F5804F80F0B480E72816D86D
:1073C000E02875D2A72808D8A52868D201286FD050
:1073D00001D304286CD200246AE0BC286BD9C028F1
:1073E000F9D3C03880B2FFF7D3FF044660E0B0F5B0
:1073F000005F08D2B0F5807F03D2F028EBD340F4D1
:10740000A044A4B254E0B0F5405F80F08380C0F3A4
:107410000B00E8E7B0F5AA4F1DD2B0F5A84FC3B2F4
:1074200080F09F80B0F5A44F07D2B0F5A24F7ED375
:107430004AF2F10040EA03243AE0B0F5A64F80F0AA
:1074400086809808012403F003039C4044EA40141A
:1074500044F40C44D5E7B0F5B24F0CD2B0F5B04FC0
:1074600080F08480B0F5AC4FB5D2040204F4F85437
:1074700044F400541CE0B0F5B44F7CD3A0F5C043F5
:10748000B3F5005FA7D2C0F3042000F029F9E4B2FD
:10749000000200F4F85044F40054044308E073D0B0
:1074A00044F2820244F28303A6280CBF14461C4611
:1074B000204602B010BDA82869D0A9286AD0AA2801
:1074C0006BD0AB286CD0AC286DD0BB286ED0BC285C
:1074D0006FD0AD2870D0B02871D0AE2872D0AF2850
:1074E00073D0B12874D0B22875D0B32876D0B42820
:1074F00077D0B52878D0B62879D0B7287AD0B828F0
:107500007BD0B9287CD0BA2844F22A6418BF4FF443
:107510008844CDE7C3B202054CBF43F4484443F46A
:107520004044C5E7C0F30B0444F42044C0E703F033
:10753000030201249440C0F3011044F40C4444EAD3
:107540000024C3F3810344EA43139CB2B0E79808D4
:10755000012403F003039C4044EA401444F40A4429
:107560004FE74AF2F40444EA0324A1E74AF2F000A8
:1075700040EA042445E700F00F0444F42044C0F33B
:10758000031344F0E004EEE744F2810490E744F290
:10759000E2448DE744F2E9448AE744F2EA4487E7AB
:1075A00044F2B54484E744F2B64481E744F2B3447C
:1075B0007EE744F2B4447BE744F2B74478E744F210
:1075C000CC4475E744F2CD4472E744F283546FE74C
:1075D00044F28A546CE744F2925469E744F29454BA
:1075E00066E744F2216463E744F2236460E744F20F
:1075F00024645DE744F225645AE744F2266457E7C1
:1076000044F2276454E7000082281AD00CD83128AD
:1076100054D004D829284AD02A2856D07047352873
:107620003ED039280DD07047E32823D004D8E02875
:107630000ED0E22813D07047E62822D0E72829D0C0
:107640007047264B1B7813F0030F18BFE0207047DC
:10765000224B1B7813F0010F18BF392070471F4BC6
:107660001B7859071BD513F0100F08BFE32018BF74
:1076700000207047194B1B785A072DD413F0100FB8
:10768000F5E7164B1B78190709D513F0100F08BF43
:10769000E720ECE7114B1B781A07EFD5E62070477F
:1076A0000E4B1B7813F0200F18BF292070470B4B8F
:1076B0001B7813F0200F18BF35207047074B1B783D
:1076C00013F0400F18BF2A207047044B1B7813F0AB
:1076D000400F18BF31207047E220704738E5002086
:1076E000164B1B78590707D500F01802082A12D14B
:1076F00000F0F70040F004001A0707D500F0180268
:10770000182A11D100F0E70040F01400DB0648BF52
:1077100000F0E700704700F01402042A04BF00F0F4
:10772000FB0040F00800E7E700F01402142A04BF51
:1077300000F0EB0040F01800E8E700BF38E500205B
:107740007047000070B58B78054613B901242046B8
:1077500070BD144E3478A4B945F616439842F5D15D
:10776000FFF7EEFF0123337002F0E4FA0E4B1880AE
:107770000E4B1C700E4B1C805C809C80DC801C813E
:10778000E5E7094B188802F0E1FAB0F5967FDDD203
:10779000064A0749137821F8135001331370002467
:1077A000D5E700BFDEC10020DCC10020DAC1002027
:1077B000D0C10020F0B5002936D0C1F1FF015143FE
:1077C00009123C27551ACCB2B0FBF7F607FB16019D
:1077D00089B2694391FBF7F1C9B2052E27D8DFE8DA
:1077E00006F003070C191D2060182146C4B209E0F9
:1077F000501A21461446C2B204E021441046C9B2D0
:10780000224604460C48045D415C825C5A701C7040
:107810009970F0BD501A11462246E7E760181146EC
:10782000E9E7511AC9B2EDE711461446EAE700212B
:107830000C460A46E6E700BFA0E00300084B1A78B2
:10784000012142F0010261F346021A701A886FF3B7
:10785000CF121A80FF229A70DA7000221A717047D4
:1078600008E5002010B5314C2378D90707D5304BF7
:1078700030491888000440F0030007F02DFA2378FF
:10788000DA070BD52C4B2D491A78294B18880004A0
:1078900002F0010240F0030007F022FA2378DB0730
:1078A0000BD5254B26491A78214B18880004C2F3C2
:1078B000450240F0030007F013FA2378D8070AD5F1
:1078C0001D4B20491A881A4B18880004D20940F031
:1078D000030007F005FA2378D90709D5144B1A4994
:1078E0001888154B00049A7840F0030007F0F8F967
:1078F0002378DA0709D50E4B144918880E4B00047B
:10790000DA7840F0030007F0EBF92378DB070BD5BA
:10791000074B0F491888084B00041A7940F0030000
:10792000BDE8104007F0DCB910BD00BF97C20020D1
:1079300048C10020C6DD030008E50020DDDD0300AE
:10794000FADD030015DE03002FDE030049DE03002D
:1079500063DE0300034B1B7813F0010018BFC3F371
:107960004500704708E50020034A13790133032BD3
:10797000A8BF03231371704708E50020034A137959
:10798000013B83F302031371704700BF08E5002039
:10799000094B1B7813F0010303D00C21074800F0BA
:1079A000F5BD064A02F1240153701370937003323F
:1079B0008A42F9D1F1E700BF08E5002010E5002078
:1079C00010B40A4B1B78DB070CD5094B03F12404D8
:1079D000587019709A700333A342F9D15DF8044BC3
:1079E000FFF7D6BF5DF8044B704700BF08E50020E5
:1079F00010E5002007B5094B1B78DB070AD501AB62
:107A0000FFF7D8FE9DF806209DF804109DF80500AC
:107A1000FFF7D6FF03B05DF804FB00BF08E50020C8
:107A20002DE9F04F454D89B0044605932B78DE07CC
:107A30008846174624D503F07E06022E23D107ABD5
:107A4000FFF7B8FE9DF81E209DF81C109DF81D0044
:107A5000FFF7B6FF2B8885F80280C4F3080262F3B3
:107A6000CF132B80364BEF701888059B00970004CE
:107A700040F00300002B5ED03249434607F044F942
:107A800009B0BDE8F08FC3F3450303F13E0202F0F5
:107A90003F02032A01D8EF78DCE703F13A0202F053
:107AA0003F02082A02D82C88E409D3E703F1270211
:107AB00002F03F02092ACDD8193B13F0010F224AE8
:107AC0004FEA63030CBF4FF0010A4FF0FF3A32F860
:107AD00013B00C23BBFBF3F30AFB03F3049300F591
:107AE000B47900264FF4B47299FBF2F302FB1393BE
:107AF0009AB20392154A1278D2070BD5104A14494C
:107B000010880004CDE900AB9BB2324640F0030080
:107B100007F006F90F4A039806EB46031344414663
:107B20003A46FFF747FE0136049B0C2E9944D9D103
:107B3000FFF72EFF8EE7434607499FE708E5002041
:107B400048C10020EDDF03009CDD030097C2002048
:107B5000C6DF030010E5002012E003000123FFF759
:107B60005FBF000007490888C0094FF4B4720A30AB
:107B700090FBF2F302FB130080B2CA788978FFF71A
:107B8000EDBF00BF08E500200A490888C0090928A0
:107B900081BF0A384FF4B47290FBF2F302FB13007A
:107BA00098BF00F5AF70CA78897888BF80B2FFF7B8
:107BB000D5BF00BF08E50020054B99781888DA7812
:107BC000EE299ABF1131C9B2FF21C009FFF7C6BF24
:107BD00008E50020054B99781888DA78102986BFC7
:107BE0001139C9B20021C009FFF7B8BF08E500206C
:107BF000054BDA7818889978EE2A9ABF1132D2B2FA
:107C0000FF22C009FFF7AABF08E50020054BDA787C
:107C100018889978102A86BF113AD2B20022C0097A
:107C2000FFF79CBF08E500200023FFF7F9BE000026
:107C300030B4094C2478E4070BD50B2B09D8074D39
:107C400003EB4303EC18E9546070A27030BCFFF7FB
:107C50009FBE30BC704700BF08E5002010E5002043
:107C600013B51C46084B1B78DB070BD501ABFFF7A0
:107C7000A1FD23469DF806209DF804109DF80500FF
:107C8000FFF7D6FF02B010BD08E50020074B012228
:107C90001A70074B1B78DB0707D5064B0649188877
:107CA000000440F0030007F017B87047FEC1002041
:107CB00097C2002048C100204BE00300074B002280
:107CC0001A70074B1B78DB0707D5064B0649188847
:107CD000000440F0030006F0FFBF7047FEC1002023
:107CE00097C2002048C1002039E0030010B5214CA4
:107CF0002378DA073DD5F0B9012262F346032370F9
:107D00001D4B22781888000440F00300C2F345029E
:107D1000C1B11A4906F0E4FF237803F07E02022A7B
:107D200012D1FFF7CBFF2088E278A178C009BDE827
:107D30001040FFF779BF242801D92422DDE760F342
:107D40004603DCE70E49E5E7C3F3450303F13E01D3
:107D500001F03F01162903D9462A01D0482A02D151
:107D6000FFF794FFDFE7273303F03F03092BDAD84F
:107D7000D7E710BD08E5002048C100208CDF0300D4
:107D8000A8DF03000121FFF7B1BF0000044B187802
:107D9000C0F345000130252828BF0120FFF7F2BFBE
:107DA00008E50020054B1878C0F34500013810F0B5
:107DB000FF0008BF2420FFF7E5BF00BF08E5002053
:107DC00010B50A4C0A49237843F001032370094B8C
:107DD0001888000440F00300012206F081FF20789B
:107DE000BDE81040C0F34500FFF7CCBF08E5002018
:107DF000B7DE030048C100200021FFF777BF000075
:107E000010B5274C237843F00103D807237007D51A
:107E1000244B25491888000440F0030006F05CFF5D
:107E20002378D90707D51F4B20491888000440F054
:107E3000030006F051FF01F0F1FE70B92378DA0774
:107E400007D5184B1A491888000440F0030006F0C3
:107E500043FF01F0C7FEFFF7F1FC164B00221A604A
:107E6000227812F0010F1C4607D00E4B12491888D9
:107E7000000440F0030006F02FFFFFF7DFFC0023B3
:107E80002360FFF7EFFC0D4B207801221A70C30727
:107E900005D5C0F34500BDE81040FFF7ADBF10BDEC
:107EA00097C2002048C10020EEDE030005DF03007A
:107EB0001BDF030008E5002043DF0300FEC10020B4
:107EC00038B50E4B0E491A780E4D6FF300021A703A
:107ED0000D4B18880004002240F0030006F000FF5C
:107EE000FFF7ECFE322445F001054FF47A40A84735
:107EF000013CFAD1BDE83840FFF74ABD08E5002053
:107F00007FDE0300C0DD030048C1002010B50C4B2C
:107F10000C4C188822780C49C2F30002000482F04D
:107F2000010240F0030006F0DBFE2378DB0703D5F7
:107F3000BDE81040FFF7C4BFBDE81040FFF740BFE9
:107F400048C1002008E500205CE0030000000000BC
:107F500037B5294C0546208801F0F8FE274B5B5DBC
:107F6000834235D801F0E6FE2080254C207814F0BD
:107F7000F5FC19A3D3E9002314F084FE18A3D3E978
:107F8000002314F055FD41EC100B12F0A1FF12F08C
:107F9000FFFF15A3D3E9002351EC100B14F090FB65
:107FA00013A3D3E9002314F043FD15F003F807EE03
:107FB000900A144BFCEEE77A1888CDED017A997897
:107FC0009DF80420C009FFF715FD237801332370C5
:107FD00003B030BDAFF300800000000000E06F4050
:107FE000182D4454FB210940142A835849C7E53F02
:107FF0003105E4EE7D1F5B40E6C1002098DD030003
:10800000F8C1002008E5002038B50E4C0546208850
:1080100001F09CFE0C4B5B5D834212D801F08AFE9E
:108020000A4B20800A4CDA7899782088FFF7E2FC26
:1080300023884FF4B471013393FBF1F201FB123347
:10804000238038BDE8C10020A9DD030008E5002039
:10805000E0C100202DE9F8431E4C0746208801F0BE
:1080600075FE7B081C4AD35C83422BD801F062FE6C
:10807000DFF86C90DFF86C80184D208000242A888F
:1080800098F802101E2000FB04204FF4B47604EB95
:10809000440390FBF6F206FB12004B4498F80320D1
:1080A00080B20134FFF786FB0C2CE8D1FFF770FC9F
:1080B00017F0010F2B8807D0013393FBF6F206FB74
:1080C00012332B80BDE8F88313B940F26713F8E749
:1080D000013BF6E7EAC10020ACDD0300E2C100206D
:1080E00010E5002008E500202DE9F74F2E4D10F097
:1080F000010F044628880CBF4FF0010A4FF0FF3AE9
:10810000640801F023FE294B1B5D83423FD801F038
:1081100011FEDFF8A0B0264EDFF89C9028805F4665
:10812000002500245FFA8AF374703470B4700193F0
:108130004FF004089BF800302344DBB25AB2002A07
:10814000BCBF0C335AB295420DD199F80320B9F84F
:10815000000099F8021008FB02F23346C2F38702CE
:10816000C009FFF727FB019BB8F101081C44E4B2EA
:10817000E0D101350C2D06F10306D2D1FFF708FC42
:10818000BAF1010F3B7807D123B90B233B7003B041
:10819000BDE8F08F013BF9E7013393FBF5F205FBF6
:1081A00012353D70F3E700BFECC10020B2DD0300E3
:1081B00010E50020F9C1002008E500202DE9F0417C
:1081C000254C0546208801F0C1FD244B5B5D8342B0
:1081D0003AD801F0AFFD2080214C002204F12401A7
:1081E00023465A701A709A7003338B42F9D11D4F8F
:1081F000DFF8788000253E4697F900309D4225DB68
:1082000098F900309D4221DC17490888CA7889789E
:108210002346C009FFF7CEFA01350C2D04F1030403
:10822000EAD1FFF7B5FB114C114822780178337879
:108230000A4452B20B445BB2002A3370227001DD53
:108240000A2B01DD49420170BDE8F0810023637013
:108250002370A370E0E700BFEEC10020A6DD03009D
:1082600010E50020F6C1002008E5002094BC0020A5
:1082700095BC0020F8B5154C208801F067FDB0F5DD
:108280007A7F21D301F056FD114B124F1D88124EFB
:108290002080013505F001051D80002405EB540008
:1082A00000F001021001801A04EB4403C00080B208
:1082B0003B44F278B1780134FFF77CFA0C2CEDD115
:1082C000BDE8F840FFF764BBF8BD00BFF0C1002077
:1082D000E4C1002010E5002008E5002038B5194D64
:1082E000288801F033FD184B1B88834225D8174C92
:1082F00023781BB9164B93F8FF30237001F01AFD59
:108300002880144D2B78012B09D004D3022B15D0D3
:108310000022104601E020780022114602E00022EF
:1083200021781046FFF74CFB2B780322013393FB97
:10833000F2F202EB42029B1A2B7038BD0020227829
:108340000146EFE7F2C10020B0DD0300F7C10020D5
:10835000A0E00300FAC10020F8B5144C208801F019
:10836000F5FCB0F5FA7F1CD301F0E4FC104F114D81
:1083700020803E46002428883A88A978052CE3B25C
:108380004FEAD0100EDC7AB1EA780134FFF768FCCE
:108390000C2CF0D1FFF7FCFA3388013303F0010312
:1083A0003380F8BD002AEFD00022EEE7F4C10020B0
:1083B000FCC1002008E50020244B1B78002B43D093
:1083C000234B1B78C3F3450000F13E0202F03F024D
:1083D000032A03D80238C0B2FFF7BABD00F13A024F
:1083E00002F03F02022A03D80638C0B2FFF70CBEE3
:1083F00000F1370202F03F02052A03D80938C0B263
:10840000FFF728BE00F1310202F03F02052A03D82F
:108410000F38C0B2FFF768BE00F12B0202F03F0236
:10842000022A03D81538C0B2FFF7C8BE03F07E0396
:10843000302B01D1FFF71EBF462B01D1FFF74EBFF6
:10844000482B01D1FFF788BF704700BFFEC1002055
:1084500008E50020704700002DE9F043DFF828818F
:1084600098F80030ADF6646D06460C4604ADABB925
:10847000424F386879682B4603C3B8681860FF23F9
:108480002A706B70AB70EB703D4A3E48142329464E
:108490002B810AF03FF9012388F8003004EB4403F4
:1084A000DB0003F5C163ADF804300023CDE90233EE
:1084B000304600952946802648F20C0748F2060C03
:1084C0009C4223DC302101FB045101F5406348F25A
:1084D000060001F1300221F8020B8A42FBD19342DF
:1084E0001146F6D14FF400421A805A809A80DA8001
:1084F0001A815A819A81DA8101231A4669462148F4
:108500000AF0CCF90DF6646DBDE8F08390F80080B8
:10851000002246FA02FE1EEA080F14BFBE46E646D7
:1085200021F812E00132082AF3D190F8019001F10C
:10853000100E002246FA02F818EA090F02F10102B1
:1085400014BFB846E046082A2EF8028BF2D190F804
:10855000029001F1200E002246FA02F818EA090FF3
:1085600002F1010214BFB846E046082A2EF8028B39
:10857000F2D1013303303031A2E700BF94E00300B1
:108580005584020098BC0020FFC100200322FFF7A1
:1085900063BF10B5012304468375407B01F0AEFA3A
:1085A000A07B01F0C7FA01F073FA6368E16904F196
:1085B0000C0013B1BDE81040184710BD70B5437AE8
:1085C0000646DBB98488A4F5AE4465010C4C6219FB
:1085D00005F10C00D1699268204402B190472C4407
:1085E000607B01F093FAA07B01F0ACFA01F050FA45
:1085F000044A002333703372B372138070BD00BF1E
:1086000074BC002000C200202DE9F8438B78074697
:1086100073B1144E96F90020013209D0124CDFF8E4
:108620004C9000254FF0010896F90030AB4201DA7A
:10863000BDE8F883237B8BB1238ABB4203D1B9F811
:108640000030BB420AD0A37D84F8148013B92046C1
:10865000FFF79FFF04F10C00FFF7B0FF0135203456
:10866000E2E700BFA0BC002074BC002000C20020D4
:10867000F8B5A0F5AE44FF2C074629D81B4B1C4E7D
:1086800093F90000A4B222B29042B8BF1C706401FA
:1086900035198B786B758A782B7BDAB101332B73A4
:1086A0002F8201F047FB688201F07CFA687301F0C9
:1086B0001FFAA87301F038FAAB7BE9691843A87375
:1086C000335904F10C00304403B19847094B1F8023
:1086D0000120F8BD002BFBD0AB7D002BF8D004F1BE
:1086E0000C003044FFF76AFFF2E700BFA0BC002097
:1086F00074BC002000C200202DE9F843154B93F90B
:1087000000200132994620D1BDE8F883640108EBCE
:1087100004052E8B2B7B002E08BFC82673B1688AF8
:1087200001F014FBB04209D9AB7D13B92846FFF71D
:1087300030FF04F10C004044FFF740FF013799F986
:108740000030FCB29C42E1DDDEE70027DFF8088064
:10875000F5E700BFA0BC002074BC0020014B1860EE
:10876000704700BF04C20020024B186808B10368BC
:108770001847704704C200202DE9F0411A4B1B68CE
:108780000646002B2ED0194C5B6898472378580773
:1087900028D5D90707D5164B16491888000440F08C
:1087A000030006F099FA124FDFF850800025237875
:1087B000DA0707D53888725D0004414640F00300AF
:1087C00006F08EFA0135082DF1D12378DB0709D5A3
:1087D000074B09491888000440F00300BDE8F04148
:1087E00006F07ABABDE8F08104C2002097C20020EA
:1087F00048C10020A0E103003AF40300B2E1030005
:10880000024B1B680BB19B681847704704C20020DD
:10881000054B1988814205D01880044B1B680BB1A9
:10882000DB681847704700BF0AC2002004C200205E
:10883000054B1988814205D01880044B1B680BB189
:108840001B691847704700BF08C2002004C20020FF
:108850000120704708B501F05DFA02F035FB01F028
:10886000D1FBBDE80840FFF7CBBA000038B5154C86
:1088700023780546580720D5D90707D5124B134949
:108880001888000440F0030006F026FA2378DA077F
:1088900008D50D4B0E49188800042A4640F0030005
:1088A00006F01EFA2378DB0707D5074B094918881D
:1088B000000440F0030006F00FFA2846BDE83840F7
:1088C000FEF7BEBA97C2002048C10020B8E10300FD
:1088D000CBE103003AF403002DE9FF4702F018FC56
:1088E000FFF7B6FF002850D0334EDFF8D4900024B5
:1088F00037465FFA84F8404602F0A4FA36F814507E
:10890000854282463ED099F80030980701D502F0A2
:108910009FFA85EA0A050023ADB245FA03F1C907BB
:10892000DAB22CD501259D401AEA050F14BF0123A8
:1089300000238DF800208DF802308DF8018001F0C1
:10894000F9F940F001006B46ADF8040093E803002C
:1089500000F046F837F814306B4027F81430174C05
:1089600001F06EFDFFF700FF2378834220D0FFF770
:10897000FBFE207004B0BDE8F047FFF777BF01337E
:108980000C2BCAD10134042CB3D14FF6FF73ADF8D0
:10899000083000238DF80A3001F0CCF940F00100D6
:1089A000ADF80C0004AB13E9030000F019F8D6E7AA
:1089B00004B0BDE8F08700BF0EC200200CC200204A
:1089C00097C2002038B5054D044645F001054FF427
:1089D0007A40A847013CFAD138BD00BFD0E103007E
:1089E00084B06B4683E803000022ADF80E2093E8C4
:1089F000030004AB0290ADF80C1013E9030004B0BF
:108A000000F01ABE008800F0C5BF10B5044600286B
:108A100000F0D380822813D1FFF7A6FE810700F172
:108A2000CC80392000F0E8FF01F032F86420FFF735
:108A3000C9FF392000F0E8FFBDE8104001F028B878
:108A400083280ED1FFF790FEC20700F1B6805320B5
:108A500000F0D2FF01F01CF86420FFF7B3FF5320B1
:108A6000E8E784280ED1FFF77FFE430700F1A580D9
:108A7000472000F0C1FF01F00BF86420FFF7A2FFD0
:108A80004720D7E7031FDBB2A02B08D802F016F867
:108A9000002840F09280204600F0AEFFCCE700F1C5
:108AA0002003DBB2072B07D800F007040120A04009
:108AB000C0B201F023F8BFE700F15B03DBB2022B89
:108AC0000BD8A52807D0A6280CBF82208320BDE89C
:108AD0001040FFF79DBE8120F9E700F15803DBB29B
:108AE000142B62D8A8282ED0A9282ED0AA282ED0A0
:108AF000AB282ED0AC282ED0BB282ED0BC282ED010
:108B0000AD282ED0B0282ED0AE282ED0AF282ED013
:108B1000B1282FD0B22830D0B32831D0B42832D0E9
:108B2000B52833D0B62834D0B72835D0B82836D0B9
:108B3000B92837D0BA2840F22A2018BF0020BDE853
:108B40001040FFF775BEE220F9E7E920F7E7EA20D9
:108B5000F5E7B520F3E7B620F1E7B320EFE7B4205F
:108B6000EDE7B720EBE7CC20E9E7CD20E7E740F2DF
:108B70008310E4E74FF4C570E1E74FF4C970DEE716
:108B80004FF4CA70DBE740F22120D8E740F22320FF
:108B9000D5E74FF40970D2E740F22520CFE740F245
:108BA0002620CCE740F22720C9E7EF2805D901F0BD
:108BB000B1FABDE8104001F09FBB10BD08B5002818
:108BC00058D082280FD1FFF7CFFD810752D5392029
:108BD00000F012FF00F05CFF392000F015FFBDE847
:108BE000084000F055BF83280AD1FFF7BDFDC2073A
:108BF00040D5532000F000FF00F04AFF5320ECE77F
:108C000084280AD1FFF7B0FD430733D5472000F091
:108C1000F3FE00F03DFF4720DFE7021FD2B2A02A9B
:108C2000DBD900F12002D2B2072A07D800F00703EF
:108C300001209840C0B200F069FFD0E700F15B026C
:108C4000D2B2022A04D80020BDE80840FFF7E0BDF8
:108C500000F15802D2B2142A04D80020BDE808401E
:108C6000FFF7E6BDEF2805D901F0BEFABDE80840E0
:108C700001F042BB08BD08B528B100F03FFFBDE8D8
:108C8000084000F005BF08BD08B528B100F03EFF60
:108C9000BDE8084000F0FCBE08BD00002DE9F0472B
:108CA00090F80690857807460C464FEA19190DB1E1
:108CB00000F050FF00F0E2FE804670B125B304F1F1
:108CC0002003DBB2072B1FD9022000F0C3FE00F007
:108CD000D5FE80F001005FFA80F8C4F303360F2E52
:108CE00000F2B180DFE816F0130013005A005A00BA
:108CF000AA00C400AF00AF00F800AF00500150015F
:108D0000B001AF00AF00B9014FF00008E5E7C4F3D0
:108D10000723C4F3032613F0F00F18BF3601E4B2A3
:108D200095B156B104F12003DBB2072B304600D9D0
:108D30003CB900F0E3FE00F0ABFE2046FFF765FE15
:108D400011E000F0F7FEF6E72046FFF737FF56B1D7
:108D500004F12003DBB2072B304600D9DCB900F068
:108D6000D5FE00F095FEB8F1000F00F07D8100F017
:108D700061FE10F0010040F07781B87000F052FE03
:108D800000F066FD384600F073F900F04BFEBDE8D8
:108D9000F04700F067BD00F0D5FEE2E7C4F307231B
:108DA00003F0F003C4F30326202BE4B218BF36010E
:108DB00064B1012C2CD0ADB3B9F1000F2CD0BB792C
:108DC000D907BAD56FF30713BB7125E09DB1B9F18F
:108DD000000F06D100F0E6FE3043C0B2FFF74BFFB4
:108DE000C1E7B9F1010FF5D100F0DCFE3043C0B2AC
:108DF00000F0CCFEB7E7B9F1000F05D100F0CCFED2
:108E00003046FFF741FFAEE7B9F1010FABD0F5E710
:108E100025B1B9F1050FA6D83046DFE7B9F1040F47
:108E2000A1D8EDE7B9F1000FEAD0392C02D15020DA
:108E3000FFF7C8FD2046FFF7C1FE94E7C4F3812386
:108E400033B1012B0CD0082E63D00B2E61D08AE7F2
:108E500025B1C4F30900FFF7DBFC84E72846FAE7F5
:108E600025B1C4F30900FFF7E3FC7CE72846FAE7E5
:108E7000E0B2CDB1F5280DD0F62810D0F42804D1F9
:108E80007A4A136843F00103136001F043F901F0DB
:108E900033FA68E7754A136843F00203F4E7734A4C
:108EA000136843F00403EFE7F5280BD0F6280ED043
:108EB000F42804D16D4A136823F00103136001F014
:108EC00093F9E4E7694A136823F00203F6E7674A77
:108ED000136823F00403F1E714F4407F27D1C5B9E8
:108EE000E206C4F3421048BF0F254FEA800048BF96
:108EF000854004F00F03C4F3812448BFED43834051
:108F0000022C45EA03000CD00ED8012C06D000F04C
:108F100075FCFFF729FCFDF793FF24E700F066FCE2
:108F2000F7E700F073FCF4E700F05DFCF1E7C4F351
:108F30000122D3B2EDB102F00103002BE9D0C4F35A
:108F40004210830004F00F0000FA03F214F0100046
:108F50001CBF0F209840C4F3812418BFC043022CCB
:108F600040EA02000AD00CD8012C04D000F098FC92
:108F7000CFE75B08E1E700F08BFCCAE700F098FC64
:108F8000C7E700F051FCC4E75FFA84FAAAF1F003E6
:108F9000042B3DD8DFE803F00310161D260045B171
:108FA000B9F1040F3FF64FAFC4F3042000F066FCA4
:108FB00049E7B9F1050FF5E7C4F3042035B100F036
:108FC00047FC40E7C4F30420002DF8D000F04AFC31
:108FD00039E725B1C4F3042000F035FC33E700F095
:108FE0002FFC30E74DB1C4F30424204600F030FCE0
:108FF0000321204600F026FD25E7012000F02AFD90
:10900000B9F1010F7FF61FAF022000F023FD1AE730
:109010004DB1B9F1000F03D05046FFF7F6FC12E74F
:10902000C4F30420CBE7B9F1000F0AD0BAF1390F2D
:109030000CBF50203220FFF7C5FC5046FFF7BEFDA5
:1090400001E7C4F30420C1E7C4F30322E1B23846C8
:10905000FEF788F900F05CFB85E6C4F30322E1B279
:109060003846FEF781F97EE6BDE8F08734E500205A
:1090700037B583880288ADF804200446C3B1BDF833
:1090800004204FF6FF739A4212D0FDF7F3FE78B139
:109090002188A07800F08CFC054600F011FC00F05F
:1090A000A1FB2946204603B0BDE83040FFF7F6BDDE
:1090B00003B030BD08B500F04DFD00F061FD00F0DB
:1090C000E7FC01F03BFA01F017F90020FFF7A0FBE5
:1090D0000020BDE80840FFF7ABBB08B500F09CFCE2
:1090E000BDE80840FFF7E6BF08B500F017FDBDE892
:1090F0000840FFF7F2BFC0F303330E3303F00F0253
:109100000D2A0CD80123934013F4105FC1B217D17C
:1091100040F20330184004D113F010030BD10020AB
:109120007047F02902D003D8E729F8D8012070470A
:10913000F429F4D1FAE7E729F8D9F129F6D07047F4
:10914000C0F3C020704707B5ADF80400019800F0E7
:1091500021FC03B05DF804EBFFF7CDBF82B002AB9A
:1091600003E9030002B0704782B002AB03E90300D9
:1091700002B0704770B5094B094E1C78094D337821
:10918000A34200D170BD05EBC40355F83400596803
:109190000134FFF7E9FF04F00704F0E761C20020A3
:1091A00060C2002020C20020024B18685968FFF7F7
:1091B000DBBF00BF18C200202DE9F341274A937995
:1091C00013F0F00F0CD1937853B1254BDFF898C012
:1091D0001978244D4FF6FF769CF800308B4202D16F
:1091E00002B0BDE8F0819388002B33D0177892F855
:1091F00001E08DF804708DF805E0BDF80400B04280
:1092000028D0C8002C1894F80180F04522D115F818
:1092100031E0BE451ED1A778E7B9A488A3428ABF32
:10922000F31AE31A1B19C72BCCBF002301238BB100
:109230009379012161F3071393712B1807489A79E9
:1092400061F307129A71FFF713FF02B0BDE8F04116
:10925000FFF790BF013101F00701BDE718C2002000
:1092600061C2002020C2002060C200202DE9F0472A
:10927000A54C05468EB0A7880068218808900DF19E
:10928000200C2A786B7895F80280B5F80490ADF838
:10929000041094F800E06078002F00F03D818EB259
:1092A0004FF6FF718E4200F03781A678002E00F055
:1092B00033814F458ABFCF1BA9EB07074F44C72F08
:1092C000A179CCBF0027012701F0F00A002F00F0A0
:1092D000C980BAF1000F7BD18DF809008DF808E044
:1092E000BDF808C04FF6FF708445464618D08DF88B
:1092F00020208DF821302088BDF820C084450FD172
:1093000076B9012363F30711A171FFF74DFF7E4882
:10931000FFF7AEFEA379AB7130460EB0BDE8F08723
:10932000B9F1000F08D1B8F1000FF5D0A37943F0DF
:109330000103A3710026EFE78DF81C208DF81D3086
:10934000BDF81C004FF6FF718842ECD0B8F1000F59
:10935000ECD16E486E4990F800C009786D486145BF
:109360000FD18DF820208DF82130089800F012FBE5
:10937000C0F30332C3B2032A1DD8DFE802F013138F
:10938000212100EBC10494F801E09E4506D110F8BC
:1093900031E0964502D1A478002CBDD1013101F015
:1093A0000701DCE710F4706F01D0002BB4D020333C
:1093B000DBB2072BB0D92846FFF75AFE3E46ABE793
:1093C00010F4706FF3D0AA7912F0F00FEFD1A3E789
:1093D0008DF80D008DF80CE0BDF80C604FF6FF70B5
:1093E000864216D08DF820208DF821302088BDF8D7
:1093F000206086420DD1B8F1000F0AD1A97128462C
:10940000FFF736FE2B6823606B686360FFF7CCFEC6
:10941000D4E78DF820208DF821300898FFF793FECF
:10942000E0B1B8F1000F19D0A3791F2B0CD9228815
:10943000ADF8282000228DF82A20ADF82C908DF868
:109440002E300AA8FFF714FE2B6823606B68636058
:10945000FFF7B2FEFFF7A8FE01265DE72846FFF7FB
:1094600007FEF9E7BAF1000F13D18DF820208DF82F
:1094700021308DF82280ADF824909CE80300FFF79E
:109480006DFE2148FFF7F4FD27606760FFF78CFE53
:1094900050E78DF811008DF810E0BDF810704FF610
:1094A000FF70874214D08DF820208DF8213020885D
:1094B000BDF8207087420BD1B8F1000F08D1A97117
:1094C0002846FFF7D5FDC4F80080C4F8048023E7E0
:1094D0008DF820208DF821300898FFF734FE002801
:1094E000BCD0B8F1000FB9D0A3791F2BACD922881A
:1094F000ADF8302000228DF83220ADF834908DF890
:1095000036300CA89EE700BF18C2002060C20020C1
:1095100061C2002020C20020002F72D08DF814E01C
:109520008DF81500BDF814104FF6FF76B14268D0E3
:10953000A178002965D14F4539D8A9EB0707C72F76
:10954000CCBF00260126002E4CD04646002E85D0EA
:109550008DF818E08DF81900BDF818004FF6FF716E
:1095600088422DD08DF820208DF821302188BDF83B
:109570002000884224D1A379DA071CD413F0F00F1D
:1095800019D003F0F002F02A1CBFC3F3031201321A
:10959000AB711CBF62F30713AB712846FFF768FD80
:1095A0002B6823606B686360FFF7FEFDB4E6F61B73
:1095B0004E44C72EC4E72B6823606B686360ABE63C
:1095C0008DF820208DF821300898FFF7BCFD002889
:1095D0007FF43AAFA379284643F00103A371FFF764
:1095E00047FD99E68DF82280ADF824908DF8202073
:1095F0008DF821309CE80300FFF7B0FD266066601F
:10960000D2E7B8F1000F3FF429AF8DF820208DF894
:1096100021300898FFF797FD064600283FF41EAF5B
:109620002B6823606B6803486360FFF7EBF9FFF773
:10963000C3FDB9E718C20020F0B587B06C4684E8D6
:1096400003002046FFF712FE2D4E2E4D074688B12F
:10965000BDF80430BDF80020ADF8082043B192B247
:109660004FF6FF739A4203D094E80300FFF77CFDA6
:10967000254C40E094E8030004AB83E80300BDF808
:109680000420BDF81010ADF80C10002AF0D089B2FB
:109690004FF6FF729142EBD034782978621C02F0C9
:1096A00007028A420BD0184F327003CB07EBC40C71
:1096B00047F83400CCF80410FFF75CFDD8E7FFF75B
:1096C00013FD124B37702F701F605F6007B0F0BD45
:1096D00004EBC000FFF7CAFD0028F7D02B7804EB9D
:1096E000C30254F833005168FFF73EFD2B78013375
:1096F00003F007032B70287833788342E8D1E5E73D
:1097000060C2002061C2002020C2002018C20020D8
:10971000F8B5034670B12B4E002746F001061878C5
:10972000732803F1010406D8042827D201280ED09B
:10973000022826D0F8BD75283DD032D3A0F184038D
:109740006F2BF7D800F07F00FFF738FA0EE09C1C73
:109750005B7803F12002D2B2072A0ED803F0070388
:109760009840C0B200F0FCF900F092F93D46013D8E
:10977000EDB2FF2D22D12346D1E71846FFF745F978
:10978000F4E758789C1C00F12003DBB2072BDBD8F0
:10979000012300F0070003FA00F0C0B200F0E8F97E
:1097A000E2E75D789C1C013DEDB2FF2DDED04FF469
:1097B0007A40B047F7E79C1C5F78D7E74FF47A40D0
:1097C000B047D4E7E0E103007047000008B5FFF7B9
:1097D000FBFF034B1860BDE80840FFF77EBC00BFED
:1097E00064C200207047FFF7F1BF0000024B1B6806
:1097F0001843FFF7EBBF00BF64C20020024B1B6899
:109800001840FFF7E3BF00BF64C20020024B1B6893
:109810005840FFF7DBBF00BF64C20020704708B5A7
:10982000FFF7FCFF08BD000008B5FFF7F8FF034B8A
:109830001860BDE80840FFF750BC00BF68C20020B8
:109840000020FFF7F1BF012303FA00F0FFF7ECBFA0
:10985000012303FA00F0024B1B681843FFF7E4BF33
:1098600068C20020012303FA00F0034B1B6823EABF
:109870000000FFF7D9BF00BF68C20020012303FA30
:1098800000F0024B1B685840FFF7CEBF68C20020B3
:10989000024B1B681843FFF7C7BF00BF68C2002018
:1098A000024B1B681840FFF7BFBF00BF68C2002013
:1098B000024B1B685840FFF7B7BF00BF68C20020CB
:1098C00070470000C0F3072303EB430300EB83035F
:1098D00003F0FF0337B503F0070201209040DB08D7
:1098E0000A4A03EB8303C0B21344002413F8015F58
:1098F00021FA04F242F300026A40024001346A4055
:10990000052C1A70F2D103B030BD00BF6BC200202D
:10991000C0F3072303EB430313B500EB830000F010
:10992000FF0000F007040949C00800EB8000002296
:10993000014410468B5CE34003F001039340013285
:109940001843052AC0B2F5D102B010BD6CC2002088
:1099500073B50E4BADF804001D680D4B1B681F243A
:109960001D4325FA04F3DB0766B2E0B206D414F116
:10997000FF34F6D20026304602B070BD0199FDF7E3
:109980000DFD80B20128F2D0F5E700BF68C20020CB
:1099900064C2002007B5ADF804000198FFF7D8FFB6
:1099A0000199C0B203B05DF804EBFDF7F7BC00000D
:1099B00013B5104BADF804101B782BB1019802B011
:1099C000BDE81040FFF7E6BF70B10198FFF7C0FF98
:1099D000C4B221460198FFF775FF0199204602B0F5
:1099E000BDE81040FDF7DABC0198FFF791FF04468F
:1099F000F3E700BF16C20020024B0146186800F0D2
:109A00005AB900BFA4BC0020024B0146186800F000
:109A100054B900BFA4BC0020014B186800F04FB936
:109A2000A4BC0020024B93F90000C0F3C7007047AC
:109A300093C20020024B187800F00700704700BF67
:109A400093C20020024B41EAC0011970FFF700BF2A
:109A500093C20020084A92F9003023EA000040B285
:109A60001070420706D1DBB2834203D0C0F3C700B7
:109A7000FFF7F8BE704700BF93C20020034B187871
:109A800010F0070018BF0120704700BF93C20020EC
:109A900038B5124C124922680978117021681148B2
:109AA0000A780078104D02430A7021680F480A783E
:109AB000007802430A7095F900204AB123681978AA
:109AC0000A431A70206800F0C4F808B100232B7014
:109AD0002068BDE83840FEF74FBE00BFA4BC0020A0
:109AE00095C2002096C2002094C2002092C200209D
:109AF000014B1878704700BF95C20020024A1378C6
:109B000018431070704700BF95C20020024A1378B6
:109B100023EA00001070704795C20020014B00221C
:109B20001A70704795C20020014B1878704700BF2B
:109B300096C20020024A137818431070704700BF85
:109B400096C20020024A137823EA00001070704782
:109B500096C20020014B00221A70704796C2002066
:109B6000024A137818431070704700BF92C2002059
:109B7000024A137823EA00001070704792C2002056
:109B8000014B00221A70704792C20020014B1870DE
:109B9000704700BF94C20020014B00221A7070472A
:109BA00094C20020014B1878704700BF94C2002077
:109BB000030C002B16BF184600231023020A1CBFFB
:109BC0001046083302091EBF04331046DBB2820878
:109BD0001EBF02331046DBB242081CBF0133DBB2AA
:109BE0001846704708B54FF6ED61002000F006FA00
:109BF0000021022000F000FA0021032000F0FCF90F
:109C00000021042000F0F8F90021052000F0F4F90B
:109C100000210820BDE8084000F0F2B908B5002096
:109C200000F0A2F94FF6ED63C31A5842584108BD3F
:109C3000022000F071B9032000F06EB90146032044
:109C400000F0DAB9042000F067B90146042000F002
:109C5000D3B9421C00F10803002012F8011B09B11E
:109C60000130C0B29A42F8D1704730B54FF0FF339F
:109C7000851C002215F8014B8C420ED0B3F1FF3F3A
:109C800002D1002C08BF13460132D4B2062C62B2B6
:109C9000F0D15A1C01D01844817030BD10B5831C1E
:109CA0000022083013F8014B8C4208BF03F8012C46
:109CB0008342F7D110BDFFF7D8BFFFF7EFBF0023F6
:109CC00043708370C370037143718371C3717047B4
:109CD00008B5084A084813680A3313600021074A88
:109CE00005F0C4FB00224FF4A4710548BDE808400C
:109CF00005F0CEBBB8C20020E8E10300D19C020011
:109D000098C20020024A136818441060704700BFD0
:109D1000B8C2002008B5054A0548002105F0A6FB99
:109D200018B1BDE8084005F057B908BDD19C020044
:109D3000E8E10300014B186880B27047B8C2002008
:109D4000014B1868704700BFB8C20020054B1A6865
:109D50001B6892B2904288BF03F1FF33181A80B299
:109D6000704700BFB8C20020024B1960024B186058
:109D7000704700BFBCC20020C0C2002041DF704756
:109D800030B5354D4268354B017853F82230344AAE
:109D90000446288852F821203249000487B040F058
:109DA000030004F0A7FF2378052B2BD8DFE803F08E
:109DB000032C2A2C2A48616821BB2B4B01221A70E4
:109DC00001A8122210F0EFFB01A806F0DFFA08B19B
:109DD00005F002F92888BDF808202449000440F065
:109DE000030004F07DFF2888BDF80A202049000404
:109DF00040F0030004F074FFBDF80A30222B01D9B3
:109E000006F072FA07B030BD6368002BFAD12888DB
:109E1000A2681849000440F0030004F061FF28889C
:109E2000A2891549000440F0030004F059FF288876
:109E3000E2891249000440F0030004F051FFE1E719
:109E40006368002BDED128880D49000440F0030030
:109E500004F042FFD6E700BF48C10020A8BC0020A4
:109E600098E20300ECE10300F0C2002004E20300EA
:109E70001CE2030054E2030066E2030076E2030002
:109E800089E203001FB51E4806F05CF806F070F882
:109E900008B105F0A1F81B4A13784BB30021082242
:109EA0006846CDE9001110F07EFB6B46164A41F280
:109EB00001014FF4805006F03BFAE0B9CDE9020011
:109EC00002A9114806F052F908B105F085F82422DC
:109ED00003990E4810F043FB0B4806F06BF908B1EC
:109EE00005F07AF80A4B01221A7005B05DF804FB00
:109EF000FFF744FFD0E70749034806F0BDF9EEE756
:109F0000819D0200F0C20020F4C20020C4C20020E3
:109F1000E8C20020B0E2030010B5044B1B780446F1
:109F20000BB9FFF7AFFF024B185D10BDE8C2002070
:109F3000C4C2002038B5084B1B7804460D460BB947
:109F4000FFF7A0FF054B1D55054B01221A70054B6D
:109F500000221A6038BD00BFE8C20020C4C2002041
:109F6000E9C20020ECC2002038B50546FFF7D4FF57
:109F70000446681CFFF7D0FF44EA002080B238BDD9
:109F800038B5094B1B7805460C460BB9FFF77AFF2D
:109F9000064B5C552B44240A5C70054B01221A7059
:109FA000044B00221A6038BDE8C20020C4C2002061
:109FB000E9C20020ECC2002038B50B4B1B780546E7
:109FC0000C460BB9FFF75EFF084844552844230AA6
:109FD0004370230C8370064B01221A70054B240E2C
:109FE0000022C4701A6038BDE8C20020C4C200203C
:109FF000E9C20020ECC20020FFF79CBFFFF7C0BF02
:10A00000FFF7DABF08B5FFF709FE08B9FFF7EAFD69
:10A01000FFF70EFE054B1870FFF714FE044B188077
:10A02000FFF709FEBDE80840FFF7DDBB97C200203F
:10A0300038E50020194B1B78D90709D5184B18783B
:10A0400000EB800080087F2823D820B3C0B270477F
:10A050009A0705D5124B187800EB80004008F2E70C
:10A060005B0704D50E4B187800EB8000EBE70D4B37
:10A070001B7863B10C4A0A4912780878934200EBC6
:10A0800080003EBF584390FBF2F080B2DBE7052032
:10A09000DCE77F2070470120704700BF07C3002026
:10A0A000EABC002008C30020EBBC0020154B1B7845
:10A0B000D90705D5144B1878800800B3C0B2704793
:10A0C0009A0703D5104B18784008F6E75B0705D5CB
:10A0D0000D4B18787F28F0D97F2070470B4B1B78E9
:10A0E0005BB10B4A084912780878934236BF10FBDF
:10A0F00003F080B290FBF2F0ECE70120DEE70120F4
:10A10000704700BF07C30020ECBC002008C300203C
:10A11000EDBC0020F02808B505D1FFF78BFF4042C9
:10A120002F4B987008BDF12802D1FFF783FFF7E7A6
:10A13000F22805D1FFF77EFF4042294B5870F1E726
:10A14000F32802D1FFF776FFF7E7F92804D1FFF7EC
:10A15000ADFF234BD870E5E7FA2803D1FFF7A6FF40
:10A160004042F6E7FB2805D1FFF7A0FF40421C4B19
:10A170001871D7E7FC2802D1FFF798FFF7E7F4281A
:10A1800004D1174A137843F0010313E0F52804D1F2
:10A19000134A137843F002030CE0F62804D1104A66
:10A1A000137843F0040305E0F72805D10C4A13782F
:10A1B00043F008031370B5E7F82804D1084A137870
:10A1C00043F01003F6E7FD2801D1064ADAE7FE283E
:10A1D00001D1044ADDE7FF28A4D1024AE0E700BF2D
:10A1E00002C3002007C30020F028404B14D193F98C
:10A1F0000220002A01DA00229A7093F9012052B954
:10A2000093F902203AB993F9032022B993F9043063
:10A210000BB9374A13707047F12804D193F9022023
:10A22000002AE8DCE9E7F22893F9012004D1002AAA
:10A23000E3DA00225A70E0E7F32802D1002AF8DCC2
:10A24000DBE7F92806D193F90320002AD5DD0022A7
:10A25000DA70D2E7FA2804D193F90320002ACCDA85
:10A26000F5E7FB2806D193F90420002AC5DA00227D
:10A270001A71C2E7FC2804D193F90420002AF6DC05
:10A28000BBE7F42804D11A7822F001021A70B4E76F
:10A29000F52803D11A7822F00202F7E7F62803D155
:10A2A0001A7822F00402F1E7F72803D11A7822F095
:10A2B0000802EBE7F82803D11A7822F01002E5E74C
:10A2C000FD2805D10B490A7822F001020A7094E7B3
:10A2D000FE2804D107490A7822F00202F6E7FF2897
:10A2E0008BD104490A7822F00402EFE702C3002070
:10A2F00008C3002007C3002038B5424B1B781B075A
:10A3000077D5414C41492088414D000440F003007D
:10A3100004F0E2FC20882A783E49000440F0030063
:10A3200004F0DEFC20883C49000440F0030004F007
:10A33000D3FC208895F901203849000440F003003F
:10A3400004F0CEFC20883649000440F0030004F0FD
:10A35000C3FC208895F902203049000440F0030036
:10A3600004F0BEFC20882E49000440F0030004F0F5
:10A37000B3FC208895F903202849000440F003002D
:10A3800004F0AEFC20882649000440F0030004F0ED
:10A39000A3FC208895F904202049000440F0030024
:10A3A00004F09EFC20881F49000440F0030004F0E4
:10A3B00093FC20881C4B1D491A78000440F00300D0
:10A3C00004F08EFC20881A49000440F0030004F0D9
:10A3D00083FC2088174B15491A78000440F00300CD
:10A3E00004F07EFC20881449000440F0030004F0CF
:10A3F00073FC0748FEF704FAFFF79CFC0F4B18802C
:10A4000038BD00BF97C2002048C100206AE40300A5
:10A4100002C30020CBE103008DE40300F4EA030053
:10A42000E8F803008FE4030008C3002092E403006F
:10A4300027DB030007C3002050E7030000C3002010
:10A44000F8B5394B1888FFF781FC38490A78A2B172
:10A45000374B1B7898420FDB364C94F9013094F956
:10A46000027094F9036094F9045063B9002F58D135
:10A47000002E56D1002D54D1F8BD2F4B1B7803EB85
:10A4800083035B00E6E7FF2A01D001320A70002B4C
:10A4900002DDFFF7CFFD607094F90130002B03DA85
:10A4A000FFF7C8FD40426070002F02DDFFF7C2FDDC
:10A4B000A07094F90230002B03DAFFF7BBFD404295
:10A4C000A07094F9012072B194F9021059B1B5232A
:10A4D0005A43121203FB01F308BF01221B1208BFEB
:10A4E00001236270A370002E02DDFFF7DFFDE07034
:10A4F00094F90330002B03DAFFF7D8FD4042E070F7
:10A50000002D02DDFFF7D2FD207194F90430002BFD
:10A5100003DAFFF7CBFD40422071BDE8F840FFF7BA
:10A52000EBBEFF2AB1D1BFE700C3002008C3002063
:10A53000E9BC002002C30020E8BC0020044A00233C
:10A5400013601371034A1370034A1370704700BFFE
:10A5500002C3002008C3002007C30020034B0449A6
:10A560001888000440F0030004F0B6BB48C1002086
:10A5700006E803000138052861D8DFE800F003157C
:10A58000243342512E4B1A781144FE29C4BFFF22B6
:10A590001A702C4AD8BF197010882B491A780004F9
:10A5A00040F0030004F09CBB284B1A781144FE29AC
:10A5B000C4BFFF221A70234AD8BF197010882449DB
:10A5C0001A780004ECE7234B1A781144FE29C4BF23
:10A5D000FF221A701B4AD8BF197010881E491A78BA
:10A5E0000004DDE71D4B1A781144FE29C4BFFF2289
:10A5F0001A70144AD8BF1970108819491A780004C3
:10A60000CEE7184B1A781144FE29C4BFFF221A70F6
:10A610000C4AD8BF1970108813491A780004BFE794
:10A62000124B1A781144FE29C4BFFF221A70054A42
:10A63000D8BF197010880E491A780004B0E7704727
:10A64000E8BC002048C100201FEA0300E9BC00204C
:10A650002EEA0300EABC002040EA0300EBBC002025
:10A6600053EA0300ECBC002068EA0300EDBC0020C4
:10A6700081EA03000138052861D8DFE800F00315FE
:10A68000243342512E4B1A788A4296BF0022511A27
:10A690001A702C4A88BF197010882B491A78000448
:10A6A00040F0030004F01CBB284B1A788A4296BF86
:10A6B0000022511A1A70234A88BF19701088244941
:10A6C0001A780004ECE7234B1A788A4296BF0022DE
:10A6D000511A1A701B4A88BF197010881E491A78BF
:10A6E0000004DDE71D4B1A788A4296BF0022511AFA
:10A6F0001A70144A88BF1970108819491A78000412
:10A70000CEE7184B1A788A4296BF0022511A1A7067
:10A710000C4A88BF1970108813491A780004BFE7E3
:10A72000124B1A788A4296BF0022511A1A70054AB3
:10A7300088BF197010880E491A780004B0E7704776
:10A74000E8BC002048C100201FEA0300E9BC00204B
:10A750002EEA0300EABC002040EA0300EBBC002024
:10A7600053EA0300ECBC002068EA0300EDBC0020C3
:10A7700081EA030010B5094B094904461888000412
:10A78000224640F0030004F0ABFA0120A040FFF79E
:10A790002AF8BDE81040FEF7A7BC00BF48C1002062
:10A7A0009CEA030010B5094C09492088000440F0D8
:10A7B000030004F091FA20880649000401230522D1
:10A7C00040F00300BDE8104004F094BA48C10020F6
:10A7D000D6E80300D1E90300262838B54BD81E2857
:10A7E00080F021810E28914C00F0B18010D807280C
:10A7F00000F08B800B286DD0062872D08B4B8C49D3
:10A800001888000440F0030004F066FA00207BE0A2
:10A81000162800F0D88013D81028EFD1854D208855
:10A820002B78C3F3C00282F0010262F3C3032B70E2
:10A8300000041B0740F0030040F19C807E4914E0B7
:10A84000192800F099801B28D8D17A4D20882B78C0
:10A85000C3F3400282F0010262F34103000499074E
:10A860002B7040F0030070D5744904F035FA2B7852
:10A8700043F0010367E038282CD009D8292803D0F9
:10A88000352801D02728B9D10020FFF773FF1FE03A
:10A890004328F9D004D83A28B0D33938C0B2F4E705
:10A8A0004828ABD1FEF720FC604B65491888654D00
:10A8B000000440F0030004F00FFA4FF47A7445F0FE
:10A8C00001054FF47A40A847013CFAD1FBF728FF75
:10A8D000012019E0554B5C491888000440F0030042
:10A8E00024E0544A137803F0F1036FF3000313706C
:10A8F000FFF734FE20885549000440F0030004F0BF
:10A90000EBF9534B0120187038BD4A4D20882B7845
:10A91000C3F3000282F0010262F30003000413F0AB
:10A9200001042B7040F0030003D04A4904F0D4F92D
:10A93000CEE7494904F0D0F92B7864F3410364F37E
:10A94000820364F3C3032B70C2E74449EEE7394D39
:10A9500020882B78C3F3800282F0010262F3820325
:10A9600000045A072B7040F0030001D53C497CE7F6
:10A970003C49DBE73C49D9E720883C49000440F0EA
:10A98000030004F0A9F920883949000440F00300CD
:10A9900004F0A2F920883749000440F0030004F0D5
:10A9A0009BF920883449000440F0030004F094F936
:10A9B00020883249000440F0030004F08DF920881B
:10A9C0002F4900048AE720882E49000440F0030044
:10A9D00004F082F92588FDF7C7FE2D0445F0030534
:10A9E00002462949284604F07BF92088274B28494C
:10A9F0001A78000440F0030004F072F92088254B17
:10AA000025491A78000440F0030004F069F924880D
:10AA1000FFF796F9240444F0030402461F49204638
:10AA200004F05EF954E71D3838E700BF48C1002044
:10AA300004E8030097C200209EE6030064E60300DA
:10AA40002FE60300D0E803009FE403002BE6030099
:10AA500009C300204BE6030057E6030071E603003C
:10AA60007FE603008EE60300AAE60300B7E60300D4
:10AA7000C6E60300E0E6030018E7030053E703001F
:10AA80008FE703009BE70300A9E703003ABD00201E
:10AA9000C3E703007ECA0020DAE70300EDE7030006
:10AAA00000207047002070471E38C0B209289ABFA6
:10AAB000014B185C0020704795E40300F8B5AE4EDA
:10AAC0003478012C0546374615D004D3022C51D0DA
:10AAD000002030700EE0A94B1B681B78222B27D179
:10AAE000FFF7DEFF18B92846FFF776FE00E00120E9
:10AAF00000F00100F8BDA14B1B681B78222B05D18B
:10AB0000FFF7CEFF0028EED02046F1E7FFF7CAFF9F
:10AB100070BB142D1DD00DD80B2D0FD0102D1BD0B8
:10AB2000974B98491888000440F0030004F0D4F8CB
:10AB30000020DFE7292D0CD0382DF1D1FFF70EFDD5
:10AB40008F4B91491888000440F0030004F0C4F8CA
:10AB50000EE000203870CDE7FFF724FE884B8B49CC
:10AB60001888000440F0030004F0B6F802233370A4
:10AB70000120BFE72328824C16D81E2880F0D08001
:10AB80000B2819D006D8072800F0DD8020887D49E1
:10AB90000004D9E7132831D01428F7D17C4B1A7858
:10ABA0001AB300221A7009E04B2800F0CA8012D8AC
:10ABB0002928F3D03828E9D1FFF7F4FD744B208819
:10ABC0001A78000440F00300002A00F0D280714996
:10ABD00004F086F8CCE7512800F0AD80522800F050
:10ABE000A4804E28D2D10A21A6E02088664900041C
:10ABF00040F0030004F070F80120ABE720886649BC
:10AC0000000440F0030004F067F820886349000462
:10AC100040F0030004F060F82088614B61491A7825
:10AC2000000440F0030004F05BF820885E49000453
:10AC300040F0030004F050F820885C49000440F024
:10AC4000030004F049F82088594B56491A7800044B
:10AC500040F0030004F044F820885349000440F019
:10AC6000030004F039F820885249000440F0030042
:10AC700004F032F82088504B4A491A78000440F01A
:10AC8000030004F02DF820884749000440F0030039
:10AC900004F022F820884949000440F0030004F041
:10ACA0001BF82088464B3F491A78000440F0030007
:10ACB00004F016F820883C49000440F0030004F03A
:10ACC0000BF820883F49000440F0030004F004F82A
:10ACD00020883D4B33491A78000440F0030003F00C
:10ACE000FFFF20883049000440F0030003F0F4FF28
:10ACF00020883649000440F0030003F0EDFF20886F
:10AD0000334B28491A78000440F0030003F0E8FFB1
:10AD100020882549000440F0030003F0DDFF4DE7E3
:10AD2000FFF7C2FE1A4B187048E70121184B18783C
:10AD3000FFF720FC42E70121154B1878FFF79AFC3A
:10AD40003CE70A21F2E7164B208822491E221A709E
:10AD5000174B32221A70184B0A221A70184B142201
:10AD60001A70194B08221A70194B28221A70000405
:10AD7000D1E71949EAE600BF09C30020A4BC0020BE
:10AD800048C1002004E803002BE603002DE803007F
:10AD90000AC30020BCE8030031E803003FE80300D9
:10ADA000E8BC002092E403003AF4030051E80300F9
:10ADB000E9BC002063E80300EABC002072E803005D
:10ADC000EBBC002083E80300ECBC002098E8030003
:10ADD000EDBC0020AFE80300C2E80300027903687D
:10ADE00082B033F81230ADF804309DF80430002002
:10ADF00063F307009DF8053063F30F2002B070473E
:10AE0000002973B5C0F3072014BF042100214608B0
:10AE1000094D0C2496FBF4F2114404FB1264012248
:10AE200035F91130A24012B2C0074CBF134393430F
:10AE300025F8113002B070BD0CC3002008B5FBF737
:10AE40001DFD08BD014B33F8100070470CC30020F6
:10AE50007047000030B500220C4C0D4D104654F8E0
:10AE600022101F298ABF2B464FF0A04301F01F017B
:10AE7000D3F81035CB40DB4303F00103934001329C
:10AE800018430C2A80B2EAD130BD00BFA4EA030007
:10AE90000003005030B50A4C0A4D0022012054F83E
:10AEA00022301F2B86BF03F01F0329464FF0A0411D
:10AEB000013200FA03F3042AC1F80835EFD130BD9E
:10AEC000D4EA03000003005038B54FF0A042174CFD
:10AED000174D40F20363C4F82C37C2F87037C4F83A
:10AEE0003437C2F80837FFF7D5FF00220C2055F899
:10AEF00022301F2B86BF03F01F0321464FF0A041D5
:10AF000003F5E07301320C2A41F82300EFD109491F
:10AF1000094A00230B8013804B8053808B809380E1
:10AF2000CB80D380FBF788FC38BD00BF0003005006
:10AF3000A4EA03000CC3002014C30020074B53F8FD
:10AF400020301F2B86BF03F01F0305494FF0A0419F
:10AF5000012202FA03F3C1F80C357047D4EA03006A
:10AF60000003005010B5FFF7E9FFFFF773FF044639
:10AF7000FFF790FF204610BD2DE9F0415C4D5D4F7D
:10AF800086B0002405942E46E0B2FFF7EBFF35F8BB
:10AF9000143083421CBF25F81400012304F101047E
:10AFA00018BF3B70042CEFD1524A137833B3013BE6
:10AFB000DBB2137013BB504FDFF850C1BE4637F8F9
:10AFC000130036F8132090424FEA43050FD00021BA
:10AFD00080EA020444FA01F0C00705D505980598F7
:10AFE000059805980130059001310C29F2D1013303
:10AFF000042B2EF8052025F80C20E0D13F49404CC9
:10B000000B7894F806800133DBB2FF2B08BF0023D6
:10B010000B70B8F1000F29D02046FFF7DFFEC6B253
:10B02000384DAB7923B32846FFF7D8FEC7B2354871
:10B030000978FFF7D3FEFF2FADF810000FD0324B89
:10B040001A783C2393FBF2F39DF81020891AC9B2B9
:10B050008B4211DBB8F1000F0CD1BE4202D8284D53
:10B06000A3794BBB012006B0BDE8F081FF26D7E7EE
:10B07000FF27DCE7BE42F2D9DFF8888018E04046BF
:10B08000FFF7ACFEADF80400C0B2B842E5D1002134
:10B090000198FFF7B5FEAA7952B12B79E87901330F
:10B0A000DBB2013AB3FBF0F100FB11332B71AA7153
:10B0B000AB79002BE3D1D0E72846FFF78FFEADF840
:10B0C0000400C0B2B042CDD101210198FFF798FE33
:10B0D000A279002AC4D02379E0790133DBB2013AA6
:10B0E000B3FBF0F100FB11332371A271B8E700BF8D
:10B0F00014C30020EEBC00201CC3002024C3002089
:10B10000F8BC0020F0BC0020FEF303000CC30020BC
:10B1100010B50448FFF730FF0446FBF785FE2046D4
:10B1200010BD00BF0CC3002033DF704708B503F02B
:10B1300071FC18B9BDE8084006F0BAB808BD704700
:10B1400010B54FF40041002003F0FEFB08B103F0FE
:10B1500043FF084C03F034FB0321204603F0EEFDCF
:10B160000123637206F08EF818B1BDE8104003F0B9
:10B1700033BF10BD00BD0020F8B50C680D46082C8B
:10B1800006464FF6FF7028BF082409F083FE00230F
:10B190002B604FF6FF77B84202D014F1FF3400D293
:10B1A000F8BD2B685A1C2A6026F8130009F072FEBD
:10B1B000F1E7000008B5084B08491888000440F082
:10B1C000030003F089FD09F0BDFE18B1BDE8084099
:10B1D00003F002BF08BD00BF48C10020F7EA03002A
:10B1E00010B5044601F0C2FB204609F0A1FE08B1EB
:10B1F00003F0F2FE054B064918880004224640F091
:10B200000300BDE8104003F06BBD00BF48C1002043
:10B21000E4EA030030B44FF08043D3F83824D10778
:10B2200001D5920730D5D3F8383403F00303032B4C
:10B230002AD0164C164D0022012054F822301F2B24
:10B2400086BF03F01F0329464FF0A041013200FAE8
:10B2500003F3042AC1F80C35EFD10E4C0C4D0E4807
:10B26000002254F822301F2B86BF03F01F0329460B
:10B270004FF0A04103F5E07301320C2A41F823009E
:10B28000EFD130BCFFF750BF30BC7047D4EA0300A9
:10B2900000030050A4EA03000C00030010B5074BA4
:10B2A0000749044618882278000440F0030003F0A0
:10B2B00017FD2378034A0133136010BD48C10020F5
:10B2C0002CEB030028C3002030B50A4B0A4D0FCBEE
:10B2D00085B06C4684E80F0021460023074A2846C3
:10B2E00006F014FF0446284606F098FF204605B0F5
:10B2F00030BD00BF08EB030024EB03009DB2020049
:10B3000073B5154D00232B60009313460A46014682
:10B31000124807F0D1F8D0B1286810F1FF3018BFFB
:10B32000012002B070BD013405F0C2FFB442F3D079
:10B330002B68002BF7D0B4F57A7FEDD1084B094983
:10B340001888000440F0030003F0C6FCE4E704465C
:10B3500040F2E936ECE700BF28C3002024EB0300ED
:10B3600048C1002018EB03007047000007B5064BEA
:10B37000064918680190002301A88DF8043006F0F2
:10B38000C9FC03B05DF804FB3AEB030069B30200AB
:10B390001FB50A4A52F8040F5168127A01AB03C371
:10B3A00001A900201A7006F0F9FC0121044806F0FA
:10B3B0004BFD06F09DFD05B05DF804FB3AEB030084
:10B3C0002CC30020084B18884FF4616310FB03F076
:10B3D000FF23B0FBF3F341F26800584340F6A61395
:10B3E000B0FBF3F080B270472CC300207047704769
:10B3F00007B5044B0093044A402303F07BF903B0E4
:10B400005DF804FB59B40200DDC4002010B50289C8
:10B4100043899A4210D2838802685C1C8480D1548C
:10B4200081884289B1FBF2F302FB13138380038905
:10B4300001330381012010BD0020FCE7032908B57A
:10B4400006D100F0CFFC0348BDE8084000F012BD73
:10B4500008BD00BFDCEC030070B50E4E33780D461E
:10B460004BB10D4E8C18A54212D015F8011B304679
:10B47000FFF7CCFFF7E7D4B2224608480FF06FF889
:10B480002246064906480DF0E1F808B90123337059
:10B4900070BD00BFDCC4002028BD0020DDC400203A
:10B4A0004CEC0300023808B50C282FD8DFE800F078
:10B4B000072E2E2E2E2E0F1E2A2E2E2E0B00BDE80E
:10B4C00008400DF065BBBDE808400DF015BB0EF05F
:10B4D00021FBD8B90DF00EFB0D4B0E491888000466
:10B4E00040F00300BDE8084003F0F6BB084B0A49F2
:10B4F0001888000440F0030003F0EEFBBDE80840AC
:10B500000DF03CBBBDE808400DF0F8BA08BD00BF27
:10B5100048C10020D3ED0300DEED030070470A466A
:10B5200001460020FFF798BF70B5002390B0048952
:10B53000D9B29CB1C18805684A1C92B2C2806E5CC7
:10B5400045890DF80360B2FBF5F1013305FB1122CB
:10B55000013C402BC2800481E9D119466846FFF7BF
:10B56000DEFF10B070BD00002DE9F0410546032953
:10B5700006D8DFE801F012071F021F4B00221A70E5
:10B58000BDE8F0811C4B1D4800221A700389002B76
:10B59000F6D0BDE8F041FFF7C7BF0DF075F8184FC2
:10B5A000DFF8648006460024B4420AD128460DF034
:10B5B0006EF868B9012212491248BDE8F0410DF059
:10B5C00069B8E3B24046F95CFFF720FF0134EBE7CE
:10B5D000402828BF40200246044609490948084F30
:10B5E000094E0DF057F80025795D30460135FFF71B
:10B5F0000DFFAC42F8D1DDE7DCC4002028BD0020FF
:10B600009CC400204CEC03001CBD0020014B188999
:10B61000704700BF1CBD002007B502AB012103F835
:10B62000010D1846FFF77BFF03B05DF804FB000037
:10B6300030B50A4B1A8972B1D8881C685D89411CE3
:10B6400089B2D980205CB1FBF5F4013A05FB1411F5
:10B65000D9801A8130BD1046FCE700BF1CBD002018
:10B6600008B505F0B9FE08B103F0B6FC16480DF0B8
:10B67000B1F908B103F0B0FC14480DF0A3FA08B119
:10B6800003F0AAFC11480DF00FFB08B103F0A4FC75
:10B690000F480DF097FA08B103F09EFC0D480DF02D
:10B6A00091FA08B103F098FC0B480DF08BFA08B141
:10B6B00003F092FC09480DF085FA08B103F08CFC08
:10B6C00000F096FC002008BDB8ED0300DCEC0300A0
:10B6D00010ED0300A4EC03006CEC03004CEC030041
:10B6E00010B50DF0F1F9044608B103F075FC2046E1
:10B6F00010BD08B50DF0F0FC0028FBD1BDE80840F6
:10B7000000F094BC10B50146054800F071FB0446FA
:10B710000EF03AFA08B10DF045FAE0B210BD00BFE4
:10B72000DCEC03000146052201480CF001BA00BF21
:10B7300010ED030037B502230446ADF8050001A95A
:10B74000032209488DF804300CF0F2F9074B084940
:10B75000054618880004224640F0030003F0C0FAB2
:10B76000284603B030BD00BFA4EC030048C1002050
:10B77000C4ED030007B50322ADF8050001A9044894
:10B780008DF804200CF0D4F903B05DF804FB00BF81
:10B79000A4EC030010B50B46044658B90A68096AC0
:10B7A0000968497882F8241018469A6A022190475D
:10B7B000204610BD0320FCE7F0B5BB4D0C7A2C7081
:10B7C0000468B4F5F07F00F062815FD840F2D716CC
:10B7D000B44200F01E81B4F5EC7F26D2B4F5E87FC8
:10B7E00000F0ED800BD8002C00F0CA8040F2CF169C
:10B7F000B44200F0D880002303601846D2E0B4F5CC
:10B80000EA7F00F0F980B4F5EB7FF4D100240AB1AF
:10B8100006791655A54E36680134767806719C4235
:10B82000C0F0F88040F2D713BAE0B4F5ED7F00F035
:10B83000098114D8B4F5EC7F00F0F78040F2D916F6
:10B84000B442D8D100240AB10679165501344E7E8F
:10B8500006719C42C0F0F7804FF4ED73A0E0B4F5A0
:10B86000EF7F00F0FC8000F2068140F2DB16B4426C
:10B87000C1D100240AB106791655013409269C422B
:10B880000671C0F0ED804FF4EF7389E040F2F916D5
:10B89000B44200F07181B4F5FD7F3CD240F2E31672
:10B8A000B44200F01881B4F5F27F14D240F2E116F0
:10B8B000B44200F00381B4F5F17F9CD100240AB1B9
:10B8C0000679165501344E6906719C42C0F0048118
:10B8D00040F2E31364E040F2EF16B44200F02D8131
:10B8E000B4F5F87F00F03781B4F5F67F83D10024FA
:10B8F0000AB1067916556E4E37780E6956F82760EC
:10B900006C4F36683E8001349C420671C0F016814F
:10B9100040F2EF1344E040F2FF16B44200F05281CF
:10B92000B4F5007F14D2B4F5FD7F00F03181B4F599
:10B93000FF7F7FF460AF00240AB106791655013409
:10B9400003269C420671C0F03E8140F2FF1327E0BF
:10B9500040F20126B44200F04D81B4F5007F40F280
:10B960003D8140F20226B4427FF445AF00240AB183
:10B97000067916554E4F3E78013601343E70C6E0CA
:10B980004D4E34704C4E37782E78B74202D340F289
:10B99000062305E00926A342067105D840F2CF131D
:10B9A00003600120F0BD00240AB106791655013468
:10B9B00004269C42067103D34FF4E873F0E7002499
:10B9C0000AB1067916553C4E0F7A3678DFF8DCC09E
:10B9D000B74204F1010440F21A8101F1090706EBB4
:10B9E000460607EB060E9C42BE5DCCF800E00671F1
:10B9F00003D34FF4EA73D3E700240AB1067916554E
:10BA0000013400269C420671FFF401AF4FF4EB7342
:10BA1000C6E700240AB106791655013403269C4274
:10BA2000067103D34FF4EC73BAE700240AB1067928
:10BA3000165501340E7E06719C42FFF404AF40F2AD
:10BA4000D913ADE700240AB1067916550134002652
:10BA50009C420671FFF40EAF40F2DB13A0E7002416
:10BA60000AB106791655013421269C42067103D38A
:10BA700040F2DF1394E700240AB106791655013429
:10BA800011269C42067103D34FF4F07388E700241B
:10BA90000AB106791655013401269C4206710ED36F
:10BAA00040F2E1137CE700BF6BC9002070C90020A1
:10BAB0006CC900205EC900206AC9002000240AB1B8
:10BAC00006791655013400269C420671FFF4F7AE44
:10BAD0004FF4F17364E700240AB1067916554F4E0E
:10BAE0004F6937704E4E0027013437704C4EDFF8E7
:10BAF0002CC137789CF800C0BC4513D8494F3F682B
:10BB000097F801C0484F87F800C000273770444EAF
:10BB10003778454E3678B74227D3444F3E780136C2
:10BB20003E702FE70E6956F82760A34236790671FA
:10BB30003FF6DEAE4FF4F67332E700240AB1067921
:10BB400016553B4E36880134360A9C42067103D3A3
:10BB50004FF4F87324E700240AB106791655304FE4
:10BB60003E78013601343E70C0E707269C420671DC
:10BB700003D340F2F91313E700240AB106791655EE
:10BB8000013405269C42067103D34FF4FD7307E789
:10BB900000240AB106791655224E244F36683F78A4
:10BBA00096F801C0BC4504F1010435D996F802C0ED
:10BBB0003E449C4216F80C600671FFF4BDAE4FF493
:10BBC000FF73EDE600240AB10679165501344026CC
:10BBD0009C42067103D34FF40073E1E600240AB1DE
:10BBE00006791655013400269C42067103D340F2B3
:10BBF0000123D5E600240AB1067916550134012641
:10BC00009C420671FFF4B3AE40F20223C8E6002363
:10BC1000CCF800301B78FFDE0023FBE75DC9002075
:10BC20006CC9002070C9002068C900206AC90020C2
:10BC30005EC9002030B5036A1A680024147087B00A
:10BC40001A685B68054606A80132013B00F8154DED
:10BC5000CDE90434039203F06FFC204603A90DF0F4
:10BC60009BF8044630B9074B01A9CDE9013501F035
:10BC700093FB04469DF8030003F082FC204607B0C6
:10BC800030BD00BF95B702000A79012A0B4607D1E3
:10BC9000C169D1E90012581C013A013101F08EBB93
:10BCA000022A01D1016AF4E70620704710B4044665
:10BCB0000B4654F8102B214608325DF8044B0BF06C
:10BCC000D9BA2DE9FF47037A06680446002B4AD00B
:10BCD000837A00F10902002B47D0C37A08366FF04F
:10BCE0000801304604F1100912F8038004F0FEFC4C
:10BCF000484625680BF0D9FB074605F11C000825CE
:10BD000038607D60236803F1140A2A4651460EF01C
:10BD100017FC30B37A68386851460EF020FC48466C
:10BD200024680BF0C2FB1C34C0E9004504A80023C2
:10BD300000F80D3DCDE90145039303F0FDFB01A99A
:10BD400040460DF029F8044618B92946304604F05B
:10BD5000B7FC9DF8030003F013FC204604B0BDE8D7
:10BD6000F0870446F9E75B78FFDE1B78FCE7FFF716
:10BD7000A8BF0000F0B504689DF814603CB1B4F5AC
:10BD8000067F4FF0000420D0046020461CE00D69BF
:10BD900055F826502F68114D2F60114D2C60104D15
:10BDA0000E4F2D683F68BD4202D940F21B2309E0C7
:10BDB0000F6957F82670BF68A3427D5D057104D8EE
:10BDC0004FF4067303600120F0BD0AB105791555E3
:10BDD000034F3D68013501343D60E0E7F8C90020BC
:10BDE00064C90020014B00221A70704769C9002005
:10BDF0002DE9F041064650F8105B1A4C0F460BF047
:10BE000054FB05F11C030360237808224260A0461E
:10BE1000A3B1154C15482378591C217000EBC300C1
:10BE200039460EF09CFB2378114A03F00F03237070
:10BE30001378013313700120BDE8F081394605F114
:10BE400014000EF08CFB3046FFF73BFFC0B228B960
:10BE5000AB681B0702D501232370EDE7002388F8A8
:10BE60000030E9E769C90020FCC9002074C900203E
:10BE700060C9002073B50E4D2B780646ABB10D4C52
:10BE80000D4923785A1C01EBC30122706846082231
:10BE90000EF065FB237803F00F0323702B786946BF
:10BEA000013B30462B70FFF7A3FF002002B070BDAE
:10BEB00060C90020F4C9002074C90020BFF34F8F6F
:10BEC0000549064BCA6802F4E0621343CB60BFF336
:10BED0004F8F00BFFDE700BF00ED00E00400FA0552
:10BEE00008B5FAF71DFC002008BD07B54368012B13
:10BEF00011DD04230DEB0302012100F013FB9DF87B
:10BF000004003038C0B2092801D8FFF769F90020D1
:10BF100003B05DF804FBFFF74DF9F8E707B5436898
:10BF2000012B11DD04230DEB0302012100F0FAFACD
:10BF30009DF804003038C0B2092801D801F01CF87F
:10BF4000002003B05DF804FB00F0CEFFF8E710B569
:10BF500004460EF085FBC1B22046BDE81040FFF755
:10BF6000DEBA000070B50A4D0A4E00246059FFF792
:10BF7000EEFF0920FFF750FB2B190C349868FFF7F0
:10BF8000E6FF3046FFF7E3FF482CEFD1002070BDFD
:10BF9000A4EE030039F40300F0B587B002AD10221F
:10BFA0004FF6FF7128460EF0FEFA06A9082341F865
:10BFB000143D2846FFF7E0F80B4E0C4F0024019B80
:10BFC0009C4202D3002007B0F0BD3046FFF7BFFF10
:10BFD00015F814003030C0B2FFF71EFB3846FFF7EB
:10BFE000B6FF0134EBE700BFECEE030039F40300C9
:10BFF00013B500240094074B074A0849084800F08D
:10C000007FF8084908482346062202B0BDE81040E0
:10C0100000F000BA31B602000DB6020019B60200F7
:10C0200020CA0020A4EE03003CCA0020F7B5124C41
:10C03000237823B93E20FFF7EFFA012323700F4E38
:10C040000F4D32680F4805F12007BB1A294600F052
:10C0500065F8B84230600CD101AA29460A4800F0C0
:10C06000DEF92022002128460EF09DFA00233560DB
:10C07000237003B0F0BD00BF48CA002034BD0020CB
:10C08000FDC9002020CA00203CCA002070B58D18D0
:10C0900006462C46601B14F8013B03B970BD32689C
:10C0A00018469047F6E710B5044603680D209847F8
:10C0B00023680A20BDE81040184770B505460E46B3
:10C0C0000024B44200DB70BD2B681B2098472B680E
:10C0D0005B2098472B68442098470134F1E770B5FE
:10C0E00005460E4600242B681B2098472B685B20D2
:10C0F000984701342B6843209847B442F3D170BD70
:10C10000F8B504461D460F46164600F029F9069B71
:10C110006561C4E90376A361F8BD00002DE9F74F1E
:10C12000DFF838828C4E009204460F469946154639
:10C1300023699847002858D063699847014682468A
:10C14000204600F017F9A269834602B19047BBF17F
:10C150000A0F00F0D68059D8BBF1060F00F0B88066
:10C1600049D8BBF1020F5DD0BBF1030F00F0C980CD
:10C17000BBF1010FDCD13368D8F80020D21A511C72
:10C180001A440B443A4401333B441046A2EB000CE2
:10C19000614500F39880A34650465BF80C2F90470A
:10C1A000D8F80010326885F800A0013101326B1C0C
:10C1B000C8F800105846394632600193FFF766FF11
:10C1C00001465846FFF779FFD8F8001009F1FF3211
:10C1D0008A420EDC5846FFF766FF5F4A0023136071
:10C1E0005E4A1360009B4B441D46284603B0BDE8E1
:10C1F000F08F019D9CE7BBF1080F48D079D83168DA
:10C20000002995DD00236D1A336048E0BBF1100F63
:10C210005ED034D8BBF10C0F00F08F8049D3BBF156
:10C220000E0F85D13168002982DDD8F8003001F188
:10C23000FF3CA3EB010E0CF1FF3239443A440846AF
:10C24000A0EB010AD64557DA04F10C0A013B0121A3
:10C250005046C6F800C0C8F80030FFF72EFF32681D
:10C26000013D39465046FFF711FFE3680190202059
:10C270009847019950460131FFF71FFF58E7BBF17E
:10C28000300F5AD00ED8BBF12F0F7FF451AF336867
:10C29000002B7FF74DAF013B013D3360012104F1DD
:10C2A0000C00E9E7BBF1310FA9D0BBF1320F7FF4ED
:10C2B0003FAF3168D8F800309942BFF639AF591A0C
:10C2C0000D44336043E010F801C903F801CD5DE788
:10C2D00004F10C007FE703F8011BDA1B9145FADC3F
:10C2E000E3685E20984754F80C3F43209847204667
:10C2F00071E73B460021F0E710F801AB02F801AF0F
:10C300009EE7D8F80030002B7FF712AF3268511C3F
:10C310003944501EA3EB020A38448C46ACEB010EA4
:10C32000F24505DA013BC8F8003004F10C0A98E741
:10C330001CF801EB00F801EFF0E73368D8F80020B3
:10C340009342BFF6F5AE013301353360012104F1AC
:10C350000C00FFF7C4FEEBE650CA00204CCA0020D8
:10C36000C31C00F10B01002203F8012F8B42FBD10B
:10C37000026070472DE9F0430368254F5D1C0344BC
:10C3800005601971031D002403EB050EE25907EB4C
:10C39000040C1646A6EB020816F8019BB9F1000F33
:10C3A000F8D145451E462CD176450BD1002240F8E8
:10C3B000032B073300F8012F9842FBD19CF80400AF
:10C3C000BDE8F08312F8019B16F8018BC145EBD054
:10C3D0000834B4F5027FD9D1002240F8032B07338B
:10C3E00000F8012F8342FBD1A1F120005E288CBF11
:10C3F00000200120E4E712F8018B16F801CBE0459C
:10C40000E6D1A6EB030C6545F5DC0020D8E700BFBC
:10C41000F4EE0300C0E900128360002070472DE9AC
:10C42000F041B6B0074600240AA89046019400F0F7
:10C4300029F801A90AA800F067F8019BFBB13E6842
:10C440007B68A34202DC6FF0010511E0202302AA01
:10C4500000210AA800F066F8316802A800F07FF811
:10C46000054648B97368B9680AA89847C8F8000033
:10C47000284636B0BDE8F0810C360134E0E74FF0D5
:10C48000FF35F5E700F10802F0B50139144611F85F
:10C49000013FA3B91B4F23704360416810292FDC73
:10C4A0001446254615F8013BA3F10902D2B2172A1A
:10C4B00008D827FA02F2D30705D52C46F1E704F88D
:10C4C000013BE4E7BBB100EBC1062346B462A3EB3A
:10C4D000040C1A4613F8015BA5F1090EBEF1010F19
:10C4E00004D90D2D02D015F0DF0FF0D10131C6F8BF
:10C4F0002CC04160D1E749F2C07202601846F0BD1D
:10C500000320FCE713008000026849F2C0739A42DE
:10C5100004BF42680A604FF000031ABF01200B609D
:10C520001846704730B50024147045688D4214DDFC
:10C5300000EBC100013B856AC16AA14202DC002018
:10C54000107004E0A34203DC00231370042030BD0C
:10C55000295D02F8011B0134EEE70220F7E7421ED5
:10C56000013912F8013F11F8010F0BB910B97047EA
:10C570008342F6D0984294BF01204FF0FF307047BD
:10C5800074DF704776DF704778DF70477ADF704777
:10C590007CDF70478FDF7047704700000B78052BFA
:10C5A00002D0062B04D07047034B01221A7070474B
:10C5B000014B0022FAE700BFB4CB002002F00CBD13
:10C5C00008B5FEF7E5FEFEF7FDFE6421A0F5166056
:10C5D00041434FF4E16091FBF0F1C9B2642928BFF7
:10C5E00064214FF6FE72094809F03DFA132807D876
:10C5F000074BC340DB0707D4BDE8084002F0ECBCA2
:10C6000043F201439842F7D108BD00BF44CB00205C
:10C6100001810A0010B504468CB0808806F0E4FE63
:10C620000128238809D0262B05D1212B13D8102BC4
:10C630001AD0112B44D00CB010BD212BF6D10CA96F
:10C64000002321F82C3DA088FFF7A4FF0028F2D09A
:10C6500002F0C2FCEFE73B2B01D0562BEBD11321AC
:10C66000A088FFF78FFFF1E71C4BA1881C481980B9
:10C6700007F0F6FD08B102F0AFFC2C22002101A862
:10C680000DF091FF012300228DF805308DF8063062
:10C690008DF80720CDE903228DF80830282140F6D7
:10C6A000B8328DF809304FF4486044F25063CDE958
:10C6B0000512CDE9070301A90A4806F0E1FDBAE732
:10C6C000094B0A491888000440F0030002F004FBFB
:10C6D000024B4FF6FF721A80ADE700BF40BD00204D
:10C6E000B8CB00208CCA002048C10020A4F203006F
:10C6F00000B5B3B008280ED8DFE800F02905101502
:10C700001A1F242C46002A4B2A491888000440F09E
:10C71000030002F0E1FA33B05DF804FB244B264934
:10C7200018880004F3E7224B244918880004EEE738
:10C730001F4B234918880004E9E71D4B214918883D
:10C740000004E4E71A4B204918880004DFE7FEF7ED
:10C7500061FDE0E732AB0822029243F8BC2D02A94A
:10C7600012AA04A808F074FB08B102F035FC039B80
:10C770000093029A154812AB04A906F06EFD00283A
:10C78000C9D002F029FCC6E7114B18884FF6FF7399
:10C790009842C0D012A908F0BFFB0528BBD008B151
:10C7A00002F01AFC0DF15901084806F047FDE6E7D2
:10C7B00048C10020F8F2030002F3030018F303005D
:10C7C0002AF303003CF303005DF303008CCA00204E
:10C7D000B6CB00201FB50E4BADF80E101B884FF6E0
:10C7E000FF72934210D0009301460DF10E03022216
:10C7F00008480AF094F938B1074B08491888000432
:10C8000040F0010002F068FA05B05DF804FB00BFDB
:10C8100040BD002044BD002048C10020B1F203000B
:10C8200002F0DABB02F0D8BB02F0D6BB10B5154C53
:10C83000154810224FF6FF710DF0B5FE0823214672
:10C8400011482360FEF798FC21680F4808F0F6FABB
:10C8500008B102F0C1FB21680B4808F011FB062863
:10C8600002D008B102F0B8FB002004F0ABFA40B9E6
:10C870000321064806F07FFB18B1BDE8104002F026
:10C88000ABBB10BDC4CB0020C8CB00208CCA00209D
:10C8900037B50378023B04460B2B13D8DFE803F0CF
:10C8A000061214121C56275412562456284BA288DE
:10C8B00018882849000440F0030002F011FA264BC2
:10C8C000A2881A8003B030BD02A9002301F8043DFC
:10C8D000408808F0AFFAF5E703F006FD30F00803F2
:10C8E000F0D002F079FBEDE7FFF7A0FFEAE7037C69
:10C8F000DB07E7D5037A072BE4D1154D17492888C4
:10C90000174C000440F0030002F0E6F92888226882
:10C91000144900040823013240F0030002F0EAF950
:10C920002368072BCED8104D0B4A591C1288216062
:10C93000284625F8132008F0A3FA2168284608F0B5
:10C940007DFA0028BED0CCE70069FAE78068F8E7F6
:10C9500048C100207EF30300B6CB002096F303000D
:10C96000C4CB0020CAF30300C8CB002008B50B4B92
:10C9700093F85400FFF704FE094B18884FF6FF7335
:10C98000984209D01321FFF7FDFD30F0080303D0D2
:10C99000BDE8084002F020BB08BD00BF8CCA0020E3
:10C9A00040BD002010B5044602F030FD08B102F091
:10C9B00013FB094A0948012102F058FD08B102F0B1
:10C9C0000BFB22460121064802F050FD18B1BDE8DC
:10C9D000104002F001BB10BDC1C50200F0F203001F
:10C9E000F4F203001FB504AC11231A4804F80C3DFF
:10C9F0000DF036FE174982B22046FFF7C9FD08B197
:10CA000002F0EAFA4FF47070FFF7BEFD08B102F0D1
:10CA1000E3FA08220DEB020000210DF0C4FD0E4ADE
:10CA20000E4B02A8CDE90223FFF7B0FD08B102F0DA
:10CA3000D3FA0B490B4801F063FD08B102F0CCFAC0
:10CA400040F66711074801F073FD08B102F0C4FA1F
:10CA500004B010BDE6F203001800400003005000CF
:10CA600099C5020078CB00202DE9F041374C384EB3
:10CA700092B00822002120460DF095FD08220021E9
:10CA800030460DF090FD08234FF4817223806281BF
:10CA900040F20113022240F203116380228242F22B
:10CAA0002113618222834FF48271228440F20512A5
:10CAB00021250127A3804FF00508A381A38261836C
:10CAC000A3836284A38448224FF400730021684644
:10CAD0007380A571A4F80880A573A575A57784F85F
:10CAE000265037807571B5710DF05DFD194B0093BF
:10CAF000194B01930023E5228DF8183007938DF828
:10CB000036300E93154BADF82420154A0892CDE926
:10CB10000F33144A144B15488DF8087069468DF888
:10CB200009708DF80A8003948DF810700596ADF8A1
:10CB30002C500C92ADF83450119309F0EFFC08B171
:10CB400002F04AFA12B0BDE8F08100BF56CA0020D8
:10CB5000F8CB00209DC50200BDC5020021210021A7
:10CB6000BFF10300010100032100212144BD002089
:10CB700010B592B012AC234B44F8403D22482146F8
:10CB800007F05CFB08B102F027FA02238DF80030B1
:10CB900043F69253ADF8023048F64223ADF8043024
:10CBA0004022012300212046ADF806300DF0FBFCA9
:10CBB0002046164906F0E3FC21232046CDF840D05C
:10CBC000ADF8443009F016F808B102F005FA142265
:10CBD000002120460DF0E7FC0023029304930C4B48
:10CBE00005930122212321460A488DF80C208DF857
:10CBF000183008F05EFE08B102F0EEF9FFF734FFDE
:10CC000012B010BD29C80200B8CB0020F7F3030012
:10CC10006421210044CB002000B589B01C220021F2
:10CC200001A80DF0C0FC00234FF42032CDE9013201
:10CC30004FF470220392ADF8123003228DF81430B5
:10CC4000069301A8054B8DF81020079301F0D6FB41
:10CC500008B102F0C1F909B05DF804FB21C8020077
:10CC600008B500224FF48031044802F011FC18B1DD
:10CC7000BDE8084002F0B0B908BD00BF58CB0020A5
:10CC800013B50AF0A3F808B102F0A6F902AC00232C
:10CC900044F8043D0120214601F09CF908B102F05E
:10CCA0009BF9204601F05EFA08B102F095F902B056
:10CCB00010BD000007B508F069F808B102F08CF962
:10CCC0000522002168460DF06EFC9DF8003043F00F
:10CCD0000103032203F0F10362F306136FF3C7139A
:10CCE0008DF8003007238DF8013010238DF80230C5
:10CCF0009DF8033013438DF803309DF804306846E7
:10CD000013438DF8043008F08BF808B102F064F991
:10CD1000044808F06DF808B102F05EF903B05DF860
:10CD200004FB00BF91C8020000B5ADB0AC220021E9
:10CD300001A80DF038FC022306228DF804308DF88E
:10CD400007200123174A8DF806304FF44860ADF8EC
:10CD5000143006928DF87D3000228DF87E308DF8EB
:10CD600080308DF8813044F250632821CDE92503CD
:10CD70008DF87F200C4B2A93CDE9212240F6B83262
:10CD8000CDE92312094B0A482B9301A906F089F833
:10CD900008B102F021F90121054806F07FF82DB015
:10CDA0005DF804FB3CBD0020F1C6020025C802006E
:10CDB0008CCA0020014B1878704700BF80CA002041
:10CDC00013B5144B1B884FF6FF72934204461FD0D5
:10CDD000114A117889B90093082203460F4809F0D7
:10CDE0009EFE80B10E4B0F491888000440F00100F0
:10CDF00002B0BDE8104001F06FBF024608210748AD
:10CE000009F0EAFEEDE7084A23681360636853609F
:10CE100002B010BD40BD0020B4CB002044BD0020B6
:10CE200048C10020C4F2030082CA00201FB5154B80
:10CE30001C884FF6FF739C4222D0134B1B7893B98A
:10CE40000346009405220121104809F068FEB8B19C
:10CE50000F4B10491888000440F0010004B0BDE8F1
:10CE6000104001F039BF90F9023090F901200178AB
:10CE700002940020CDE90000044809F0EDFEE6E749
:10CE800004B010BD40BD0020B4CB002044BD002044
:10CE900048C10020D3F2030001460220FFF79ABCEC
:10CEA00001460320FFF796BC70477047C2B22DE9D8
:10CEB00000484FEAC23B4FEA524C1BF5FA704FF460
:10CEC0007A724CF10001002310F0C4F800220146F0
:10CED000044802F0DDFA18B1BDE8004802F07CB861
:10CEE000BDE80088D8CB002010B5214C8CB094F858
:10CEF0005400FFF745FB2C22002101A80DF053FB45
:10CF000000238DF805308DF806308DF807300123A9
:10CF10008DF80830282140F6B8328DF809304FF4EA
:10CF2000486044F25063CDE90703CDE9051220467D
:10CF300001A906F0A5F90F4B18884FF6FF73984228
:10CF40000CD01321FFF71EFB30F0080304460DD070
:10CF500002F042F8204602F03FF807E020460321A5
:10CF600006F009F830F008030446F3D10CB010BD08
:10CF70008CCA002040BD002070B5304C22884FF68E
:10CF8000FF739A428CB0064628D02C22002101A8BB
:10CF90000DF009FB012300228DF805308DF80620E5
:10CFA0008DF807208DF8083040F6B83228218DF82A
:10CFB00009304FF4486044F25063CDE90703CDE9EE
:10CFC00005121F4801A906F05BF913212088FFF71D
:10CFD000D9FA30F0080301D001F0FEFF184B194DCB
:10CFE00093F85400184CFFF7CBFA10224FF6FF715C
:10CFF00028460DF0D8FA0823214628462360FEF77C
:10D00000BBF823689E4217D8012135F816302160FD
:10D0100028462B8007F012FF08B101F0DDFF2168E0
:10D02000084807F02DFF062802D008B101F0D4FF10
:10D030000321034805F09FFF0CB070BD40BD0020E8
:10D040008CCA0020C8CB0020C4CB0020014B18782C
:10D05000704700BF38BD0020014B1870704700BFFB
:10D0600038BD0020014B1878704700BF54CA00201B
:10D07000014B1870704700BF54CA00203FDF704753
:10D0800008B51120FCF73EFEFBF726FCFFF70CFF6E
:10D09000BDE80840FBF790B910B50446FFF7D6FF8E
:10D0A00010B12046FFF78CFEFFF7DCFF20B12046D1
:10D0B000BDE81040FEF726BB10BD10B50446FFF7D3
:10D0C000C5FF10B12046FFF7B1FEFFF7CBFF20B13F
:10D0D0002046BDE81040FEF725BB10BD10B5044644
:10D0E000FFF7B4FF10B12046FFF7D6FEFFF7BAFFF7
:10D0F00020B12046BDE81040FEF71CBB10BD10B5A6
:10D100000446FFF7A3FF10B12046FFF7C9FEFFF763
:10D11000A9FF20B12046BDE81040FEF72BBB10BD93
:10D1200038B5FEF70DF82048204DFFF73BFCFEF721
:10D1300097FAFEF71BF9FFF7A3FD0120FFF79EFF0B
:10D14000FFF7B8FDFDF7FBFFFFF74CFCFFF7ECFD29
:10D15000FFF70EFDFFF760FDFFF7C6FEFFF780FD4E
:10D1600013490020FCF700FE322445F001054FF47E
:10D170007A40A847013CFAD1FBF76CFB0D48FBF75E
:10D18000EDFA0D4B0D491888000440F0030001F042
:10D19000A3FD1120FFF78AFEFEF7A2FAFEF7A9FA17
:10D1A000FDF7C4FFFAE700BF81D0020020F40300BE
:10D1B000ABCE0200D4BE002048C1002026F40300FC
:10D1C00073B5134B96681C881546304604F0CAF8B0
:10D1D0002B68019324046B68009344F00104034618
:10D1E00032460C49204601F09BFD01F0CBFD01F0D9
:10D1F00011FC0028FBD1BFF34F8F0749074BCA68CA
:10D2000002F4E0621343CB60BFF34F8F00BFFDE732
:10D2100048C10020FFF3030000ED00E00400FA0520
:10D220000649074A074B9B1A03DD043BC858D050F8
:10D23000FBDC09F04DFFF9F703F80000FC080400DF
:10D2400070BC0020A8C10020FEE7FEE7FEE7FEE775
:10D25000FEE7FEE7FEE7FEE7FEE7FEE70020704799
:10D260002DE9F04F87B04B68029281460C465BB9BE
:10D270000B681B681B683BB98D682DB9C0E9005568
:10D28000284607B0BDE8F08F0CF0A6FDE768029BCA
:10D290009F4228BF1F464FF0000804F11003834649
:10D2A0000197464601250393019B002B2DD0A368CF
:10D2B000019A616893429A4628BF924641B352460A
:10D2C0000BEB06000DF04BF900236360A268E368E6
:10D2D0000199A2EB0A02A3EB0A03A1EB0A01A260E7
:10D2E000E360019156440ABBB8F1000F38D02268C0
:10D2F000126812682260002B30D02368D3B96360B3
:10D300001EB1029BB34288BF0025C9E900B6B7E74A
:10D31000002BDBD0216803984B680BEB0602D3F897
:10D3200004805346C0474FF00108CFE7002B08BFE9
:10D330000025B9E70DF1180A00234AF8083D2168D5
:10D340004B685B6800221F4650460123B84708B966
:10D350002061A9E7A3680133A360F0E71D46A3E7B6
:10D36000002BCAD145469FE7084B1A7882420CD061
:10D37000052818BF064A187018BF137805481CBF47
:10D3800023F0020313700BF0ABBD704708CC0020F4
:10D3900024CC00206CF4030038B505460C460CF094
:10D3A000CBFDA84203BFD4E90001034BC3E9000150
:10D3B000102008BF002038BD28CC00207FB5C388CE
:10D3C00093421D4628BF154693420E46144624D963
:10D3D00080200CF03DFCB4FBF0F303FB1040B0FAEE
:10D3E00080F04009039004A8002300F80D3DCDE92A
:10D3F000016502F0A1F801A980200BF0CDFC0446E4
:10D4000020B907498020FFF7C7FF04469DF80300B5
:10D4100002F0B6F8204604B070BD0020E2E700BF7D
:10D42000A0F403002DE9F04F0B78013B87B00E46C6
:10D430000D2B12D8DFE813F00E00170013001100B7
:10D4400021000B0211001100110011001700F5015D
:10D45000F90109020320FFF787FF0624F1E1B24832
:10D4600003F083F908B90024EBE1B04B01221A6004
:10D47000BFF36F8FBFF34F8FF5E7AD4D05230DF170
:10D480000D008DF80C300CF0EBFC2B683BB1A94B78
:10D49000A9491888000440F0020001F01DFC002397
:10D4A0002B609DF80D3003F01F02032A00F27281F9
:10D4B000DFE812F00400060167017400C3F34116AF
:10D4C000002E6BD1DB099DF80E1000F09A80062922
:10D4D00017D0082900F0888000295FD1974C0222DC
:10D4E00020460DF060F8237843F001022270944A40
:10D4F0001278900744BF43F00303237002228F4940
:10D5000009E09DF81030022B0BD0032B61D0012BCA
:10D5100044D18C4912220DF10D00FFF74FFF044654
:10D5200039E0BDF81370092F28BF09270BF0E4FB81
:10D530004FF009080446B146A4BB804C82493A46E4
:10D5400020460DF00CF82671A4F802800BF0BCFB0D
:10D5500018B1E37943F02003E3710BF0CDFB7B4B73
:10D56000C3E900049F60BDF81320DA6001A800231E
:10D570008DF8043001F0E0FF754980200BF020FCAD
:10D58000044620B973498020FFF706FF04469DF842
:10D59000040001F0F5FF062C40F0048103A80BF015
:10D5A000E9FBECE0CDF804904FF0000A636800223C
:10D5B000D3F804B02146012301A8D84730B9237A13
:10D5C0001E442368D044F6B21C68B5E70AF1010A8C
:10D5D000ECE7BDF811109DF80F000BF0CFFD0146F0
:10D5E0000028DBD0027896E75B4A1278052A03D13F
:10D5F000524A1370012282E7042ACFD14F4B1E708A
:10D60000F8E701390829C9D801A353F821F000BF70
:10D6100089D602009DD502004FD602009DD502009A
:10D6200035D602009DD502009DD502009DD5020091
:10D63000A3D60200484B1B78033B022B01D90824D8
:10D640000DE00BF039FC0420FFF78EFE0FE0BDF873
:10D650000F30012BA2D10BF037FB18B90F240CF0BF
:10D6600068FCEEE0364A137843F0020313702C682E
:10D67000002C00F015810CF05FFC044600287FF4BC
:10D68000F2AE0CF013FCDCE0BDF80F30012B85D1BD
:10D690000BF01AFB0028E1D0294A137823F002038B
:10D6A000E4E72D4B1B78043B012BC8D89DF80F30C5
:10D6B000002BC6D0012B5BD10BF0EAFB0520C3E7A2
:10D6C00001A99DF811000BF01DFB074608B91024B5
:10D6D000C5E703AA9DF804100BF02CFB06280446AE
:10D6E00060D19DF80D2012F0600FB8D11A4B9DF853
:10D6F000041018789DF80E30D6092FD073B10A2B7C
:10D70000ADD105289BD138460BF0BCFB0B49324606
:10D7100008700DF10D00FFF751FE30E005288ED1A5
:10D7200006490B800222F4E730CC00205C700240F6
:10D7300028CC002050C100203CF4030034CC002051
:10D7400024CC00208CF403006DF403000CCC0020EA
:10D75000B8F40300A0F4030008CC00200B2B7FF4E6
:10D760007EAF05287FF46BAFBDF80F30FF2B01D9DA
:10D77000072474E79DF80F2038460BF035FB04466C
:10D7800010E09DF81100010706D19DF80D3013F04F
:10D79000600F0BD0062462E703A90BF0CEFA06282F
:10D7A0000446F2D0002C3FF462AF58E79DF80E20FB
:10D7B0003E4B9DF811401B78012A1ED012D3032A3C
:10D7C000E8D104F00F02072AE4D8BDF80F100029B1
:10D7D000E0D1052B02D0002A7FF431AF20460CF0B7
:10D7E000FFFA44E7052B02D022077FF428AF20463A
:10D7F0000CF00CFB2E49088094E704F00F02072A76
:10D80000C8D8BDF80F100029C4D1052B02D0002ABA
:10D810007FF415AF20460CF013FB20460CF0ECFA19
:10D8200025E70020FFF7A0FD1DE64FF08043D3F869
:10D83000384414F0010401D00220F3E70120FFF77F
:10D8400093FD204607B0BDE8F08F0120EAE7C878D5
:10D8500003283FF402AE174D2B6823B300222A6041
:10D8600069689847044600287FF4F9AE2B6823B115
:10D87000B378002B7FF4F7AD03E70F4B1B78082B31
:10D880000ED10E4B1B681B070AD10D4B1B6813F002
:10D89000F00F05D10B4B1B6813F0F00F3FF4E3AD15
:10D8A0000CF044FBCDE70E24D9E600BF08CC0020E5
:10D8B00034CC002028CC0020E00F00F0E40F00F072
:10D8C000E80F00F0EC0F00F008B1402303600148BE
:10D8D000704700BF34CC0020034B1B7843FA00F0A4
:10D8E00000F00100704700BF24CC00207EDF7047AD
:10D8F0007FDF704786DF704710B50378182B04462A
:10D9000002D105F0B3FD207010BD10B5044640886B
:10D9100006F062FAA0802046BDE8104007F0E4BEA1
:10D9200010B586B004461422002101A80CF03BFE7D
:10D9300004230DEB03008DF80430ADF80640FFF72B
:10D94000E4FF06B010BD30B587B005460C46142282
:10D95000002101A80CF027FE072301A88DF8043050
:10D96000ADF806500394FFF7D0FF07B030BD0000BC
:10D97000F0B587B004460F4616460021142201A8D0
:10D980001D460CF010FE03238DF80430094BADF852
:10D990000640002219788DF80C702046ADF80E6014
:10D9A0008DF8105005F084FD01A8FFF7AEFF07B019
:10D9B000F0BD00BFE9BE002030B5144B0A1C87B093
:10D9C0000C4618BF01221978054605F071FD631E4B
:10D9D0005A425A410E4B2846197805F069FD0D4B05
:10D9E00028461978002205F063FD1422002101A8C1
:10D9F0000CF0D9FD012301A88DF80430ADF80650D4
:10DA00008DF80C40FFF781FF07B030BDECBE002061
:10DA1000EABE0020EBBE00202DE9F0411E4B0E4671
:10DA200019780446174605F02BFD014680B32046C1
:10DA300006F0D2F9194B05461978204605F020FD6D
:10DA4000174B00281978204614BF4FF001084FF0FB
:10DA5000020805F015FD50B1284606F049FA3B468C
:10DA6000324641462046BDE8F041FFF781BF4FF600
:10DA7000FF739D42F3D00721284607F021F80146A5
:10DA80000028ECD00528EAD02046FFF75CFFE6E747
:10DA90003B463246E6E700BFECBE0020EABE00206F
:10DAA000EBBE0020024B0A78197805F001BD00BFDB
:10DAB000E8BE00202DE9F041DFF86480144F154ED8
:10DAC000154D164C4046FFF717FF3846FFF714FF79
:10DAD0003046FFF711FF2846FFF70EFF2046FFF7FD
:10DAE0000BFF98F80030182B0FD03B78182B0CD078
:10DAF0003378182B09D02B78182B06D02378182BC5
:10DB00000CBF03200020BDE8F0810320FBE700BF2D
:10DB1000ECBE0020EABE0020EBBE0020E8BE0020E4
:10DB2000E9BE00202DE9F04F8BB0934606468846AB
:10DB300005F05AFC564C07462178304605F0A0FC0B
:10DB400020228246002102A80CF02DFD012FA146C3
:10DB50000CD1504B00221978304605F0A9FCB8F1E1
:10DB6000000F08D185274FF6FF753CE0002F56D1F6
:10DB700043F202044FE098F80030DB070CD4464B28
:10DB8000CDF814B009934FF6FF75012F4FF0000741
:10DB900029D002AB002228E0304606F01DF94FF6EE
:10DBA000FF739842054604460CD106F017FFA042C9
:10DBB00005463BD10324BAF1000F2CD0284606F0CD
:10DBC00097F928E0012F33D1324C3046217805F007
:10DBD00057FC68BB3046FFF7A3FE2178304605F0BE
:10DBE0004FFC28BB852702AB424639463046FFF73B
:10DBF0007FFE04460028DED1002FDCD1BAF1000FF1
:10DC000009D099F800103046012205F051FC294650
:10DC1000304606F05FF920460BB0BDE8F08FB8F152
:10DC2000000FA8D185274FF6FF75B2E74FF0010A24
:10DC30006B4601220721284606F0D6FE112804462D
:10DC4000B9D0002CB6D12146502201980CF0ABFC83
:10DC5000019B1F700199CDF814B001F134030293B8
:10DC600001F1180306934B1C079311310A4B0993DA
:10DC7000304606F0C1F800289CD10721284606F05E
:10DC800057FF0528044695D0002894D17DE700BFB2
:10DC9000EBBE0020E8BE002074CC002038B505465D
:10DCA0000C4605F0A1FB012806D144B121462846C7
:10DCB000BDE83840FFF71ABE43F2020038BD2046E7
:10DCC000FCE700002DE9F0410388113B88B00446D1
:10DCD000092B71D8DFE813F00A0070001F0047001D
:10DCE000700070007000700097001501037A85883D
:10DCF0003D2B9A4B2846197841F23D0418BF4FF44A
:10DD0000885405F0BDFB002856D000222146284645
:10DD1000FFF782FE50E0808805F066FB012802468E
:10DD20000FD1237AA58813F0010F8C4B0CBF02266C
:10DD300001261978284605F0BBFB31462846FFF737
:10DD40003BFE34F8045F1422002103A80CF02BFCE6
:10DD5000043405238DF80C30ADF80E50059403A85B
:10DD6000FFF7D3FD28E000F11006304606F091F8E9
:10DD70004FF6FF7398420546A08820D106F02CF894
:10DD80000546764BA78819780122384605F090FBA6
:10DD900000213846FFF710FE4FF6FF739D4212D167
:10DDA0000025002329461A46A088FFF7A3FD014657
:10DDB000F8B1A088FFF7C7FD08B0BDE8F08129469B
:10DDC00006F088F8DDE703AA0721284606F008FEDA
:10DDD0000028E5D1049D95F84430DB0701D53435A2
:10DDE000DFE7314605F1460006F03FF80028F6D19E
:10DDF000D6E7002DE0D1A0882B4641F20602294645
:10DE0000FFF7B6FDD8E7057A8688DFF85081002D48
:10DE100068D1304605F0E0FF98F8001007462A4622
:10DE2000304605F045FB637A13F004084DD0072116
:10DE300001AB0122384606F0D7FD014690B13046CD
:10DE4000FFF781FD02238DF80C30637AADF80E6088
:10DE500013F0040F0CBF022301238DF814308DF84A
:10DE600015507CE74FF6FF71029805F07DFF4FF6E5
:10DE7000FF739842804665D0394D0146304606F022
:10DE800029F82978304605F0FBFA002864D130469D
:10DE9000FFF746FD2978304605F0F2FA05460028DE
:10DEA0005AD1304B3046197805F0EAFA0028C9D02B
:10DEB000384606F01DF8C5E73046FFF744FD00255B
:10DEC0004FF6FF739845ECD1BCE7264B30461978E6
:10DED00005F0D6FA05460028B4D0384606F008F812
:10DEE0004546AFE7447A98F80010304604F0030442
:10DEF00005F0C6FA00283FF45FAF224629463046B7
:10DF000006E7194B8088197805F0BAFA054600280B
:10DF10007FF452AFA08805F087FA0146A08819B9AE
:10DF2000012341F206026BE70C4B2A46197805F0F3
:10DF3000BFFA02238DF80C30A388ADF80E308DF8AF
:10DF400014508CE73A460721384606F021FE014678
:10DF50000028B1D10125B3E74246F4E7E9BE00202D
:10DF6000E8BE0020EBBE0020ECBE002060DF704762
:10DF700069DF704761DF704710B541F2D424ADF519
:10DF8000975D0DF1020103A8ADF80240FFF7F2FF23
:10DF900070B90B4901A803F0B1F9029B002BF0D036
:10DFA00003A8D3E90021904701A803F0B0F9F4E7F2
:10DFB000052801D001F010F80DF5975D10BD00BFE8
:10DFC00030F70300024B1B780BB1FFF7D5BF70474A
:10DFD000B4CC00207FB506460C46002900F0B08086
:10DFE000584B0B600C22002101A80CF0DCFA012335
:10DFF0008DF8063022688DF80460062301A92020E0
:10E00000ADF80830FFF7B4FF58B14F4B1D8803F04F
:10E01000A9F92D0445F0010502464C49284600F0B7
:10E020005FFE0C22002101A80CF0BDFA01238DF83F
:10E0300005302268002301A940208DF806308DF8B4
:10E040000730FFF795FF58B13F4B1D8803F08AF961
:10E050002D0445F0010502463D49284600F040FEEA
:10E060000C22002101A80CF09EFA40F667132268EA
:10E070008DF8046001A92320ADF80630FFF778FF82
:10E0800058B1314B1D8803F06DF92D0445F00105A1
:10E0900002463049284600F023FE0C22002101A848
:10E0A0000CF081FA012022688DF8040001A9FFF725
:10E0B0005FFF58B1244B1D8803F054F92D0445F03F
:10E0C000010502462449284600F00AFE0C220021E0
:10E0D00001A80CF068FA4FF4B0632268019301A91B
:10E0E000A120FFF745FF58B1174B1D8803F03AF9FF
:10E0F0002D0445F0010502461849284600F0F0FDC0
:10E100000C22002101A80CF04EFA9DF80430226880
:10E110006FF3000301A9A0208DF80430FFF728FF5A
:10E1200060B1094B1C8803F01DF9240444F001047C
:10E1300002460B49204600F0D3FD002004B070BD1C
:10E140000E20FBE770BC00207CC10020C0F403005F
:10E1500006F5030052F5030099F50300E5F5030009
:10E1600036F60300F8B504460768FFF7FFFE23689C
:10E17000BB42054620D91A4E1A493088000440F0A7
:10E18000020000F0A9FD30882368174900043A46D0
:10E1900040F0020000F0AEFD4FF080533088D3F81D
:10E1A0000C31226811499B0203F1005300049A1AB2
:10E1B00040F0020000F094FD25B90D4B01221A70C9
:10E1C0002846F8BD064B28461C8803F0CBF82404EB
:10E1D00044F0010402460749204600F081FDEFE7C4
:10E1E0007CC1002089F60300B8F60300E9F60300BD
:10E1F000B4CC002013F7030075DF704776DF70475B
:10E200007ADF70477BDF7047034B1A8882420CBF6E
:10E2100018460020704700BFD4CC0020024B9B69F9
:10E2200003B11847704700BFB8CC002037B585B29E
:10E230002846FFF7E9FF034670B1164C017A227BAE
:10E2400091420BD200F10A012846FFF7D5FFE8B151
:10E25000112801D0FFF7E2FF03B030BD237C00227C
:10E26000027243B13B212846FFF7C8FF30F0080394
:10E2700001D0FFF7D3FF6369002BEDD000228DF8AA
:10E280000420ADF8065001A89847E5E71A7A013254
:10E290001A72E1E7B8CC002013B50B46497A0F4C4F
:10E2A000024669B9D4E901101C7A002C18BF014656
:10E2B000586801F0EDF808B1FFF7B0FF02B010BDEB
:10E2C000002119726369002BF8D00121ADF8060016
:10E2D0008DF8041001A89847F0E700BFB8CC0020E3
:10E2E00030B583880588B3F5FA7F24BF6FF4F972DF
:10E2F0009C184A8838BF002495420CD84088904228
:10E3000009D38A88A24206D303F2F310904234BFA5
:10E310000020012030BD0020FCE7000070B503881C
:10E32000112B014648D002D8102B1ED070BD122BE5
:10E3300052D0502BFAD12F4BC288DB899A42F5D1AB
:10E34000038A022BF2D186883046FFF75DFF05462F
:10E350000028EBD001F1120005F007F930BB686826
:10E3600001F0DAF80028E1D009E0C37B012BDDD110
:10E370004FF6FF70FFF748FF054620B90420BDE8BF
:10E380007040FFF74BBF8E881B4A06800023037244
:10E390001368C5F80A300A30536843601031FFF73C
:10E3A0009FFF144B6872DB89002BBFD12946304692
:10E3B000BDE87040FFF770BF8088FFF725FF044677
:10E3C0000028B3D0406801F0A7F808B1FFF726FF96
:10E3D0004FF6FF732380A9E786883046FFF714FFC6
:10E3E00005460028A2D008310A30FFF779FF68728D
:10E3F000DCE700BFB8CC0020E8CC0020F8B506462A
:10E4000050B305460FCD154F3C460FC495E80700A5
:10E4100084E807003068124B3B60B8B1FFF7F0FEAC
:10E42000C8B931680A681A604A685A600D480E4ACD
:10E430004FF6FF7303800D4B40F8043F002101F0BD
:10E4400015F8002814BF0320002004E01846FFF749
:10E45000D9FE0028EAD0F8BD0E20FCE7B8CC002099
:10E46000E8CC0020D4CC00202DE20200F0CC00202B
:10E4700090DF7047A5DF7047B5DF7047F0B585B016
:10E480000023ADF80810ADF80A106A4602A9074645
:10E4900003930093ADF80430FFF7EAFF064618B384
:10E4A000134C258802F05EFF2D0445F0010503465C
:10E4B0003A461049284600F01DFCBDF80020BDF882
:10E4C000023002B933B120880B49000440F001004A
:10E4D00000F010FCBDF8042032B120880749000488
:10E4E00040F0010000F0FCFB304605B0F0BD00BF7D
:10E4F00070C1002048F7030092F70300D1F7030032
:10E5000088B10A4B03601B23037140F66713C38075
:10E510001723038141F61B32002301618372C3720A
:10E520008281184670470E20704700BF670967094F
:10E5300038B1A1F11703B3F5156F04D8418000205D
:10E5400070470E20704707207047000037B503461C
:10E5500080880C46A0B91A88232A00F0AE8011D812
:10E56000102A25D0112A53D0A37A4BB1E18800207C
:10E57000FFF780FF002840F0A6800123A072E3721D
:10E5800003B030BD3A2A4ED0552A68D0242AEBD1A8
:10E590001A7A0B694A73002BE6D04DF67A21ADF852
:10E5A0000400ADF80010ADF802008DF8042080E002
:10E5B0000A790A73DB7B012B13D0022B14D0E1887C
:10E5C00023898B4205D20020FFF754FF70B9012345
:10E5D000E372217B637B8B42C6D20020FFF74EFFA4
:10E5E000C2E70B88E380EAE74B88FBE7112802D1FA
:10E5F0000123A372EDE73C4B1D8802F0B3FE2D040E
:10E6000045F0010502463949284600F069FBE0E77C
:10E6100040F66713CB8017230B8141F61B338872BA
:10E62000C8728B81A0E75B89CA88934228BF1346D2
:10E63000172B0A6938BF17230B8162B1C97A51B110
:10E6400040F67721ADF80010ADF80200ADF80430C7
:10E650006946204690470023E372A37284E7DB8873
:10E66000C988A072172B38BF17238B4228BF0B46CF
:10E670002381FFF701FF58B11B4B1D8802F072FE8A
:10E680002D0445F0010502461949284600F028FBF3
:10E69000E27A002A7FF468AF2369002B3FF464AF6D
:10E6A00040F67721ADF802202289ADF80010ADF8D0
:10E6B000042069462046984756E7197A237B9942F9
:10E6C00028BF19468AE711283FF45AAF064B1C8829
:10E6D00002F048FE240444F00104024603492046A7
:10E6E00000F0FEFA4CE700BF70C1002027F80300DD
:10E6F00058F80300F0B595B01C46164608460D467E
:10E7000002F059FD1A9B0D93CDE9086400242346BD
:10E71000082205A928460A948DF82C400C9402F092
:10E7200086FD079B0293BDF81830ADF80C30BDF89C
:10E730001A30ADF80E309DF814308DF8114003F00A
:10E740000302012A1DD1BDF81440059EC3F3C20384
:10E75000C4F383148DF81030A20008230EA92846B4
:10E7600002F065FDC6F3952608AB0093224602AB86
:10E770000EA9304600F074FB284602F020FD15B0CB
:10E78000F0BD022AF8D1BDF81640C3F3C203A409B4
:10E790008DF810300827082C264628BF08263B464F
:10E7A00032460EA9284602F042FDA41B08AB02AA7D
:10E7B00031460EA8374400F0B7FB002CEBD1DBE765
:10E7C0007047037813F0030F03F0040202D012B96C
:10E7D00010467047B2B103F00303012B03D0022BA4
:10E7E00009D0012070470A6800880232C0F3831004
:10E7F00002440A60F5E70B684288023303EB921388
:10E800000B60EEE70B684288013303EB921302883A
:10E81000F4E700002DE9F04F89B00546861C08A8F2
:10E82000484C019200230F4600F8113D00F084FE91
:10E8300023683B60D4E901231344226801339B1A07
:10E8400004F21C4704F5836A04F21448B3421AD355
:10E85000019A0023002A6DD0012262F3010343F0E4
:10E86000040365F389132168A2689DF80F000A402C
:10E8700003320E4444F82230266000F081FE01206D
:10E8800009B0BDE8F08F0121384601F045FF504640
:10E8900001F068FF404601F065FF0DF12009606856
:10E8A000D4F808B049F8100D00EA0B00033004EB6F
:10E8B00080004946FFF785FF049BB0B90BEA0302CD
:10E8C00004EB8202D16805919A1C013303EA0B0B19
:10E8D00004EB8B0C01F00303012B0492DCF80CB069
:10E8E00020D0022B04D083460BE00BEA0300DDE7C7
:10E8F000BDF816309B0903334FEA1B4B02EB930321
:10E900000493404601F031FF08B1049B636059460F
:10E91000384601F001FFD4E9012313442268013392
:10E920009B1A93E7BDF81430C3F383134FEA1B4BD4
:10E930001344E5E7022262F3010343F0040365F3A5
:10E940009F5390E7E0CD002008B50E4B0E48FF2204
:10E950009A600022C3F81824C3E90022C3F81424E3
:10E9600083F8202402F0E0FB38B9084A084B094933
:10E970009B1ADB0802469A4200D108BD21F82220EA
:10E980000132F8E7E0CD00206408040074070400B9
:10E99000640804001CC1002030B50B4C79B10B4A4F
:10E9A0000B49121BD20800239A4201D1002030BD2E
:10E9B00001EB83056D88854202D00133F4E70346FD
:10E9C00054F83300F3E700BF740704006408040040
:10E9D0001CC10020094B013903EBC000032909D8F1
:10E9E000DFE801F00A02040604207047007970474E
:10E9F0004079704700207047022070477407040078
:10EA0000034BD3E90030C31A58425841704700BF46
:10EA1000E0CD00202DE9F04387B0FFF7F1FF074676
:10EA2000002840F0F5807B4DC5F81804BFF34F8FE8
:10EA30006868AC680DF1180848F8100D20400330E4
:10EA400005EB80004146FFF7BCFE029B064600280E
:10EA50005FD104EA0302991C013305EB82022340D3
:10EA600005EB8303D268DB68049302F00303022BF7
:10EA70000392029162D1BDF80E3067484FEA9318B5
:10EA8000B8F1500FC14628BF4FF0500969F38F13FA
:10EA900009F10801ADF80E3002F05EFB07460028D0
:10EAA00000F0A48002F087FB334603A90822384611
:10EAB00002F094FB029924EA01060136B600B14542
:10EAC00035D95FFA89F97EB3F6B2A9EB0609214080
:10EAD00003315FFA89F4B146504E05EB81010823FA
:10EAE0004A46384602F07AFB36B109F1080322465D
:10EAF0003146384602F072FB029B08F1030803EB33
:10EB000098030293D5F81834002B4AD1D5F8104455
:10EB100058E02A689A4204D86A60384607B0BDE8CF
:10EB2000F08304EA03008AE73C493446D7E72140F2
:10EB3000033108234A4605EB8101DAE7012B55D161
:10EB4000BDF80C303448C3F38311062928BF0621D1
:10EB500061F3891302318900ADF80C3002F0FCFA40
:10EB60000746002842D002F026FB3346082203A9BC
:10EB7000384602F033FBBDF80C20C2F38312B31CFD
:10EB800096424FEA8303BDD202994A1C21400331C9
:10EB9000029205EB81010422384602F01FFB013688
:10EBA000E9E7384602F00BFBFFF72AFF80F001008F
:10EBB000C7B2B2E7637A23B1236839461B6820469F
:10EBC00098476468002CF5D1384602F0F8FA06A898
:10EBD00000F8114D00F0B0FCD5F818340BB9029BC9
:10EBE0006B609DF8070000F0CBFCDDE7D5F8104422
:10EBF00044B90B4B0B491888000440F0020000F0A8
:10EC00006BF8D1E7236820469B6898476468EFE774
:10EC1000002782E7E0CD002064080400ECCD00204E
:10EC200048C1002094F803002DE9F74F284C804696
:10EC30000F46924601A9012218469B46D4F8089037
:10EC4000FFF7E8FD88B3019D0026A91C5E4506EB91
:10EC5000010234D100211F4801F01DFD80F3100096
:10EC60006A1C02EA090204EB8202000405EA0903B5
:10EC7000033340EA1840D06014F8232068F3C5023B
:10EC800004F8232034F8232066F3891224F8232083
:10EC900054F82320012167F39F2244F8232061F3D5
:10ECA00001026FF3820204F8232094F820341BB190
:10ECB000FFF7B0FE0028FBD103B0BDE8F08F09EAF2
:10ECC000020204EB82025AF82630D3600136BDE717
:10ECD000E0CD0020FCD1002000231A46FFF7A4BF9E
:10ECE00013B502AC012344F8042D2246FFF79CFF24
:10ECF00002B010BD07B5CDE9002302236A46FFF735
:10ED000093FF03B05DF804FB1FB5CDE90123069B1B
:10ED1000039301AA0323FFF787FF05B05DF804FB07
:10ED20001FB5CDE90023069B0293079B03936A4618
:10ED30000423FFF779FF05B05DF804FB30B5104AF6
:10ED4000D2F810440023214641B90372D2F810448E
:10ED50004CB9C2F810044160184630BD0D7A9D428E
:10ED600007D04968F0E761684160D2F8102450602C
:10ED7000F2E701330A2BE6D14FF0FF33ECE700BF97
:10ED8000E0CD002038B5084A0123D2F8104482F8BB
:10ED900020341D4604B938BD2368657220465B687F
:10EDA00098476468F6E700BFE0CD002010B5037A0D
:10EDB000052B0C460FD0437A23B1084A0849204658
:10EDC00001F036FD0749204601F032FD2046BDE83E
:10EDD000104001F022BD002AF8D0F3E7EDF803005F
:10EDE00013DC030039F4030073B5C38804460D46F1
:10EDF00033B1144A00921449144A284601F018FD10
:10EE0000217A05291CD0637A4BB1A088FFF7E2FD77
:10EE10000F4B104953F82020284601F009FD227AB3
:10EE20000D4BA08853F822600021FFF7B5FD0B4978
:10EE300003463246284602B0BDE8704001F0F8BCF7
:10EE400002B070BDEDF80300FAF80300F2F8030019
:10EE5000BCF8030013DC03001CF9030012F90300E3
:10EE60002DE9F04385B01F460C9D002306460C4655
:10EE7000904695F80C902B7329463846FFF7B4FF5F
:10EE8000B8F1060F09D8DFE808F00412181F28337C
:10EE900040003146284601F0CBFC00222946384686
:10EEA000FFF784FF85F80C9005B0BDE8F083226879
:10EEB0003146284601F0BCFCEFE7D4E90023314697
:10EEC000284601F0B5FCE8E7A36800933146D4E991
:10EED0000023284601F0ACFCDFE7E3680193A36858
:10EEE00000933146D4E90023284601F0A1FCD4E781
:10EEF00023690293E3680193A36800933146D4E940
:10EF00000023284601F094FCC7E763690393236953
:10EF10000293E3680193A36800933146D4E9002388
:10EF2000284601F085FCB8E708292DE9F84F80460E
:10EF30000E4617461C4638D8002593F80C901D73D2
:10EF400019461046FFF750FFDFF880A0DFF880B0C9
:10EF5000AE422CD918F805205946204601F068FC2D
:10EF60000135082DF4D11749DFF868B0204601F0CB
:10EF70005FFC0025AE421FD918F805A00BF0C0FABF
:10EF800050445946437813F0970F14BF52462E222F
:10EF9000204601F04DFC0135082DEBD10122214620
:10EFA0003846FFF703FF84F80C90BDE8F88F514610
:10EFB000204601F03DFCD3E70349204601F038FC30
:10EFC000E9E700BF8DE40300E8F80300E6F803007A
:10EFD000E0F80300EAF803001FB50021039001AA3E
:10EFE00044F20100CDE90111FEF7EAF805B05DF841
:10EFF00004FB0000094A537891780133DBB299424F
:10F0000008BF0023117899421FBF0370507818235E
:10F0100003FB002014BF04300020704704D20020FE
:10F0200073B5054602A8002400F8014D0E4600F015
:10F0300083FA0DF10600FFF7DDFF90B106700A4B71
:10F040009DF8062045605A709DF8070000F098FA78
:10F0500024B9064B4FF48012C3F80021204602B0B9
:10F0600070BD0424F0E700BF04D2002000E100E0FE
:10F07000024B4FF43C6043F00103184780F9030052
:10F0800038B50C4B0C4C4FF40032C3F880200125EE
:10F090004FF48033C4F84833C4F808336560FFF791
:10F0A000E7FF064BA56000241C60FFF7E1FF044B5F
:10F0B0001C7038BD00E100E00010014030D8002095
:10F0C00021D80020F8B51F491F4B0025C1F8405139
:10F0D000C1F84451C1F84851C1F84C51C1F8005130
:10F0E000C1F804511B684BB3D1F8044517490968AE
:10F0F000641A24F07F442F461A68A24209D8A41A41
:10F1000015441A7CDE691AB11F74D3E905209047B3
:10F11000AEB90F4B0F4A197813788B4205D10133E2
:10F12000DBB2022B08BF0023137012780A4B43F89E
:10F1300022500A4B4FF48012C3F80021F8BD334629
:10F14000DAE700BF0010014034D8002030D800209A
:10F150002CD800202DD8002024D8002000E100E089
:10F160002DE9F74F9E4A9F49137809789E4D9942A1
:10F170003CD00133DBB2022B08BF002313709B4944
:10F1800012789B4B0F6853F822003B1823F07F4303
:10F1900000220B602B6816461446944613B942B100
:10F1A0002B6006E0196881420ED902B12B60091A62
:10F1B00019604FF001082B68DFF83CA2009300278C
:10F1C000BEB9DFF83CB260E0401A0C44D968C3F81D
:10F1D00000C0D3F81CE031B13A1922F07F42C3E9F4
:10F1E0000121DE611E4601227346D7E70026B046A4
:10F1F000E1E73446F6697D4A63681268DFF804C2C5
:10F20000A068991A21F07F41614500F2A580014470
:10F210002160012222742A680023C4E90133E361DA
:10F22000002A40F0A2802C60CAE75A1C9BF802100A
:10F23000D2B291428BF8002004BF00228BF800204C
:10F24000182202FB03B32A6819799C68022974D03A
:10F2500003297ED0012918D1217CB1B9DA68626016
:10F260001A69A2605A69E2609B69A361614B1B78CD
:10F27000002BC0D06160BEE79C4200F093809946AD
:10F28000DB69002BF8D1002323749BF800309BF836
:10F2900001209A42C9D12B682FB9009A934202D11A
:10F2A000B8F1000F43D0002B79D0D3F800A0524D15
:10F2B0004E4BD5F804751C68DFF84C813E1B98F85E
:10F2C000003026F07F4603369BB94FF48033C5F8F3
:10F2D0004433C5F80433494B4FF400324FF0010971
:10F2E000C3F880211A60C5F80090FFF7C1FE88F8C6
:10F2F0000090B2452CBF5444A41924F07F44C5F8B3
:10F300004045D5F80435DB1B23F07F43E41B033372
:10F3100024F07F44A3420AD9D5F80435C5F8403516
:10F32000FFF7A6FE354B4FF40032C3F80021314BF6
:10F3300000221A7003B0BDE8F08F13469146A0E793
:10F340001174D2690123002AFAD1002B9DD02A60C2
:10F350009BE700231946F6E7D31A23F07F43834245
:10F3600034BFC31A0023236053E72168136899420E
:10F3700013D8591A1160E26155E7091AD8691A467B
:10F3800038B1034618688842F7D3401A1860184607
:10F3900013462160E061DC6112E71346F2E7FFF7F4
:10F3A0006FFEC4E74C450DD1D3692B6053B90F48AC
:10F3B00001920121CAF8081003600E4B1970FFF783
:10F3C00057FE019AE1692368C9F81C1011B1086859
:10F3D00003440B602B689A4218BF012753E700BF14
:10F3E0002CD800202DD8002034D8002030D8002080
:10F3F00024D8002020D800200010014000E100E0C7
:10F4000004D20020FEFF7F0021D8002008B5FFF7BE
:10F4100037FE104B0020412218809A700E4B186066
:10F420000E4B18700E4B18700E4B4FF48012E021EB
:10F43000C3F8802183F814131A6002F18042A2F508
:10F440006F22C2F8080583F81113074BD2F8042580
:10F450001A6008BD04D2002034D800202CD8002027
:10F460002DD8002000E100E030D80020074B9B7829
:10F470004BB132B128B10368187C20B959745A6174
:10F480007047072070470820704700BF04D2002053
:10F490002DE9F7431D4FBB7805460E4690469BB3BA
:10F4A00090B304292ED9436973B3437C02A8002486
:10F4B000012B00F8014D0CBF8946A14600F03CF835
:10F4C0000DF10600FFF796FDD0B101230370104B3C
:10F4D0004560D3F80435C0E90498C0E902369DF8C8
:10F4E00006307B709DF8070000F04AF824B9094BFC
:10F4F0004FF48012C3F80021204603B0BDE8F0832A
:10F500000424EFE70724F7E70824F5E704D20020F6
:10F510000010014000E100E0064A92783AB130B1B3
:10F52000426922B1002202740221FFF779BD08204E
:10F53000704700BF04D2002070B5EFF3108672B69A
:10F540000C4A946801239CB993600B4B0B4DD3F884
:10F55000801029401160C3F88050D3F884105160A6
:10F560004FF0FF32C3F88420047006B962B670BD54
:10F570000370FAE7CCE5002000E100E0FC06FFBDE7
:10F5800010B5084B9A685AB150B9EFF3108172B6B2
:10F59000054A1C6814605C685460986001B962B6E2
:10F5A00010BD00BFCCE5002000E100E070B5064EC4
:10F5B0000546002456F824300BB1284698470134FC
:10F5C000042CF7D170BD00BF44D800200330F0B543
:10F5D00040F2FD3386B29E421DD8104D0024142700
:10F5E00007FB04F31FFA84FC585D78B92B441A8991
:10F5F000B3F80AE07244324492B2B2F5806F05D299
:10F60000A1F800C05A8932445A81F0BD0134052C5A
:10F61000E6D10720F9E70920F7E700BF78D80020F6
:10F620000B4A0C4B5188142000FB0131CB6833B9D5
:10F630000420496810700122074801F065BB0523CA
:10F640000649137002238B80012200230968F3E727
:10F650005CD8002078D8002094C100206CD900200C
:10F6600007B5002305490093054A096805480823A2
:10F6700001F0C6FA03B05DF804FB00BF6CD90020AE
:10F6800094F9030094C1002007B5002300930146BC
:10F690000823034A034801F0B3FA03B05DF804FB02
:10F6A0008CF9030094C1002013B500230C4600938D
:10F6B00001460423074A084801F0A2FA38B9074B6B
:10F6C000142202FB04340123237402B010BD0E2067
:10F6D000FBE700BF88F9030094C1002078D8002020
:10F6E00037B50A480A4B42689C8819685388032535
:10F6F000033305709BB2002000909B0001EB840156
:10F70000044801F07DFA03B030BD00BF5CD8002092
:10F710006CD9002094C1002010B50146044800F0C7
:10F72000EEFE1C22044600210AF03DFF204610BDDB
:10F73000F0BE00204388033300EB8303994209D3D2
:10F7400082884FF6FF739A4206D00088B0FA80F0A4
:10F750004009704702207047012070472DE9F843A7
:10F760000223DFF860800B800D46174600F58056B7
:10F7700000F108044FF00109B4420FD223680133AD
:10F780000CD031462046FFF7D5FF48B10FB187F8BE
:10F79000009002280BD14FF480632B80BDE8F883E2
:10F7A000A368D8F80020934201D9C8F800302B880C
:10F7B0006288033313442B806388033304EB830490
:10F7C000DAE700BF70D8002070B5144A142303FB99
:10F7D00000200B6844680D4604F580569BB15C8898
:10F7E000033403EB8404B4420BD22368013308D002
:10F7F00031462046FFF79EFF012809D005D3022895
:10F80000F1D1002003E00834EDE72C60012070BD49
:10F810006388033304EB8304E5E700BF78D8002056
:10F8200073B5436805460C4653B3234AD1688B42EF
:10F8300026D31269934223D813F0030220D11F4923
:10F840000089098988421BD128689968884217D1A4
:10F850001B48142505FB020196B249688B420AD960
:10F8600001F580518B4206D226800020B0FA80F04C
:10F87000400902B070BD0132052AEBD10A20F5E73C
:10F88000002323801E462388042B01D90020F0E7A3
:10F89000019601A92088FFF797FF18B92388013343
:10F8A0002380F0E7019B2A6899689142F1D16B604F
:10F8B000024B1B892B81DCE794C100205CD800201F
:10F8C00078D800202DE9F8431C461F4B1B780646CC
:10F8D0000F461546002B32D0002A32D0002C30D0F3
:10F8E000DFF86C804FF01409A388042B01D90A209B
:10F8F0001BE009FB03F318F80330C3B1A3880133FD
:10F90000A380F1E723681EB19988328891420ED115
:10F910001FB119883A88914209D19B682B602368EE
:10F920006B600A4B1B892B810020BDE8F8832146C0
:10F93000A088FFF749FF0028E4D12060DEE702201D
:10F94000F3E70520F1E700BF54D800205CD8002081
:10F9500078D8002008B5074B191D5888FFF734FFE9
:10F9600018B1BDE80840FFF7BBBEBDE80840FFF78F
:10F9700057BE00BF5CD800202DE9F04F9F4FDFF845
:10F98000A09289B00646B8463B6823B949469C48D0
:10F9900000F0EFFD3860D8F8005029784B1E052B99
:10F9A00000F20E81DFE813F006007200720003011E
:10F9B0000301590126B1934B00225A60012411E042
:10F9C0002B79032B0AD8DFE803F002263E490123F6
:10F9D0002B71FFF745FE002800F0E380894B0022E1
:10F9E0005A600E241422002103A80AF0DCFD41F61F
:10F9F0001D539C4208BF0024D8F8003004941A78A4
:10FA0000023A042A00F2E281DFE812F0C301CF01DA
:10FA1000F201FA0101027C4A0023142000FB03F1E9
:10FA20008C5C022C06D15318002050545868FFF704
:10FA30002BFED0E70133052BF0D1724B01221A7057
:10FA400000225A6000E171497148002302222B71A3
:10FA50008A800122096801F057F9BCE76B4C002647
:10FA60002E712068684DFFF70FFE6A4BD4F800C076
:10FA70005A8814235343EA18EE5451682160A18830
:10FA8000C2F804C011810222A280A4E7B5F814A034
:10FA9000AA7DDFF874B11423AEB1022A06D903FBA4
:10FAA0000AB3EA88198903320A441A81142303FB32
:10FAB0000ABAEB88BAF80A20C3F57F43FD33134432
:10FAC000AAF80A307AE703FB0AB318895C6804EBEA
:10FAD0008004062A05D8DFE802F0274D35431D597A
:10FAE00067000F24AB7D022B07D9142202FB0AB258
:10FAF000EB88118903330B441381142303FB0ABAE7
:10FB0000EB88BAF80A20C3F57F43FD331344AAF803
:10FB10000A3067E74048414900234360AB6903600E
:10FB2000FFF77EFE002859D00223AB750023009317
:10FB30000423EA182146364801F062F8002830D044
:10FB40000E24CFE72B69002B0CBF01230323AB75D9
:10FB50000023009305F10C02042304F10801EAE7F5
:10FB60000123AB750022EB8800929B002A6904F107
:10FB70000C01E0E7032914BF06230523AB7500231E
:10FB80000093042305F10802E118D4E70623AB75BE
:10FB9000224B1988204B5868FFF786FD0446002841
:10FBA000A0D109B0BDE8F08F41F61D549AE7002EB0
:10FBB0007FF404AF2B79012B34D003D3022B43D035
:10FBC0000F240FE702232B71CDE904660DF10A0122
:10FBD000EB68039303A8FFF723FE08B90A2401E7A3
:10FBE0000498BDF80A108388EB8003882B81FFF707
:10FBF0005BFD0446002C7FF4F5AED2E774D80020FC
:10FC0000F0BE002054D8002078D800206CD9002005
:10FC100094C100205CD8002038D8002078D900207A
:10FC20006CD80020DFF808A203AA53463146A81D6D
:10FC3000FFF748FE044650B9BAF804100498FFF7DD
:10FC400033FD04460A2CD5D141F61D54CAE60822DC
:10FC5000314650460AF0A7FCF4E7002E7FF4AEAE22
:10FC60006D4BDA7B1C46AAB1DE731A78013A062A7C
:10FC7000A6D801A151F822F023FD02004FFD020099
:10FC800063FD020069FD0200C1FB02006FFD02007E
:10FC900085FD02001A78072AE7D801A151F822F061
:10FCA000C1FC02006BFC02006BFC0200EBFC0200DA
:10FCB000FFFC02001FFD02001FFD0200E7FC020026
:10FCC0001A89564D01321A8100225A80DA7314269D
:10FCD00006FB02F1A018495D0132B1FA81F1490930
:10FCE000052A8172F4D1012207E04D4958688A88BB
:10FCF0004088033202448A8002221A70B5E7474CDA
:10FD00005A884749142505FB024208685468506028
:10FD10008888108102228A800C600622EDE7072283
:10FD2000EBE700223F493D4D1446142611F8010F20
:10FD30001FFA82FC70B106FB02500C70D0F80CE088
:10FD4000BEF1000F06D1007C20B1A3F802C0FFF77E
:10FD500001FE4EE70132052AE8D100221A705A80CE
:10FD60006FE6FFF7BDFC44E7FFF75AFC41E70622C8
:10FD70001A702A4A5B88142101FB03235868FFF795
:10FD800083FC36E707221A7000225A60FFF768FCEE
:10FD90002FE701228DF80C201A89ADF818209A88D7
:10FDA000ADF81A20DB68059310E002228DF80C20D4
:10FDB0001A89ADF818209A88ADF81A20DA680592E9
:10FDC0009B7D9A1F534253418DF81C3003A8FFF7C7
:10FDD000EDFB002649461448C8F8006000F0F4FB2B
:10FDE0000121124800F0A3FC00287FF4CDADD8E635
:10FDF00003228DF80C20DA88ADF818201A89CFE795
:10FE000004228DF80C20DB88ADF81830DEE70523DE
:10FE10008DF80C30DAE700BF5CD8002078D80020DD
:10FE20006CD9002065D80020F0BE002068D90020E1
:10FE30007CD900204068FFF79FBD000008B5012174
:10FE4000044800F05EFC18B9BDE80840FFF794BD17
:10FE500008BD00BF68D900202DE9F3419846344B16
:10FE60001B7806460D46002B59D0002959D0098829
:10FE70004FF6FF73994256D06B88002B53D06B68B6
:10FE80009B0752D14AB92F890DF102013846FFF77D
:10FE90009DFB30B102B0BDE8F08113885788ADF802
:10FEA000023001A8FFF738FC044658B9BDF802300B
:10FEB000204A142101FB032358890338C01B5881B1
:10FEC0000820E7E780F8008000238375BDF8023042
:10FED00083826B6803610121174800F01DFCE0601C
:10FEE0002B8823816B88A380B8F1030F04BF042300
:10FEF000A375E78004BF3368A3610025658101A96C
:10FF00000E4800F026FB36B17560E36833600C4B99
:10FF1000B5721B893381FFF791FF0020BAE70220F9
:10FF2000B8E70520B6E70420B4E70320B2E700BF36
:10FF300054D8002078D8002070D80020F0BE0020CF
:10FF40005CD8002008B5084B1A68042A09D0196843
:10FF5000064A42F821000121184600F0DDFB00208E
:10FF600008BD0C20FCE700BF74D9002044D8002055
:10FF70002DE9F04F89B01422002103A80AF013FBE9
:10FF80006F4A1378904603F0FF0B3BB103A8FFF7CD
:10FF90000DFB0027384609B0BDE8F08F101D00F0BA
:10FFA000DEFB05460028F4D14FF010234FF08052BD
:10FFB0005B6911695269634C581C08BF02FB01F36D
:10FFC00023610022A3F5C0435F49E360204600F0AF
:10FFD000E9FD009407460028DCD11C238C225B49F4
:10FFE0005B485C4E00F056FABA464FF006093C46B4
:10FFF000009BDA680AEB020003465AF8022068B355
:020000023000CC
:1000000055498A422AD1426854498A4214D0013162
:100010008A4223D1524BBBF1000F4ED100225149ED
:1000200018600193FFF79AFB019B9B88022B14BF7A
:10003000082304231D432FE0142161437318002279
:10004000725401F110020831586032443144FFF714
:1000500085FB45F002050134A4B21DE000F5805196
:100060001A68013261D104339942F9D13C4B1A68C4
:100070002AB9022218609A804FF0010B0AE014237B
:1000800063430221F218F154374B50605C80013415
:100090001181A4B245F001050AF5805ABAF5C04FA6
:1000A000A6D1B9F1010F98BF0025EDB2022D02D003
:1000B000062D10D0CDB90B276CE714226243B1187E
:1000C0004FF0020C06F802C001341A684A60A1F829
:1000D00008C0A4B2A2E7012388F8003003A80023D7
:1000E000C8F80430FFF762FA54E702A8FFF714FBE0
:1000F000C8B10123013D03700A2D09D8DFE805F0DE
:1001000006080608070807080F110F0000230371EF
:1001100002A90F4800F01DFAFFF790FE3AE703230B
:10012000F5E70223F3E7082734E714236343F218C3
:1001300009F1FF39506003221FFA89F9F2548AE766
:1001400054D8002094C1002098FB0300DCD8002084
:10015000F0BE002078D80020DEC0ADDEFE011EF12A
:100160006CD9002070D900205CD8002073B50D46F2
:100170000446C8B1C1B10DF10601FFF751FBA8B1AA
:100180000B4BBDF806006668142202FB003001210B
:100190000C3000F0C1FA2E6063680C336B600123F1
:1001A000A372002002B070BD0520FBE70A20F9E72A
:1001B00078D8002013B50446A8B10DF10601FFF769
:1001C0002FFB90B10B4ABDF80630142101FB03232D
:1001D000DA6862B1A27A52B1DA680020013ADA60D4
:1001E000A07202B010BD0520FBE70A20F9E7062047
:1001F000F7E700BF78D8002037B50B4B1B780446D3
:100200000D4663B168B10DF106012846FFF7DEF92E
:1002100018B9BDF806302380658003B030BD0220D8
:10022000FBE70520F9E700BF54D8002010B5104BBC
:100230001B78B3B1B8B10288052A16D80D49438896
:10024000142404FB02129C1C51898C420DDAC3F564
:100250007F43FD330B4453810023038043801846C2
:1002600010BD0220FCE70520FAE70420F8E700BFF4
:1002700054D8002078D8002002230022FFF7ECBDDC
:1002800012B10223FFF7E8BD0520704718B1032320
:100290000022FFF7E1BD05207047000013B5104BA9
:1002A0001B780446ABB14FF6FF73984213D001A8F8
:1002B000FFF732FA88B10523037001230371C4806C
:1002C00001A9084800F045F9FFF7B8FD002002B089
:1002D00010BD0220FBE70420F9E70820F7E700BF84
:1002E00054D80020F0BE002007B50E4B1B78A3B1F8
:1002F00001A8FFF711FA90B10623037001A90A487B
:1003000000F027F9094B1A780AB10122DA73FFF7D6
:1003100095FD002003B05DF804FB0220FAE70820F9
:10032000F8E700BF54D80020F0BE00205CD80020C1
:1003300007B5ADF8060002A820F8041D01460DF12E
:100340000600FFF7BFFA03B05DF804FB13B502AC7B
:10035000134624F8020D0A4600202146FFF7B2FAA0
:1003600002B010BD13B502AC134624F8020D0A46C4
:1003700020460021FFF7A6FA02B010BD20B119B146
:1003800003680B6000207047052070472DE9F74F88
:100390003D4B1B780446002B71D0002871D01222EF
:1003A00000213A4E0AF0FFF80623394A238000273D
:1003B000B1464FF014084FF0010A33897189706813
:1003C0000B449BB250B10168914207D1416801F1E1
:1003D0006E6101F5FF310231012902D9218801390D
:1003E000218008FB07916088C96801446180708999
:1003F000218901442181618919446181C3F58063A8
:10040000A1899BB2994238BFA381736803F10805A3
:1004100003F5805BAB4518D92968013115D05946E1
:1004200028460192FFF786F90128019A16D022D3B7
:100430000228EFD1E18884F810A0ABEB0503E58931
:10044000013105EBA305E180E5810137052F06F1B8
:100450001406B2D1002003B0BDE8F08FE18801316D
:10046000E180E189688803310144E18169880331D1
:1004700005EB8105CEE7A1880131A180F6E70220D6
:10048000E9E70520E7E700BF54D8002078D800202E
:10049000DEC0ADDE10B561B1B2FBF3F403FB142492
:1004A000A4B244B9C0E9001484608281C3812046AB
:1004B00010BD0E20FCE70920FAE782B050E8022FB9
:1004C000C188B2EB324F4FF0000317BF92B241EA3E
:1004D000014142EA014104E04268B2EB324F08BFF9
:1004E000012340E80212002AE8D18DF807309DF878
:1004F0000730002B0CBF1120002002B0704737B529
:1005000050E8013F9DB2C48925448489A54228BF93
:100510002D1B0489A54202BFBFF32F8F002207E0E5
:10052000C5EA030540E80154002CE9D14FF001026F
:100530008DF803200193019B9DF803200B6002F0CE
:10054000FF0322B10B880068184403B030BD184681
:10055000FBE70A884B889A4209D150E8012FC2EA8A
:10056000024240E80123002BF7D101207047002010
:10057000704737B550E8023F1FFAA3F5C488A5427B
:1005800002BFBFF32F8F00220DE0C4892544848968
:10059000A54228BF2D1BC3EA054540E80254002CA4
:1005A000E8D14FF001028DF803200193019B9DF8E3
:1005B00003200B6002F0FF0322B14B88006818444F
:1005C00003B030BD1846FBE70A884B889A4209D130
:1005D00050E8022FC2EA224240E80223002BF7D162
:1005E000012070470020704701F01F024B090121D4
:1005F000914000EB830000F063B84B0910B501F0A7
:100600001F040121A14000EB830000F04EF8E04000
:1006100000F0010010BD01F01F0301229A404B09B8
:1006200000EB8300D14300F061B84B0901F01F01DA
:1006300050F82300C84000F0010070472DE9F04752
:100640004E1E760980460F460136002558F8254093
:1006500008EB850AE44394FAA4F4B4FA84F44FEA6C
:100660004519202C06D10135AE42EFD83C46204634
:10067000BDE8F0874C44A742F5D921464046FFF734
:10068000BCFF0028F3D0DAF80040E44394FAA4F465
:10069000B4FA84F4E5E750E8002F0B4640E8003C4C
:1006A0009CF0000FF7D11046704750E8002F42EA47
:1006B000010340E8003C9CF0000FF6D11046704763
:1006C00050E8003F43EA010240E8002C9CF0000F94
:1006D000F6D11046704750E8002F02EA010340E8C7
:1006E000003C9CF0000FF6D11046704750E8003FE8
:1006F00003EA010240E8002C9CF0000FF6D11046FE
:10070000704750E8002F02EB010340E8003C9CF0EA
:10071000000FF6D11046704750E8003F03EB01028E
:1007200040E8002C9CF0000FF6D11046704750E8CE
:10073000003FA3EB010240E8002C9CF0000FF6D133
:100740001046704750E8003F8B422CBF5A1A1A4699
:1007500040E8002C9CF0000FF4D1104670470121B6
:10076000FFF7A3BF0121FFF7ABBF0021FFF7B3BF26
:1007700010B590B1D0E9012301689B1ADBB20A6081
:10078000013BDBB2FF2B026802D10020107110BDCB
:1007900011684C1C14600B70F2E70E20F7E737B5B8
:1007A000054602A8002400F8014DFEF7C5FE2A68A0
:1007B000696813688B4210D9591E116013F8014CF7
:1007C000AA8AEB6802FB04342A68AB6811685B1ADA
:1007D0001179DBB2994238BF13719DF80700FEF71B
:1007E000CFFE204603B030BD37B5054602A8002332
:1007F00000F8013D0C46FEF79FFE2A681368591C5D
:100800001160E968641AA98AB4FBF1F41C709DF8C0
:100810000700FEF7B5FE03B030BD10B58268044690
:100820002AB143690168006998470023A36010BD9D
:100830000EB403B5039929B102AA04AB42F8043DF2
:1008400000F06AF802B05DF804EB03B0704782680C
:1008500030B40468551C8560A154D0E901329A4235
:1008600002D330BCFFF7D9BF30BC70472DE9F84F39
:100870009946DDE90A431746824688460A4601261C
:10088000BA420FD24E4538BF4E4613F0010B01D18C
:1008900064B900240125B9F1010F1AD909F1FF3912
:1008A0007D43F8E7B2FBF7F20136E9E79B070ED587
:1008B000B9F1000F0CBF30252025A642EAD2013C39
:1008C00029465046FFF7C3FF002CF6D1E1E720256B
:1008D000F3E7B8FBF5F39F42E2D9DFF83890B8FBB5
:1008E000F5F3504619F8031005FB1388FFF7AFFF27
:1008F000B5FBF7F5002DF2D1BBF1000F02D00CB122
:10090000A64201D3BDE8F88F20215046013CFFF7F5
:100910009EFFF4E7ABF903002DE9F74F054690463B
:100920000E46002900F03A8116F8011B002958D024
:10093000252940F0D180002702E047F00107164644
:10094000324612F8013B2D2BF7D0302B04D02B2B45
:1009500005D147F00407F2E747F00207EFE700246C
:100960002A2B06F101021BD1D8F80030191DC8F856
:1009700000101B6816461C4433782E2B1CD1013600
:100980004FF0000A314611F8012BA2F1300009287E
:1009900014D80A2303FB0A23A3F1300A0E46F1E719
:1009A00012F8013CA3F130010929E5D80A2101FB25
:1009B0000434303C1646D3E74FF0000A324612F8B2
:1009C000011B01F0FB0068281646F8D0692916D0F3
:1009D00054D8582970D00ED825297DD03378002BD3
:1009E000A2D12B7B002B00F0D980284603B0BDE8B4
:1009F000F04FFFF712BF632968D06429EED1D8F811
:100A00000020111DC8F80010D2F8009089EAE972A0
:100A1000A2EBE9724FF0010B092A61DCD34538BF24
:100A2000D3462CB1B9F1000F01DB790700D5013CA9
:100A3000BA0702D5BAF1000F04D0FB0702D4002C8C
:100A400054D10024B9F1000F58DAC9F100092D2161
:100A50002846FFF7FCFE07F00302022A05D1BAF18F
:100A6000000F02D1002C4DD10024CDE900475346A0
:100A70000A2249462846FFF7F9FEAFE7732954D00A
:100A800016D87029AAD1D8F800301A1DC8F800204D
:100A9000302128461C68FFF7DAFE78212846FFF748
:100AA000D6FE00220823CDE9003221461022E1E7DC
:100AB00075292FD0782991D1D8F800100A1DC8F8CF
:100AC0000020CDE90047534610222CE0D8F8003032
:100AD0001A1DC8F8002019782846FFF7B8FE7DE7F0
:100AE0000A230BF1010B92FBF3F295E7A345A9D280
:100AF00020212846013CFFF7AAFEA0E77807AAD5E7
:100B00002B21A5E7A345B0D230212846013CFFF7B1
:100B10009EFEA7E7D8F80010CDE900470A1DC8F8E7
:100B2000002053460A220968A4E7D8F800301A1DAD
:100B3000C8F80020F907D3F8009012D54F46A7EB6C
:100B4000090B17F8011B41B9A345BFF447AF20219A
:100B50002846013CFFF77BFEF6E72846FFF777FEC5
:100B6000EDE7B9F1000F17D0484609F079FD0746C7
:100B7000BC4200D954B909F1FF3919F8011F002905
:100B80003FF42CAF2846FFF762FEF6E72021284607
:100B9000013CFFF75CFEEBE74F46E9E703B0BDE839
:100BA000F08F000007B50B4678B9104B104A188833
:100BB0000E2300930F4B00040F4940F00100FEF795
:100BC000A3F80E2003B05DF804FB3BB9074B0B4ABA
:100BD00018880E2300930004064BEDE703601B68A2
:100BE000114603B05DF804EB184700BF74C1002044
:100BF00068FA0300BBF903006DFA0300E4FA03008E
:100C00002DE9F34178B9354B354A1888354B0E2418
:100C100000040094344940F00100FEF775F82046C6
:100C200002B0BDE8F0813AB92C4B304A18882D4B00
:100C30000E2400040094EDE7D0F800C0BCF1000FD2
:100C400007D1264B2A4A1888264B08240004009412
:100C5000E0E73BB9214B274A1888224B09240004BE
:100C60000094D7E74768D7F80480B3FBF8F708FB90
:100C700017373FB1194B204A18881A4B0924000432
:100C80000094C7E78F0707D0144B1C4A1888154BF0
:100C9000102400040094BDE712F0030F07D00F4B9F
:100CA000174A18880F4B102400040094B2E7C76855
:100CB000B9420BD34C1E05691C44AC4206D8DCF883
:100CC0000C40A44602B0BDE8F0416047034B0D4A1A
:100CD0001888044B1024000400949BE774C1002082
:100CE00068FA0300CDF903006DFA0300EAFA030085
:100CF000DEFA03009DFA0300F0FA03001AFB03007A
:100D000032FB030055FB0300F7B570B9254B264AAB
:100D10001888264B0E2400040094254940F0010059
:100D2000FDF7F2FF204603B0F0BDD0F800C0BCF1E3
:100D3000000F07D11B4B1F4A18881C4B08240004C6
:100D40000094EAE73AB9174B1B4A1888174B092455
:100D500000040094E1E74768D7F800E00EF1FF37A0
:100D60000F4207D00F4B154A1888104B102400046F
:100D70000094D2E7C768B9420CD34C1E05690EFB3C
:100D80000244AC4206D8DCF81040A44603B0BDE8EB
:100D9000F0406047034B0A4A1888044B10240004B3
:100DA0000094BAE774C1002068FA0300E0F9030078
:100DB0006DFA0300DEFA03009DFA0300F3F9030065
:100DC00019FA03002DE9F04108B10368C3B90E4ECA
:100DD0000E4B14229B1B0024B3FBF2F3374602FB9D
:100DE00003F5A54201D1002008E03B5930190BB9A9
:100DF0001434F6E7DB6998470028F9D0BDE8F081A4
:100E0000DB69BDE8F041184794C10020A8C100206B
:100E100029DF704728DF704770B50568AB6886B07A
:100E200004460E4673B114220021684609F0BBFB4C
:100E3000A36805932379019633B1012B0ED0AB68DB
:100E40006846984706B070BD01238DF800302369CD
:100E50000293E368039363690493F0E702238DF838
:100E60000030E3681B030293F5E708467047002053
:100E700070470000024B187A003018BF01207047FD
:100E800010DA0020034B187A0122B0FA80F05A746D
:100E90004009704710DA002008B510461A4609F0DC
:100EA0005EFB002008BD000008B5142200210448A4
:100EB00009F079FB0348FFF700FB002008BD00BFE5
:100EC00010DA002004BF002010B5094C094B436024
:100ED0002046FFF744FC40B905F0F4FF1C232074C2
:100EE0008C2205490548FFF7D5FA002010BD00BF48
:100EF00010DA00208CFB030084D9002004BF0020FE
:100F000070B5244D244E2B7A2C463BB923492448F6
:100F1000FFF72FFB306008B9686070BD02232372B1
:100F200033681A7972B1012A24D018460321FFF7D9
:100F300073FF00232372636018491948BDE87040AD
:100F4000FFF742BBD3E90520121AB2F5805F28BF34
:100F50004FF48052D3E903159208012A014438BFA7
:100F600001222844FFF754FF50B11128DDD101239D
:100F70002372D2E7D3E903021044FFF74BFFF3E7F4
:100F8000237C002BC9D10146BDE87040022000F04F
:100F900009B800BF10DA002028DA002024DA002087
:100FA00004BF002038B5831E012B45D8234C237A7B
:100FB000002B41D0022B09D1032830D0204B002236
:100FC0001B68E2601A793AB1012A22D0637C7BBBAC
:100FD000BDE83840FFF794BFD3E905128D1AB5F587
:100FE000805F94BF521902F580529A619142EDD10F
:100FF00002284FF0000308BF19462372104B18BF98
:101000000D211868FFF708FF0E490F48FFF7DCFABB
:10101000DCE71A6901321A615B699A42E7E7E36823
:101020000133082B01D8E360D0E70023E360DFE75A
:10103000BDE8384005F036BF38BD00BF10DA0020EB
:1010400028DA002024DA002004BF002000F0FD038D
:10105000012B08D1044B00225A74421E50425041C9
:101060001874FFF74DBF704710DA002010B5064C1A
:10107000201DFFF774FB28B9637C1BB9BDE8104045
:10108000FFF73EBF10BD00BF10DA00202DE9F3418D
:1010900080460D460F4801A916461F46FFF72FFA56
:1010A0000446A8B11C22002109F07DFA2D0B012372
:1010B000237101A9C4F80080A760E5606661054856
:1010C000FFF747FAFFF7D2FF002002B0BDE8F0813A
:1010D0000420FAE704BF00202DE9F7438146884643
:1010E000104801A917461E46FFF709FA0446B0B199
:1010F0001C22002109F057FA00250A9BA36001A9D0
:101100002571C4F80090C4E9037866610548FFF7CB
:1011100020FAFFF7ABFF284603B0BDE8F0830420B8
:10112000FAE700BF04BF0020FFF722BBF8B54679FD
:101130000146721E0546002393422D6803D3002406
:10114000A64202D8F8BD0133F6E70F682846FFF73C
:101150004BFB01343946F3E72DE9F843CD1C868A71
:101160000746FFF71CFB043E35440446B5FBF6F585
:10117000F0B14FF48073EDB28380C680013D07600B
:1011800081464FF00008A84512D23846FFF707FB0A
:10119000064648B163790133637108F10108C9F863
:1011A000000007608146EEE72046FFF7BFFF3446A8
:1011B0002046BDE8F88301210430FFF7ADBA10B531
:1011C000012104460430FFF7B2FA10F0FF0F04D1FA
:1011D0002046BDE81040FFF7A9BF10BD2DE9F84338
:1011E000C7880546181D8846B0FBF7F4164607FB6E
:1011F00014003CB9A7EB0009B14528BFB14626B998
:10120000BDE8F8832D68013CF3E70430A6EB09063E
:101210004A4608EB0401284409F0A1F9B7424C44BE
:101220002D68B9464FF0000028BFB146E7E72DE929
:10123000F843C7888846191D0546B1FBF7F41646E2
:1012400007FB14113CB9A7EB0109B14528BFB14612
:1012500026B9BDE8F8832D68013CF3E70431294441
:10126000A6EB09064A4608EB040009F078F9B742F4
:101270004C442D68B9464FF0000128BFB146E7E75E
:1012800041DF7047064B10B500241C70054B1C60F5
:10129000BFF35F8F0449054800F030F8204610BDC9
:1012A00034DA002038DA0020C8FB03002CDA0020F2
:1012B00007B502A8002300F8013DFEF73DF9F1EE65
:1012C000103A23F09F03E1EE103ABFF35F8F0A4B11
:1012D0004022C3F884219DF80700FEF751F905F07C
:1012E000F1FD20B1FFF7CCFF03B05DF804FB20BF98
:1012F00040BF20BFF8E700BF00E100E001600B68DD
:1013000043604A68934204BF0023436070474368C8
:1013100043B1026891680B4443605268934204BF32
:1013200000234360704700000D4930B5A1F5947269
:101330000225914201D800200EE08B1ADB1093FBAE
:10134000F5F302EBC30452F83330834205D802D2DE
:1013500004F10802EDE7606830BD2146E9E700BF0F
:1013600018FD030008B5FFF7DFFF024B002808BF98
:10137000184608BDDDFB030042DF704743DF7047BE
:1013800038B5084C04F108030546002818BF1C4670
:1013900023682BB11A6822605B6828469847F7E7F4
:1013A00038BD00BF44DA002020B9054B01225A7035
:1013B000FFF7E6BF012802D1014A9070F8E77047B5
:1013C0003CDA002020B9034B01225A70FFF7D8BF46
:1013D000704700BF3CDA002038B50B4C237883B946
:1013E0000A486360A3602361E36000F081FA054668
:1013F00005F068FD08B900F089FA0123237028463A
:1014000038BD8525FBE700BF3CDA0020A9130300A7
:1014100037B502A80023094C00F8013DFEF78CF80F
:10142000E368013BE360E56815B900F087FAA57051
:101430009DF80700FEF7A4F803B030BD3CDA0020A9
:10144000012813B509D003D303281BD002B010BD67
:101450000F4B0122C3F88020F8E702A800230D4CAF
:1014600000F8013DFEF768F823780BB9FFF7B4FFE9
:10147000E3689DF807000133E3600123A370FEF7E2
:101480007FF8E3E700F042FAFFF7C2FFDEE700BFB4
:1014900000E100E03CDA002037B51B4C63780546DC
:1014A00003F0FF029BB110B143680020984700236E
:1014B0000DF107008DF80730FEF73EF863689DF8E0
:1014C000070001336360FEF75BF803B030BD0DF138
:1014D00007008DF80720FEF72FF825B1A268134604
:1014E00053B92A60A5606368002BE7D105F0EAFCD8
:1014F00030B1FFF741FFE1E79D42F4D01B68EFE711
:1015000000F028FADAE700BF3CDA002073B502A841
:1015100000230D4C00F8013DFEF70EF86368013B17
:101520006360666836B905F0CDFC054640B1FFF74B
:1015300025FF66709DF80700FEF722F802B070BD27
:1015400000F014FA6570F5E73CDA002036DF7047EA
:101550004DDF70474EDF70474FDF704750DF7047F9
:1015600008B50346FFF7F6FF40B91846FFF7F0FF4E
:1015700020B91846BDE80840FFF7EEBF08BD0128B6
:1015800010B5044602D100F03BFA804700F03EFA65
:10159000034668B10A2C07D00B2C07D0092C07D1C1
:1015A0000220BDE8104018470020FAE70120F8E7C4
:1015B00010BD0000012813B5044603D0032819D03C
:1015C00002B010BD02A8002300F8013DFDF7B4FFF2
:1015D00000F016FA10B12046FFF7B8FF9DF807009B
:1015E000FDF7CEFF00F012FA0028E9D00120FFF746
:1015F000B7FFE5E70D4BE02283F800230122C3F893
:1016000080211A6000F0FCF920B14FF080430422E1
:10161000C3F8042300F0FAF90028D1D04FF080433A
:101620004FF46072C3F80423CAE700BF00E100E092
:1016300010B5044605F046FC50B90648002C18BF0A
:10164000204600F0E9F910B9034B01221A7010BDD1
:101650000820FCE7D800040050DA002013B502A8E7
:10166000002400F8014DFDF767FF05F02BFC50B199
:101670002046FFF775FF9DF80700FDF781FF00F09A
:1016800007FA02B010BD00F0FCF9F4E713B5044608
:10169000FFF7E4FF204600F0E3F905F013FC0446F1
:1016A000A0B10120FFF75CFF044660B901A8FFF775
:1016B00055FF044638B9019BDB0704D500F0A6F9B5
:1016C000034620469847204602B010BD00F0D2F9EC
:1016D000F9E700F1804000F5C040002382B00360CC
:1016E00003680193019B02B07047000003681F2B41
:1016F00083BF03F01F03036001484FF0A040704711
:101700000003005007B502AB43F8040D1846FFF77D
:10171000EDFF019B00EB8300D0F8003723F440334A
:10172000C0F80037D0F8003743EA0141C0F800178D
:1017300003B05DF804FB00002DE9F04F002489B0F0
:10174000CDE902445F4A604E604D01211368A2F565
:10175000C040012B80B206D1D6F804330B4202D030
:10176000FFF7B7FF0C430432AA424FEA4101EDD123
:10177000574B1B68012B0ED14FF4BE70FFF7A9FF2A
:101780004FF0A04344F00044D3F810350293514B7E
:10179000D3F81035039314F0FF0F1AD04E4F0025E5
:1017A0000126344210D0AB0003F1804303F5C0435F
:1017B000D3F81005D3F8101557F82530C0F30520DD
:1017C000C1F3014103B198470135082D4FEA4606A0
:1017D000E7D1002C72DA04AE0023049373604FF05B
:1017E000FF33CDE906333C4F4FF0010800252C466E
:1017F0007B1993F96020531C47D0D2B222F0C00964
:1018000008A84FEAD90300EB030B02F007011BF80D
:10181000080C08FA01F1084237D007EB09009209D9
:1018200090F9300057F820A0BAF1000F05D1032A33
:101830002BD1F05C0843F05401E0032AF9D001A851
:10184000CDF80490FFF752FF019B03F5E07350F8C9
:1018500023301BF8180C0842C3F3014305D0022BB8
:1018600013D1032A0BD1114604E0032B0DD1032A17
:1018700005D102214846FFF745FF0134E4B2BAF131
:10188000000F02D011464846D0470135042DAFD194
:10189000A4B14FF0A0430299D3F8102503F540738B
:1018A0009142D3F8103502D10399994206D00292A1
:1018B0000393049A059B0692079397E709B0BDE846
:1018C000F08F00BF006100400060004020610040D8
:1018D0007C6100400003005054DA002000F1804099
:1018E000002382B0036003680193019B02B070473C
:1018F000054A13792BB901211060117153711846F3
:1019000070478520704700BFC0DA0020094B1A6875
:10191000D20706D4E02283F800230122C3F88021F5
:101920001A604FF080420123C2F81835024A137042
:10193000704700BF00E100E0D8E50020044B012221
:101940001A604FF08042D2F81834DB03FBD47047A2
:101950000C00004008B54FF48070FFF7BFFF4FF058
:1019600080430122C3F804231A6008BD074B0122FB
:101970001A604FF08042D2F80C3403F00113B3F137
:10198000011FF8D0024B00225A717047040000403A
:10199000C0DA002010B5124B1B6873B14FF4807091
:1019A000FFF79CFF4FF080430122C3F808230D4B43
:1019B000587910B95A711B6898470B4B1B6873B163
:1019C0004FF48270FFF78AFF4FF080430222C3F882
:1019D0000823044B01201B68BDE81040184710BDC8
:1019E00000010040C0DA00200401004000F1804303
:1019F0001A68002A1BBF0022012000201A607047CD
:101A0000014B1868704700BFC8DA0020014B186806
:101A1000704700BFD0DA00200F4B1A78D2B9027895
:101A20004FF08041C2F34002C1F88025027802F0F5
:101A30000102C1F87825094A1168C90706D4E021D6
:101A400082F800130121C2F88011116001221A707E
:101A50000020704785207047D9E5002000E100E0B4
:101A6000034B00221A60026802B11A60704700BF7F
:101A7000D0DA00204FF080434FF46072C3F80423A3
:101A800070474FF080434FF46072C3F808237047EB
:101A9000014B00221A607047D0DA002010B54FF0D9
:101AA0008043D3F80443620707D54FF48470FFF7EF
:101AB0009DFF10B11E4B1B689847A30608D54FF435
:101AC0008A70FFF793FF18B11A4B00201B689847E4
:101AD000600608D54FF48C70FFF788FF18B1154BDE
:101AE00001201B689847210608D54FF48E70FFF738
:101AF0007DFF18B1104B00201B689847E20508D500
:101B00004FF49070FFF772FF18B10B4B01201B6868
:101B10009847A3050AD54FF49270FFF767FF28B1E5
:101B2000054B02201B68BDE81040184710BD00BFE0
:101B3000C8DA0020CCDA0020D0DA002008B5FFF7A0
:101B4000ADFFBDE80840FFF725BF0000014B1B6853
:101B5000184700BFD4DA00200D4B984237B50D4628
:101B600010D102A8002300F8013DFDF7E5FC094B68
:101B70001C7914B901221D601A719DF80700FDF748
:101B8000FFFC14B9002003B030BD1120FBE700BFFB
:101B900000200040D4DA002000F1804000F5E04051
:101BA000002382B0036003680193019B02B0704779
:101BB000F0B5514B514C1B6885B0DBB14FF48270CE
:101BC00094F82E20FFF7E8FF12B194F82F30A3B15C
:101BD000636802932389ADF80C30E36800218DF827
:101BE0000410002B44D12374236801A898470023D4
:101BF00084F82F3094F82E3003B3414B1B68EBB1BF
:101C00004FF48070FFF7C8FF94F82D20638B91B2DA
:101C10008B4238D95B1A21899BB26383CB1A6168E6
:101C200001EB4301374BC3F82C16C3F830264FF4B1
:101C30008270FFF7B1FF344B01221A60334B1B68EF
:101C40005BB14FF48870FFF7A7FF002304A823744B
:101C5000022300F80C3D236898472D4B1B6813B3F3
:101C60004FF48A70FFF798FF0023237405B0F0BD8E
:101C7000208B608363602081E160002AB4D1214B16
:101C800001221A60B0E7D2D1E368012184F82F1055
:101C90003BB1002161831B49C1F82C36C1F83026C5
:101CA000C5E76383C3E766694FF000470125002E4F
:101CB000DCD0B6FA86F227FA02F34632920026EA20
:101CC000030602F1804303F5E0431B68002BEED0CE
:101CD0001046FFF761FFA2F58C72D30882F0040270
:101CE000C2F380028DF808308DF804508DF8092079
:101CF000236801A89847DAE704710040DCDA002085
:101D000000710040007000400470004010710040FD
:101D10001471004038B51E4A92F82C300546ABBB12
:101D200011601C490078C1F8F0056878C1F8F40525
:101D3000E878137482F82D30536182F82F30012433
:101D40006FF0004382F82E0082F82C404FF482702E
:101D5000C1F80833FFF720FF4FF48070FFF71CFF36
:101D6000AB780D485B01DBB280F807338023C0F805
:101D7000803103600223C1F8043392F82E300BB196
:101D8000C1F80443C1F80045002038BD0820FCE735
:101D9000DCDA00200070004000E100E010B5294BC3
:101DA0001A7C002A4BD100F10C0403EB4402127997
:101DB00022B993F82D20013283F82D2003EB440340
:101DC000CA791A710A7A5A714B788A781B01120201
:101DD00002F4E06203F0300313430A7802F00302D6
:101DE0001343CA78120302F4805213430A7912048F
:101DF00002F4E02213434A79120502F480121343DD
:101E00008A79120602F080721343020102F18042C5
:101E100002F5E042000100F18040C2F8183500F5FB
:101E2000E040CB790A7AC0F81425C0F81035CB7998
:101E30000A7AC0F81425C0F81035002010BD112012
:101E4000FCE700BFDCDA002070B5264A264B0546C9
:101E50001220C2F808031C7C022C03D1C2F8040330
:101E6000112070BD187C01281DD1D86818B102233B
:101E7000C2F80433F4E7DD60198393F82E3063B9B8
:101E80001A4A1368002BFCD04FF48070FFF784FED1
:101E9000144BC3F82C56C3F83016124B0222C3F869
:101EA00004230020DDE70220C2F8040393F82E404B
:101EB0005D60012600201E74D86019813CB15983F1
:101EC00093F82D30C2F82C56C2F83036C9E7C2F864
:101ED0002C564FF48070C2F83016FFF75DFE204696
:101EE0001660BEE700700040DCDA002000710040A0
:101EF000084A137CDBB2012B09D192F82E0018B1ED
:101F0000054A002013607047044A13607047082098
:101F1000704700BFDCDA0020007000400470004011
:101F20001F2886BF00F01F00044A4FF0A042012383
:101F300003FA00F0C2F80805704700BF0003005024
:101F40001F2886BF00F01F00044A4FF0A042012363
:101F500003FA00F0C2F80C05704700BF0003005000
:101F600007B5114BD3F81831D3B1104B10490022EB
:101F70001A60C87F1B680193FF28019B03D08B7FE9
:101F80005BB1FFF7DDFF00234B770B72D1E9003126
:101F9000084803B05DF804EB1847FFF7C1FFF2E70C
:101FA00003B05DF804FB00BF00300240183102406E
:101FB0000CDB002014DB00200023435082B0435888
:101FC0000193019B02B07047F0B54C4A4C4CD2F8DB
:101FD000243187B01546A3B14FF492711046FFF734
:101FE000EBFFD2F8043163B9A368C2F808330223C7
:101FF000A360A368C2F8043301231362536107B0DE
:10200000F0BDD5F80431002B49D03E4F3B484FF48A
:102010008271FFF7D1FF0FCF01AE0FC63B6833606F
:1020200094F82E307BB1237B012B0CBFD5F83C25D7
:10203000D5F84C250292022B304B0CBFD3F83C351F
:10204000D3F84C3503934FF4B0712C48FFF7B4FF2D
:102050004FF4AE712948FFF7AFFF94F8303013B159
:1020600094F82E303BB1254B0022C3F80022A26029
:10207000254AC3F80823214AD2F8C434C2F8C4342C
:102080009A0736D501238DF8003094F830300BB91B
:1020900084F82F30D4E9003168469847AFE74FF411
:1020A000A4711648FFF788FF237B83B9154F0FCF24
:1020B00001AE0FC63B68336094F83030002BDAD1A4
:1020C000C5F80032A360104BC5F80833D3E74FF4CE
:1020D0000073C5F8003240F20223A36003F1CE730F
:1020E000C5F80833A368C5F804330123AB602B623D
:1020F00085E713F0040318BF0223C4E70030004053
:1021000030DB00203CDB002002029C012DE9F84F6F
:1021100006793E4D4FF0340A0AFB06FA05EB0A0930
:102120009B4699F82D3007460C469046002B68D107
:1021300037490068FFF710FD002864D145F80A8090
:10214000C9F80800C9F804B089F82F0089F83000F0
:10215000637B89F8323023681F2B86BF03F01F038F
:102160002C494FF0A04103F5E07340F20C6241F8B6
:10217000232063681F2B86BF03F01F0325494FF000
:10218000A04103F5E07341F82320D4E900213B6826
:10219000C3F80825C3F80C15A268C3F82425B8F1C4
:1021A000000F26D03968227B090B4BB2002BAEBF43
:1021B00003F1604301F00F01174B4FEA4212D2B214
:1021C000AABF03F561435A5483F800233B681B0BF5
:1021D00003F01F0143F3C40323F0604323F0030320
:1021E00003F1604303F5614301228A40C3F8802173
:1021F0001A60342303FB0655012385F82D30BDE812
:10220000F88F0820FBE71120F9E700BF30DB002042
:10221000C91F03000003005014ED00E002680379B9
:102220000621C2F80015044A342101FB03230222CF
:1022300083F82D20704700BF30DB00202DE9F843E4
:10224000CB6803F06043B3F1005F0D46904603D0C6
:1022500010221046BDE8F8830779944E0468944B29
:10226000C4F808334FF0340C0CFB076C9CF82F308B
:102270002BB1DCF80830C4F804331122E9E712F07E
:10228000140F0CBF012300238CF82F308946B9E8C6
:102290000F000CF10C0EAEE80F00D9F80030CEF8AC
:1022A0000030C8F300138CF830306B78C4F88835F0
:1022B0004FF482712046FFF77FFE4FF49271FFF7D3
:1022C0007BFE18F0010318BF0123C4F8503518F045
:1022D000020318BF0123C4F840352B78032B00F20A
:1022E000C380DFE803F083AB67022B6903F0604330
:1022F000B3F1005FACD14FF48073C4F800326B6867
:10230000EA68C4F844254FF4A871C4F84835FFF7CB
:1023100053FE4FF4B071FFF74FFE4FF4A471FFF777
:102320004BFE01232362A360D4F85031002BFBD075
:102330004FF4A8712046FFF73FFEAB682A69C4F846
:102340004425C4F848355B4A342303FB07639A608D
:102350004FF482730821002218F0080F04D1287866
:1023600003281CBF01206050342179437018715834
:1023700000297ED1012523441968002900F08680B8
:102380003421D4F8C434C4F8C43401FB07660021F6
:1023900086F82F10002B3FF45CAF13F0020F48F2C9
:1023A000012208BF032213F0040F48F2022318BFD2
:1023B0001A464EE76B68EA68C4F84425C4F8483505
:1023C0002B6903F06042B2F1005F7FF441AFAA686D
:1023D000C4F834354FF48453C4F83825C4F80032B7
:1023E000342303FB076340F20222B0E76B68EA681C
:1023F000C4F8442518F0200FC4F848354FF03403D2
:1024000010D003FB07634FF48072C4F80022294AFE
:102410009A604FF4A471FFF7CFFD4FF4A47301222B
:10242000226297E74FF4007203FB0763C4F80022AF
:1024300040F202229A604FF48273F0E76B68EA6818
:10244000C4F83425C4F838354FF48053C4F800324A
:10245000342303FB076340F202229A6001232362C4
:1024600000214FF4827376E74FF48273082107222C
:1024700072E718F0040F1CBF4FF40073836034231D
:1024800003FB0766B368C4F80433E2E6D4F824110A
:1024900000293FF471AF4FF492712046FFF78CFD95
:1024A00025624FF48273656165E700BF30DB002071
:1024B00002029C0100020400F0B587B004460F46FA
:1024C00015460021142201A81E4608F06CF89DF85C
:1024D00030308DF80570002B14BF2022002201A996
:1024E000204602960495FFF7A9FE07B0F0BD002331
:1024F000435082B043580193019B02B070470000E3
:10250000024B1B6803B11847704700BF64DB002013
:1025100007B5084B8DF800005A68002908BF4FF432
:1025200080710191114359606846FFF7E9FF03B0DC
:102530005DF804FB64DB002010B500F14023024687
:102540001B68002B14BF0124002404D001464FF067
:102550004020FFF7CCFFA2F58070800804FA00F05D
:1025600010BD00002DE9F3414F4E504F757ADFF852
:1025700044814FF48270FFF7DFFF04464FF49270FE
:10258000FFF7DAFF04434FF4A670FFF7D5FF0443CB
:102590004FF4A870FFF7D0FF04434FF4B270FFF779
:1025A000CBFF04434FF4B470FFF7C6FFEDB2044312
:1025B000002C39D0042D5BD8DFE805F0033A495CE4
:1025C0006B0014F0020302D024F00204F0E714F0D0
:1025D000806210D0E00258BF01258DF8003046BF60
:1025E0008DF8043002258DF804506846FFF788FF07
:1025F00024F0C364DCE7A1010DD523034FF00305EC
:1026000058BF01238DF8005046BF8DF804200425E3
:102610008DF80430E9E74FF040230620D3F8D014BA
:10262000C3F8D014FFF774FF757202B0BDE8F081F3
:102630001F4D254003D024F480140225B8E74FF045
:102640004023D3F8D014C3F8D0140220EAE714EAE8
:1026500007054FF04023F4D001228DF80020D3F875
:102660004C35DBB268460193FFF74AFF24F00204C1
:1026700000259DE714EA080503D024F4002404256E
:1026800096E74FF04023D3F8D014C3F8D0140520B8
:10269000C8E714EA07054FF04023F4D004228DF870
:1026A0000020D3F83C35DCE764DB002002000006A4
:1026B00002001006020008060023435082B043586F
:1026C0000193019B02B0704738B51D4602230B7180
:1026D0000B684A7104467BB112F0040F14BF9221BB
:1026E0008221100748BF41F02001D306236848BF6C
:1026F00021F08001C3F8001320684FF48271FFF7C6
:10270000DBFF206812F0800F05BF01234351401901
:10271000002038BD2DE9F04F90F804805C4D4FEA61
:10272000C806AB190F461B7985B0044603F0FF01BC
:10273000002B40F0AB80DFF860C145F838204FF047
:10274000FF390A464FF0030A4FF0010EB95CFF292A
:1027500000F0998021F0800308064DF8223040F106
:1027600085801F2B87BF01F01F00E34618464FF0FE
:10277000A04B0EFA00F0CBF808051F2B8ABF01F022
:102780001F034FF0A041614603F5E07341F823A019
:102790000132042ADAD12368009AC3F86025019A2D
:1027A000C3F86425029AC3F86825039AC3F86C2518
:1027B00023680122C3F800252368B9793A8978791A
:1027C000C3F80C05C3F80415C3F8082523687A89F3
:1027D000C3F8102522680023C2F800322268C2F82C
:1027E00000334FF48E712068FFF766FF4FF4887155
:1027F0002068FFF761FF4FF48A712068FFF75CFFE4
:102800004FF482712068FFF757FF55F8383033B323
:1028100021683A79090B4BB2002BAEBF03F160433C
:1028200001F00F011B4B4FEA4212D2B2AABF03F5CF
:1028300061435A5483F8002323681B0B03F01F01E4
:1028400043F3C40323F0604323F0030303F1604325
:1028500003F5614301228A40C3F880211A603544A0
:1028600001232B71002005B0BDE8F08F1F2B87BF1F
:1028700001F01F00E34618464FF0A04B0EFA00F09F
:10288000CBF80C0579E74DF8229081E70820EAE7BC
:1028900070DB002014ED00E00003005070B40C4623
:1028A0001D461D490379266801EBC3010368C3F87F
:1028B0002065A688C3F82465A668C3F82865E6687D
:1028C000C3F82C6503682668C3F84065A688C3F87A
:1028D0004465A668C3F84865E468C3F84C450368D6
:1028E00002F0010404EB5202C3F81425EB0711D4E3
:1028F00015F0020303D0002C14BF08230423026840
:10290000002CC2F80032EAB214BF0C23082370BCBA
:10291000FFF7DABE1023F2E770DB002010B5214884
:10292000D0F810315BB14FF48871FFF7C5FE1E4B34
:102930005A79510703D51B680BB1012098471948F4
:10294000D0F814315BB14FF48A71FFF7B5FE164B26
:102950005A79120703D51B680BB10220984711481A
:10296000D0F81C315BB14FF48E71FFF7A5FE0E4B12
:10297000587910F0100002D11B6803B1984709483C
:10298000D0F8043163B14FF48271FFF795FE064B26
:1029900001221A711B681BB10320BDE810401847C3
:1029A00010BD00BF00C0014070DB00206DDF70472C
:1029B00079DF70477DDF704764DF70472DE9F74F9F
:1029C0000C9CBDF834B02788002580468A46914685
:1029D0002E46B8F80020B2420BDC35B12288013A0D
:1029E000D21B92B2FF2A39D8DA55002003B0BDE8D5
:1029F000F08FD8F8042052F82600019000220DF143
:102A0000030101A8FFF7D8FF0028EFD19DF80320AC
:102A10004A4521D12288002D14BF0020022002EB5C
:102A200009010144594519DC3DB9013292B22280B5
:102A300003F802A022880132228022880DF10301CE
:102A40001A4401A8FFF7B8FF0028CFD121889DF8CC
:102A500003200A44228001250136BAE70C20C5E78D
:102A60002DE9F341089CBDF824501746CDE90045F7
:102A700002220646FFF7A2FF48B910223946304627
:102A8000CDE9084502B0BDE8F041FFF797BF02B0BD
:102A9000BDE8F0812DE9F04F00231688138090F8EF
:102AA0002D3085B007460D46144653B3082E01D885
:102AB0000C2004E102A8FFF779FF002840F0FF8016
:102AC00013880822CA54238801339BB21B22238017
:102AD000CA542088013080B2208006220DF10901FD
:102AE000284407F03CFD23889DF8082006339BB25C
:102AF00012F0FE0218BF01222380EA54238801331A
:102B00002380BB78FBB123880433B342D0D802A81A
:102B1000FFF74EFF002840F0D28023880322EA54BA
:102B2000238801339BB219222380EA542388BDF8FD
:102B3000082001339BB2E9182380EA54120A4A7034
:102B4000238802332380FA789AB12388D91CB142B2
:102B5000AED80221E954238801339BB2012123809E
:102B6000E95423880B449BB22380EA5423880B4406
:102B700023807A68AAB12388D91CB14298D802214F
:102B800092F90020E954238801339BB20A21238063
:102B9000E954238801339BB22380EA54238801330C
:102BA00023803B89002B7ED13B8A53B1CDE900467F
:102BB0002B460722032107F11000FFF751FF0028E1
:102BC0007DD13B8B53B1CDE900462B461522142114
:102BD00007F11800FFF744FF002870D13A6A002A75
:102BE00070D1D7F82480B8F1000F30D0B8F8043095
:102BF0002188981C8A1C0244B2423FF659AFFE2835
:102C00003FF656AF03336B54238801339BB2FF2248
:102C10002380EA54238801339BB22380B8F8002034
:102C2000EA54E918120A4A702088023080B22080E3
:102C3000B8F804205AB1D8F8081000294CD028441C
:102C400007F08DFC2388B8F804201344238097F8FC
:102C50002C30002B7BD1387888B33B88012B3BD0BC
:102C600021888A1CB2423FF623AF012805D17B7828
:102C700002330B449E42FFF41BAF023E761A04A9B6
:102C8000B6B221F8086DA818FFF794FEB8B93B78E2
:102C9000022B40F09F80BDF80830B34240F2B6806E
:102CA000ADF808609FE0CDE900462B4606220221E0
:102CB00007F10800FFF7D4FE00283FF475AF05B018
:102CC000BDE8F08FB4F800C00CF10603B3423FF644
:102CD000EFAE1188052901D80720F0E76FF4486EA0
:102CE00001EB0E039BB24FF27D3E7345F4D953883E
:102CF000052BF1D96FF44860181880B27045EBD9F4
:102D00004FF6FF70814203D0834201D09942E3D84D
:102D1000052305F80C30238801339BB21221238050
:102D2000E954238801339BB223801188E954E818C1
:102D3000090A4170238802339BB223805288EA54E7
:102D4000E918120A4A7023880233238049E7BB6AD4
:102D5000002BC1D04FF000094FF00C0A4FF0160BBA
:102D600097F82C305FFA89F293427FF674AFB96A14
:102D70000AFB02F201EB0208B8F80430981CFE28A6
:102D80003FF696AE208803332B54238801339BB241
:102D9000238005F803B0238801339BB223808A5A2D
:102DA000EA54E918120A4A702088023080B2208062
:102DB000B8F804205AB1D8F8081000298CD028445B
:102DC00007F0CDFB2388B8F804201344238009F1D1
:102DD0000109C5E7012B7FF463AF7B789E42FFF4C6
:102DE0005FAFADF808300821BDF80830FE2B3FF684
:102DF0005FAE22880133AB542288013292B2228026
:102E0000A954228813442380002058E70921EBE7C6
:102E100070B5C0B14AB116880024B44203D3051975
:102E20006D789D4208D0A14201D800200BE0055DDD
:102E300001352C44A4B2F0E7A142F6D9A31C1380BB
:102E4000005D013880B270BD37B502AC002324F8B4
:102E5000023D134622460546FFF7DAFF10B1BDF8E2
:102E60000600284403B030BD72DF704773DF70473F
:102E700038B5012204460D46B0F89810D0F89400F9
:102E8000FFF7E2FF00B1057004F13C0204F1940188
:102E900004F15400BDE83840FFF7E6BF80F8301079
:102EA0007047F8B504460F46002960D000285ED070
:102EB00091F87A301BB191F89830002B59D14FF02E
:102EC000000C84F802C007F178060FCE251D0FC54F
:102ED0000FCE0FC596E8070085E8070084F830C0DC
:102EE000D7F8A4306363D7F8A830A3634FF6FF7513
:102EF00004F19403C4F8A430A4F8A8500722614652
:102F000004F1AA0007F04FFB23780BB984F8545062
:102F1000224604F155011F25C4F89410384622F8C2
:102F2000985FFFF7B7FD08BB224604F17401C4F8AF
:102F30009C1007F13C0022F8A05FFFF7ABFDA8B999
:102F4000A269A4F8482001236269206484F8500033
:102F50006264014684F8513084F83C3004F13C024C
:102F600004F15400FFF780FF00B92370F8BD0E2074
:102F7000FCE70720FAE7F8B5077804460D46002F6E
:102F800000F01181A1700020FDF71CFF014618B16F
:102F9000012363700020F8BD04F1AA060722304621
:102FA00007F001FBE38813B1A378012B04D0E37988
:102FB0004BB1A378022B06D1636B9BB1012284F83D
:102FC000B12008209847324604F1B00112F8013FC1
:102FD0005BB99142FAD16A1E032A52D8DFE802F0A7
:102FE000070D111484F8B130EDE73B46F3E7A27901
:102FF0001AB194F8242002B95BB9E2790AB1002B26
:1030000041D1237A002B40D1637A002B0CBF0025DD
:103010000425636BA570002B39D0033D012D36D8F4
:103020006279A2B394F8B2208ABB84F8B42001225A
:1030300084F8B3200720984704F13C0518220021AA
:10304000284607F0B0FAE36A0122591E914284F83B
:103050003C2020D9042B1ED084F85120002794F85E
:1030600024201AB1D7B1A36A84F85230A178002382
:1030700084F85030042920D8DFE801F07F122A3D7F
:1030800061000025C5E70225C3E70325C1E700234A
:1030900084F8B330D0E784F85130E0E70123E3E768
:1030A000C4F8A430C4E910630223012284F83C3040
:1030B000802384F83120A4F84830A378002B5FD116
:1030C000636B002B3FF466AF94F83100984761E7DB
:1030D000022384F8313062B1072384F83C3023693D
:1030E000A4F848300023C4F8A430E368266463647D
:1030F000E3E70323F1E763696364A369A4F8483055
:1031000012B1062384F83C306379B3B194F8B2303D
:103110009BB994F8B43083B1022384F85030042171
:103120002046FFF7A5FE0028C7D1052384F83130DB
:1031300004F19403C4F8A430BFE70323F6E7E3697E
:103140006364236AA4F8483012B1062384F83C3043
:10315000637983B194F8B2306BB994F8B43053B159
:10316000022384F8503004212046FFF781FE002816
:10317000A3D10623DAE70423D8E784F831309CE7AB
:103180002A46D4F8A41004F15400FFF76DFE00287D
:103190007FF401AF94F8301094F85400FFF766FE06
:1031A00000288DD0F7E60820F5E610B50388112B2E
:1031B0000C460AD0262B1FD0102B05D1C37B012B28
:1031C00002D18388A1F8A83010BD002381F8B23065
:1031D0008288B1F8A8309A42F6D10B79002BF3D14E
:1031E00001212046FFF7C7FE0028EDD0A36B002B7E
:1031F000EAD0BDE810401847037A013B012BE3D821
:1032000089780523013191FBF3F303EB8303C91A9A
:10321000C9B2E6E70238012810B50C460DD84B7844
:103220005BB100234B7020468978FFF7A4FE20B1E4
:10323000A36B13B1BDE81040184710BD10B590F84E
:10324000B13043B1002480F8B1400722AA3007F022
:1032500086F9204610BD0820FCE790F8B3306BB12A
:10326000002380F8B3303AB9009B003318BF012324
:1032700080F8B430002070470123F9E70820704738
:1032800030B50D46041D0FCD0FC40FCD0FC495E80A
:10329000070084E8070030BDF7B5174601900E46D9
:1032A00091B1019C6CB100252C46294601A8FDF77F
:1032B000BCF918B13946A8B2B04701340135142D14
:1032C000F3D1204603B0F0BD0C46FAE773B5019187
:1032D000019C06466CB100252C46294601A8FDF745
:1032E000A4F918B106EB440301349D800135142D77
:1032F000F3D13046346002B070BD00002DE9F043D8
:1033000003888488112B8DB0064640D01A2B43D0F9
:10331000102B16D1294DAB680CA8DB4340F8303D8B
:1033200055F8041FFDF7E2F9009901A8FFF7CEFF59
:103330000027019B9F4207D3132C18D90420FBF7C9
:103340004BFE0DB0BDE8F08301AB03EB47034FF03C
:103350000008B3F8049005EB0800494608F104089A
:10336000FDF759F9B8F1740FF5D10137E1E72146BE
:103370001348FDF739F921461248FDF735F9F37B7B
:10338000012BDED010482146FDF72EF9D9E70C4875
:103390002146FDF740F9D4E7057A0C482D09012DA7
:1033A000214606D9FDF720F9022D21460848F0D024
:1033B000EAE7FDF730F921460548EAE778DB002027
:1033C00080DB00207CDB002084DB002088DB002009
:1033D0008CDB00201328014602D80248FDF725B9EE
:1033E000002070477CDB002010B50446FFF7F2FF99
:1033F00038B121460348FDF718F9002814BF022010
:10340000012010BD84DB002010B50446FFF7E2FF69
:1034100038B121460348FDF708F9002814BF0220FF
:10342000012010BD80DB002010B50446FFF7D2FF5D
:1034300028B121460248BDE81040FDF7F6B810BD9E
:1034400088DB002010B5034B04465968FFF73EFFA8
:10345000204610BD78DB002010B50446FFF7BAFF08
:10346000002814BF2046142010BD000008B5182104
:103470000248FDF7E3F8C0B208BD00BF78DB0020CA
:1034800070B50A4D064628460C46FDF7CEF858B1F1
:103490003046FFF79FFF38B1A01D314605EB800095
:1034A000BDE87040FDF7C1B8002070BD78DB00209A
:1034B000F8B50D4C054620460E461746FDF7B5F803
:1034C00080B12846FFF786FF60B1B01D04EB800095
:1034D00029461FB1BDE8F840FDF786B8BDE8F840C1
:1034E000FDF799B8F8BD00BF78DB0020F8B50A4CAD
:1034F00005460E46014620461746FDF796F848B1A8
:10350000043504EB85043A46A0683146BDE8F8402E
:10351000FFF7C2BEF8BD00BF78DB002070B50546DE
:1035200016460AB90E2070BD002313600028F9D09A
:103530000368002BF6D0C38813F003040FD10846AC
:10354000FFF78AFFC0B214280BD02B7983420AD927
:10355000EB882A6800FB032030602046E3E7072061
:10356000E1E70520DFE70420DDE7007800F0010057
:1035700070470B7803704B7843700220704738B562
:10358000044608460D4607F06BF86560208038BD9C
:1035900010B50446408800F01FFCA0802046BDE81E
:1035A000104001F0EFBB30B587B005460C46142241
:1035B000002101A806F0F7FF072301A88DF80430C9
:1035C000ADF806500394FFF7E3FF07B030BD0000ED
:1035D00030B587B005461422002101A806F0E3FFAC
:1035E0004FF6FF739D42ADF806501AD0284600F002
:1035F00028FA0B2804461DD005D8A0B1214628463C
:10360000FFF7D1FF05E0112805D043F202039842ED
:10361000F4D1002200E00122074B28461978FFF779
:1036200047FF07B030BD0E2301A88DF80430FFF727
:10363000AFFFEEE70F23F7E7F1DB0020FFF7C8BF8E
:10364000024B034918780022FFF750BFF3DB00203C
:1036500069360300024B034918780022FFF746BF82
:10366000F2DB00200137030070B5234E86B03178BD
:103670000446FFF705FF0546C0BB204600F030FAC0
:103680000828014622D006D888B106281ED0204638
:10369000FFF789FF09E043F20203984205D043F2A5
:1036A0000143984224D01128F1D1012214E0294687
:1036B000142201A806F077FF102301A88DF804302A
:1036C000ADF806400125FFF763FFEEE7204600F066
:1036D00083FB00F01FFA0022084B20461978FFF701
:1036E000E7FE2A4631782046FFF7E2FE06B070BDBD
:1036F0002046FFF76DFFD8E7F4DB0020F3DB002066
:1037000070B5002186B006461C4801F0E3FD054671
:1037100008B3304600F050F9112801461DD004D8F6
:1037200060B13046FFF73FFF05E0862817D043F22F
:1037300002039842F5D10024254601E02C460546B7
:103740000F4B2A4619783046FFF7B2FE1CB92146C6
:103750000A4801F0E4FD06B070BD0024F0E7142231
:10376000002101A806F01FFF062301A88DF80430F0
:10377000ADF80660FFF70CFFDDE700BFF0DB0020CF
:10378000F2DB002010B50378044673B94088FFF7D8
:103790001FFF608800F092F938B1044B60881978F7
:1037A0000122BDE81040FFF783BE10BDF3DB00200F
:1037B00037B50378082B04462CD1417A51BB057AE2
:1037C000072D1BD0082D29D0012D23D16A4629466B
:1037D000808801F005F9E8B9019B1B78D3B1A08876
:1037E00000F022FB4FF6FF73984213D00D4B2A4690
:1037F0001978FFF75DFEFFF723FF0BE0808800F0EC
:1038000013FB4FF6FF73984204D0074B012219783F
:10381000FFF74EFEFFF71EFF03B030BD034801F077
:103820007EFDF7E7F3DB0020F2DB0020F0DB002079
:1038300070B5FFF71BFE104E104D3070FFF716FEEF
:103840002870FFF713FE0E4C2070FFF70FFE0D4B94
:1038500018703378182B0DD02B78182B0AD02378BA
:10386000182B07D0182805D00748012101F02BFD9F
:10387000002070BD0320FCE7F2DB0020F1DB00201C
:10388000F3DB0020F4DB0020F0DB002010B5038820
:103890008488522B86B016D0542B21D0502B15D1B2
:1038A000037B012B12D1827A012A0FD1018942F6C2
:1038B000021399420AD11B4B20461978FFF7F8FDF5
:1038C000FFF7C8FE02E02046FFF782FE164B1749BD
:1038D00018780022FFF70AFEFFF7B2FE06B010BD0F
:1038E0001422002101A806F05EFE112320468DF867
:1038F0000430ADF8064000F06FFAADF8080000F0B3
:1039000009F90B4B204619780022FFF7D1FD094B2E
:10391000204600221978FFF7CBFD01A8FFF738FEFB
:10392000D4E700BFF2DB0020F1DB00203D360300CE
:10393000F4DB0020F3DB0020AFDF7047B1DF70471E
:10394000B2DF7047B3DF704773B50F4B0F4C93E88E
:1039500003006D4685E8030000222946208801F017
:1039600038F94FF6FF762388B34201D0112801D1F0
:1039700002B070BD184601F01EF9002229462080D1
:1039800001F027F9EFE700BF10010400F6DB00208B
:10399000044B1A884FF6FF739A4201D0FFF7D4BF49
:1039A000704700BFF6DB0020024B4FF6FF721A8013
:1039B00000207047F6DB00202DE9F743804600F039
:1039C0000BFA4FF6FF739842064637D001224FF0AC
:1039D00003096B4608213046571C01F005F8BFB2B9
:1039E000054630BB01990A46032342F8049B063181
:1039F0004046FFF7A5FF044648B932460821304645
:103A000001F0C6F80446204603B0BDE8F0830C2858
:103A10000DD0052800D12C460821304601F050F881
:103A2000002818BF03243A46002DD2D1EBE7012528
:103A3000F2E7072814BF04460C24E4E743F202042B
:103A4000E1E72DE9F341804600F0C6F94FF6FF7338
:103A5000984217D100240325264601272B462246EB
:103A600031464046FFF76AFF042820D0082823D0BB
:103A70000B281DD115F002030FD18EB9A4B902B0E5
:103A8000BDE8F0816A46082100F0AAFF0028E1D1D4
:103A9000019B9E1D9C881D68DFE701250027DDE74F
:103AA00003251C461E46F9E703253446F6E7112098
:103AB000002F08BF0B20E2E70020F9E71FB50DF14A
:103AC0000703039300F088F902AA012100F088FFA0
:103AD00020B9039B187805B05DF804FB0020FAE7D5
:103AE00038B504460A48FFF72DFF70B9084B43F27A
:103AF00003054FF6FF7219882046FFF71DFFA84205
:103B000004D11A8801321A80F3E7032038BD00BFC0
:103B1000F8DB002013B5074A044692E803006B4621
:103B200083E8030000221946204601F052F802B053
:103B300010BD00BF180104006EDF70476FDF7047D3
:103B400046DF70472DE9F04F99B01E46502383465B
:103B50008846DDE9225701931446EAB1F6B1002305
:103B600033604FF00109DDB1E7B100233B604FF056
:103B7000010A082200210DEB020006F014FDC8EB3B
:103B8000C80804AB0393ABF1020BA04444450BD12E
:103B9000002019B0BDE8F08F9146E4E7B146E2E7B6
:103BA000AA46E6E7BA46E4E75022002104A806F058
:103BB000FAFC01AB02AA07213BF8020F00F0AAFCB5
:103BC00020F002000528E4D09DF82130032B1AD8FC
:103BD000B9F1000F08D007220DF12101204606F0AF
:103BE000BEFC336801333360BAF1000F08D01022F5
:103BF0000DF11101284606F0B2FC3B6801333B6031
:103C000010350734C2E743F20220C2E7F8B5094D88
:103C1000094E00240C2707FB046329785888FFF716
:103C20002FFC08B9E0B2F8BD0134142CF3D1FF2009
:103C3000F9E700BFFADB0020FCDB002010B50A4BDF
:103C400019780446FFF71CFC60B1084B00200C22D9
:103C500002FB00314988A14201D1C0B210BD013040
:103C60001428F5D1FF20F9E7FADB0020FCDB002067
:103C700038B505460C4609B9FF2038BD4FF6FF732D
:103C80009842F9D00E4B01221978FFF711FC284613
:103C9000FFF7D4FFFF2803D1FFF7B8FFFF28EBD0D1
:103CA00008490C234343CA1855804FF6FF75CD527F
:103CB00021685160131DA2889A80A2799A71DCE76D
:103CC000FADB0020FCDB0020421E00F10F0312F89B
:103CD000010F10B99A42FAD170470120704708B518
:103CE00070B171B103780A78534013F0FE0F08D118
:103CF00006220131013006F023FCB0FA80F04009C1
:103D000008BD0020FCE72DE9F04700F101084F1C39
:103D100006460D4600F1110901F1110A102239463B
:103D2000404606F00DFC0446E0B94046FFF7CCFFE4
:103D300018B13846FFF7C8FF044651464846FFF71A
:103D4000CEFF737C03F0FC03042B04D06B7C03F0E8
:103D5000FC03042B02D1201C18BF012000F001003D
:103D6000BDE8F0870024E8E730B585B004460D468D
:103D700000F004FC02AA0DF10601072000F006FC89
:103D800010B94FF6FF700BE0BDF80630AB42F1D032
:103D900003992046FFF7B7FF0028EBD0BDF80600D7
:103DA00005B030BD10B50A4C0A48182222704FF6F3
:103DB000FF71002283180C32F02A5980FAD1FFF7E4
:103DC00055FB182820700CBF0320002010BD00BF39
:103DD000FADB0020FCDB002008B5FFF72FFFFF28EF
:103DE0001DBF0C235843034B4FF6FF7018BF185AE2
:103DF00008BD00BFFCDB002010B50C46FFF71EFF1E
:103E0000FF280CD0074B0C2202FB003050F8043F77
:103E100023608388A3808379A371002010BD0520CF
:103E2000FCE700BFFCDB0020084A30B500230C246F
:103E300004FB03F18D5A854202D10A44508830BDFB
:103E40000133142BF4D14FF6FF70F8E7FCDB0020B0
:103E5000038843B9821C00F10A0312F8010B10B960
:103E60009A42FAD170470120704710B50446FFF717
:103E7000EFFF58B122880B889A4208D108220231FC
:103E8000A01C06F05DFBB0FA80F0400910BD0020D8
:103E9000FCE71FB5044600F071FB02AA0DF1060114
:103EA000072000F073FB10B94FF6FF7007E003998D
:103EB00020464631FFF7D9FF18B1BDF8060004B01F
:103EC00010BD039920462A31FFF7CFFF0028E4D028
:103ED000F3E7000010B50C46FFF7B0FEFF281FBF48
:103EE0000C235843014B1C5210BD00BFFCDB0020CB
:103EF00070B50446FFF798FF0646204600F0F4FD33
:103F00004FF6FF75AE42044609D040B93046FFF780
:103F100095FEFF281FBF0C235843024B1D5220461D
:103F200070BD00BFFCDB00202DE9F0410D46CEB096
:103F3000804600B139B9002211461046FFF7FEFD58
:103F40004EB0BDE8F08120AE50230CAFB822002166
:103F500030460193039706F026FB0DF19703059376
:103F60000DF1AE0306930DF1C503079337AB08932C
:103F70000DF1F30309930DF585730A930DF22113E7
:103F800004960B93002450220021384606F00BFBC8
:103F900001AB02AA072138F8140000F0BBFA20F0A8
:103FA00002000528CCD07B7C032B0DD8172202FB06
:103FB00004600DF13101013406F0D1FAA542E2D1DD
:103FC000EAB2002104A8B9E743F20220B8E70000F2
:103FD00037B50B4C247811B10D68A5420DD313B140
:103FE0001D68A54209D3CDE900230B4602462146B0
:103FF0000448FFF7A7FD03B030BD0420FBE700BF76
:10400000ECDC0020EEDC00202DE9F04110229AB01B
:1040100007460C462048002106F0C5FA1F4B07B1A1
:104020003CB9002119700846FFF786FD1AB0BDE8BB
:10403000F0810025620039460CAE5FFA84F816481C
:1040400083F8008006F08BFA382229463046039523
:1040500006F0A9FACDE9005503AB324621463846B1
:10406000FFF770FD0028E1D10DF1370305930DF145
:104070003E0306930DF14503079313AB08930DF12F
:10408000530309930DF15A030A930DF1610304964A
:104090000B93414604A8C7E7EEDC0020ECDC0020CF
:1040A00030B58DB014460D4600F110030DF1FF320E
:1040B00013F8011D02F8011F9842F9D10D220021C9
:1040C00004A806F070FA2B788DF81F306B788DF805
:1040D0001E306846AB788DF81D30FFF731FD9DF836
:1040E0002F3023709DF82E3063709DF82D30A37013
:1040F0000DB030BD30B5037803F0FE03042B85B05E
:1041000004460D4618D1411C032201A806F027FAE7
:104110000322211D03A806F022FA02AA03A92846B9
:10412000FFF7BEFF032202A901A806F009FAB0FAC0
:1041300080F0400905B030BD0020FBE730B50388B2
:10414000102B93B055D1041D0FCC07AD0FC50FCC6C
:104150000FC594E8070085E8070012AD15F8283D63
:1041600003F0FE03062B4ED000F008FA9DF8203035
:104170005B08012B3FD9022B45D102AA0DF10601A4
:10418000072000F003FA00283DD0039928460131AA
:10419000FFF7B0FF0028F0D005E003992846113161
:1041A000FFF79DFD38B3BDF80640BDF81C00294659
:1041B000FFF75EFD4FF6FF739C421AD0BDF81C005E
:1041C000FFF73CFDFF281EBF0C2358430F4BADF8F3
:1041D0000C4018BF1C52BDF81C30ADF80A3012ACB0
:1041E000002304F8403D204600F0CEFD2046FFF7B6
:1041F000C9FA13B030BD02AA0DF10601072000F084
:10420000C5F90028C9D14FF6FF74CEE7FCDB0020CA
:10421000B0DF704766DF704710B503460021408865
:10422000FFF7F8FF024608B91A7210BD112801D134
:104230000122F9E75B68BDE81040184760B159B149
:104240000378DE2B0AD00B684360DE2303704FF641
:10425000FF734380002070470E207047082070478E
:1042600028B10378DE2B04D14180002070470E2056
:10427000704708207047F0B5054685B00C46F1B18F
:10428000E8B10B78DE2B1AD182884B889A4204D190
:104290000B7A13B10846FFF7BFFF2B88112B32D0E2
:1042A000512B0ED0012B0AD12B7A012B07D1A988D3
:1042B0006288914203D123722046FFF7ADFF05B01B
:1042C000F0BDAE886388B342F9D1AF79022FF6D141
:1042D000AD7B2B1F022BF2D800211022684606F07E
:1042E00062F9052D14BF4FF4C073002369463046B0
:1042F0008DF80070ADF80430FFF78AFF0028DED09B
:1043000063689847DBE76388AA889A4204BF4FF640
:10431000FF736380D3E7012804D0043804288CBFDE
:104320000020012070474FF6FF73438000F0A4BACD
:10433000F0B51F4D8BB0002108226846297006F0A9
:1043400032F94FF6FF7000F0EDFC4FF6FF770446B0
:10435000BC4211D0A4F58046B6B26A4602A93046E6
:10436000FCF700F80A2809D03046FBF797FF082829
:1043700006460BD101232B700BB0F0BD204600F098
:1043800075FC204600F0CEFC0446E1E7002EF3D099
:10439000142200210DEB020006F005F9072305A801
:1043A0008DF81430ADF818400796FFF7BCFFE3E72F
:1043B00008DD002070B5044686B01422002101A853
:1043C00006F0F1F8A08923782B4D00F5804080B2EB
:1043D0005A1EADF80800042A25D8DFE802F00303CE
:1043E000032F440043F6FE76B042E18904D901F57B
:1043F000804292B2B24216D8DA1E534253418DF82F
:104400000D30A368049363688DF80C108BB90823F2
:104410008DF804309DF8143043F001038DF814300A
:1044200001A8FFF780FF2B780BB1FFF781FF06B0E3
:1044300070BD09228DF804200593F1E743F6FE7361
:104440009842F0D8E389002BEDD163683BB90A2389
:104450008DF8043000F00AFC01232B70E0E70B23F9
:104460008DF80430F8E713238DF804304FF6FF730E
:10447000ADF80830D4E700BF08DD002073B504466E
:104480000D46164600210822684606F08CF8A5F570
:104490008041A4F580406B46324689B280B2FBF77A
:1044A00047FF002814BF0520002002B070BD0000A7
:1044B00030B5174889B0FBF745FD20BBFBF758FD29
:1044C000044610BB00F0A4FB0822214603A806F016
:1044D0006AF803AA05A94CF20700FBF737FF10B1F1
:1044E000204609B030BD01A905A8FBF73FFE019B9E
:1044F0009D8805F58045ADB205A8FBF75BFE284613
:1045000000F09CFBE5E70324EAE78624E8E700BF28
:10451000B5430300F0B5FF2887B004460E461546A4
:104520001F4627D80846FFF7F6FE18B303AA204611
:10453000FFF7A4FF18B10524204607B0F0BD01A97C
:1045400003A8FBF713FE04460028F4D1019BAE70CC
:104550005A882A802FB9029B6B6003A8FBF72AFEBA
:10456000EAE73B689200934206D30299686805F037
:10457000F6FFF2E70724DFE70424DDE70822002145
:10458000014806F010B800BF00DD0020F0B587B08C
:1045900007460E461546FFF7BEFE0446F8B1A7F5DE
:1045A0008040104A03A980B2FBF7D0FE18B1002466
:1045B000204607B0F0BD01A903A8FBF7D7FD0028EE
:1045C000F5D1019BAF705A882A80029A6A609B8855
:1045D00003F58043338003A8FBF7ECFDE8E70124F3
:1045E000E6E700BF00DD002008B5034680780A46F4
:1045F000FFF791FE68B119881046FBF7FDFD07280B
:1046000005D0092802D0002818BF032008BD862045
:10461000FCE70720FAE707B502AB43F8040D18469C
:10462000FBF704FE002814BF0320002003B05DF850
:1046300004FB30B589B0FF28044601921D4645D8D9
:104640008B781846FFF767FE00283FD0A4F580421C
:10465000ADF80820A3F58042ADF80A204A6803921D
:104660000A880492194605AA2046FFF707FF052885
:10467000019B11D153B902A905A8FBF7FDFD07283D
:10468000044618D011D8D0B1032415E001AA02A91C
:1046900005A8FBF7F5FDF2E713B101A8FBF7C6FD8E
:1046A00002A905A8FBF7F2FDE9E7082801D00E28CA
:1046B000EAD1112400E08624204609B030BD002D47
:1046C000FAD0294605A8FBF759FEF5E70724F3E7DA
:1046D0004FF6FF7000F0B2BAFF2808B505D800F019
:1046E000B3FAFFF725FE002008BD0720FCE700F025
:1046F000D1BA00F0FDBA00F015BB000030B50A6871
:10470000064B012A01D9002005E01401E55A854233
:1047100002D10A60181930BD0132F2E7C0DD002075
:1047200073B502AC002344F8043D0E46054621460D
:10473000FFF7E4FF38B18378B34206D1837B9B0750
:1047400003D183680BB902B070BD019B01330193A3
:1047500021462846ECE710B5044600F0A1FC2046AF
:1047600000F0F2FF2046FFF713F92046BDE81040A5
:10477000FFF71EB88378013B072B07D8DFE803F06B
:104780000706060606070409142303807047012361
:10479000FBE743689B8809339B08F6E770B50F4E2B
:1047A00004460025237BAB4210D84FF6FF732380CD
:1047B000A370FF236373A37B03F0FD036FF3000378
:1047C000A37300232373C4E9013370BD617B2944C3
:1047D000C9B2304600F032FD0135E3E7B0DD00201C
:1047E00037B504468378417B21480025CDE9005543
:1047F0008DF8023000F00BFDB8B1237BA278019058
:1048000003EB83039B0068468DF80220ADF800306F
:10481000FFF7B0FF04F10803626820886946FFF7DC
:1048200008FF072817D002D878B1032013E0112819
:1048300013D08628F9D1A37B03F0FD0343F00103D5
:10484000A3730C4B01221A7005E0A37B60F34103B4
:1048500060F30003A37303B030BDA37B43F00203F6
:1048600065F30003A373034B01221A702846F2E795
:10487000B0DD0020ACDD0020F0B5384DC368AA687B
:10488000934287B006460FD0AA6993420ED1012405
:1048900005EB04103378324F092B14D0132B32D090
:1048A000082B05D000240AE00024F1E70020F1E7FE
:1048B000747A002CF6D10028F4D0FFF76FFF304651
:1048C000FFF749FF0AE0747A002CEBD1E8B1837B53
:1048D000846043F00203837301233B703E7886B10A
:1048E000AB7B990713D51D48FFF77AFFC0B9AB7FA3
:1048F0009A0702D4DB072CD55CB31A48FFF770FF88
:1049000028BB07B0F0BD0124D9E70446D7E713F070
:10491000010303D0002CE6D12646E8E71E46E6E771
:1049200000231B018628EB5AADF808304FF6FF72C2
:104930000EBF06230723039001A8ADF806200CBF85
:104940008DF804308DF80430FFF705FFD9E7012317
:10495000E7E7002ED5D13E70D3E700BFC0DD0020D1
:10496000ACDD0020D0DD00201FB5184B1848FF2219
:104970005A739A7B4FF6FF71198099701982997456
:10498000597702F0FD02997F6FF300029A7301F0EC
:10499000FD01002262F300011A73C3E90122997735
:1049A0001A77C3E9052202235022CDE901320123FF
:1049B0000093A022074B084900F00CFC002814BF0C
:1049C0000320002005B05DF804FB00BFC0DD00201F
:1049D000B0DD0020E0DD00200CDD0020FFF778BE18
:1049E0000023FFF797BD00002DE9F84381460E46EE
:1049F00014461F46002B5CD0CB1F012B02D9072089
:104A0000BDE8F883531E012BF9D8FFF770FE054669
:104A10000028F4D031464846FFF782FE804650BB5E
:104A2000FF214FF6FF70FFF77BFE804608B3A0F82A
:104A30000090867098F80D30FF2B21D121461F4839
:104A400000F011FCFF2888F80D001AD14FF6FF7313
:104A5000A8F8003098F80E3088F8020003F0FD0343
:104A60006FF3000388F80E300023C8E9013388F89B
:104A70000C301120C4E7037BA342DBD00F20BFE73B
:104A8000002588F80C4098F80D100C4800F0BFFB8A
:104A900088B104EB84042401A4B2A408BE70786039
:104AA0003C8025B1082E02D1A400063C8480002061
:104AB000A6E70E20A4E70320A2E700BFB0DD002098
:104AC00038B5FFF72DFE054660B1406810B1FFF71D
:104AD000A2FD28B900242846FFF760FE204638BD15
:104AE0000324F8E70524F9E773B502AD002445F87F
:104AF000044D06462946FFF701FE58B93CB9304639
:104B0000FFF7EAFD044610B1072818BF032420462A
:104B100002B070BD81783046FFF7D2FF10B1052892
:104B200018BF0324019B0133019329463046E2E775
:104B3000CB1F012B73B50E4621D8FFF7F1FD0446BC
:104B4000F8B14568FDB9417B104800F060FBCDE944
:104B500000558DF8026078B1237B019003EB83034D
:104B60009B006846ADF80030FFF704FE211D684643
:104B7000FFF73AFD092800D1032002B070BD0720DD
:104B8000FBE70520F9E70020F7E700BFB0DD0020D4
:104B900038B5CB1F012B0C46154608D8FFF7C0FDD2
:104BA00038B105808470BDE83840FFF719BE072092
:104BB00038BD0520FCE7FFF79CBDFFF79CBD13B592
:104BC000148802ABA40043F8044DFFF7A3FC02B025
:104BD00010BD13460022FFF72CBD10B54FF6FF7332
:104BE00004469C4208460AD14FF4807100F0B3FBA2
:104BF000B0F5807F044609D14FF6FF7406E0FF2C24
:104C0000FAD8214600F066FB0028F5D0204610BDFA
:104C100010B5094C40220021204605F0C4FC204676
:104C20004FF4807100F04FFB04F120004FF48071CD
:104C3000BDE8104000F047BBE1DD00200149FFF76F
:104C4000CCBF00BFE1DD00204FF6FF73984210B5E6
:104C5000044606D00449FFF7C0FF231A58425841C2
:104C600010BD0020FCE700BF01DE0020FF2810B5CA
:104C7000044609D80146054800F051FB2146044886
:104C8000BDE8104000F04BBB10BD00BFE1DD0020CF
:104C900001DE0020FF28014602D8024800F08FBB49
:104CA00000207047E1DD0020FF28014602D80248BD
:104CB00000F085BB0020704701DE002038B54FF6BC
:104CC000FF73984218BF01300D4614BF84B2002410
:104CD000FF2C03D94FF6FF74204638BD21462846E5
:104CE00000F06DFB0028F7D10134A4B2F0E700001A
:104CF00070B50B490A4EFFF7E1FF4FF6FF7504460A
:104D0000AC4201D1204670BD2046FFF7CDFF002800
:104D1000F8D020463146FFF7D1FF0446F0E700BF48
:104D2000E1DD00200149FFF7C9BF00BF01DE00201F
:104D3000F8B5074D074F064600242B78A34200DC48
:104D4000F8BD57F82430304698470134F5E700BFE6
:104D50003BDE00202CDE002010B5074B1B780446FC
:104D60004BB1FFF7EBF9204600F044FD2046BDE8CB
:104D70001040FEF78BBD10BD3ADE002008B1FFF7F2
:104D8000D7BF7047FFF7D4BFFFF7D2BF08B5FFF713
:104D90008FFB08B1032008BDFFF7E6FD0028F9D11D
:104DA00000F002FD0028F5D1F8F784FE0028F1D1CB
:104DB000FEF73EFD0028EDD1FEF7F6FD0028E9D113
:104DC000FEF7F0FF0028E5D1054B4FF6FF721A8081
:104DD000044B1860044B1870044B01221A70DAE778
:104DE00038DE002040DE00203CDE00203ADE0020DD
:104DF000084B1B7853B1084A1378022B08D807498F
:104E000041F82300013313700020704708207047D9
:104E1000042070473ADE00203BDE00202CDE00201C
:104E2000034B1B780BB100F0F5BC0820704700BFA6
:104E30003ADE002009B100F00BBD7047034B1B7830
:104E40000BB1FFF7E1B80820704700BF3ADE002041
:104E500010B40A4C247864B110B922B90E2009E0CC
:104E60000029FBD00AB1002BF8D05DF8044BFFF706
:104E7000AFB808205DF8044B704700BF3ADE002051
:104E8000034B1B780BB1FFF74FB80820704700BFEA
:104E90003ADE0020034B1B780BB1FFF78CBE4FF6B8
:104EA000FF7070473ADE0020F7B51C46194B1B789F
:104EB00007460D4616463BB342B33CB321884A1E13
:104EC000504200F0030002F0030201F1030358BF57
:104ED00042429A1A91421BD108220021684605F0ED
:104EE00062FB22888DF8025003329210ADF8002048
:104EF00029466A4638460196FFF761FEBDF8003044
:104F00009B00238003B0F0BD0820FBE70E20F9E7EB
:104F10000720F7E73ADE002007B502AB502223F85E
:104F2000022D0A460721FFF7BFFF03B05DF804FB1F
:104F3000034B1B780BB1FEF7DBBF0820704700BFA7
:104F40003ADE002070B51A4B1B7886B063B3194E59
:104F500001234FF6FF703370FFF72DFE4FF6FF73FE
:104F6000984205460CD01E462846FFF7E1FF04464E
:104F7000E0B92846FFF71FFEB0420546F4D110E025
:104F800000241422214601A8347005F00CFB0C23E8
:104F900001A88DF80430ADF80850ADF80650FFF7C1
:104FA000C7FE204606B070BD0824FAE70324F8E7E0
:104FB0003ADE002028DE00202DE9F04F1C462C4B65
:104FC0001B7887B083468A469146002B4ED04FF619
:104FD000FF70FFF7F0FD01230025ADF8103004AAA3
:104FE00003AB062106460395ADF812500593FFF773
:104FF000E6FD072836D04FF6FF7843464FF0FF37DF
:10500000E0B1052818D04FF6FF7296422CD1BBF1C3
:10501000000F01D0ABF80030BAF1000F01D0CAF890
:105020000050B9F1000F01D0A9F8008004B1276049
:10503000002007B0BDE8F08F00220392039AAA4235
:1050400024BF334615463046BA423CBFB0461746E9
:105050000193FFF7B0FD04AA06210646FFF7AFFD56
:10506000019BCDE70520E4E70320E2E70820E0E725
:105070003ADE002008B500231A4606490648FFF725
:105080009BFF28B1431F58425841044B187008BD7C
:105090000120FAE724DE002038DE00203CDE00207C
:1050A000F0B5044687B08088FEF7BEFE23786080A6
:1050B000083B032B20D8DFE803F002213166637A36
:1050C0005BB93F4A116851B1E068814207D1136072
:1050D0003C4AA1881180E3600EE0012B0CD13A4BD1
:1050E0001B784BB1374BA2881B889A4204D1237A94
:1050F000062B01D1FFF7BEFF20465DE0637A002B4F
:10510000FAD12F4A11680029F6D0E0688142F3D124
:105110002E4913600A68013A0A60DCE72C4F3B789D
:1051200073B90125284B1B7833B1264BA2881B8805
:105130009A4201D1FFF79EFF002DDDD107B0F0BDEF
:105140004FF6FF70FFF737FD4FF6FF7398420546A5
:10515000E7D1FFF732FDA8420646E2D1002514222E
:10516000294601A83D7005F01EFA0C2320468DF853
:105170000430ADF80860ADF80660FFF7D9FD01A86E
:10518000FFF7D6FDCEE7124B1A78002AB4D00021E3
:10519000142201A8197005F006FA0D238DF80430C9
:1051A0004FF6FF73ADF80830ADF806302046A3681F
:1051B0000393FFF7BDFD01A8FFF7BAFDBEE700BFEF
:1051C00040DE002038DE00203CDE002024DE00200F
:1051D00028DE002070B5DDE90545B0B1A9B1A3B165
:1051E00005FB04F6964210D8049AE61DB2EBD60FE2
:1051F0000BD354B14DB1C0E90013C0E90245A1B2CF
:10520000184600F060F8002070BD0720FCE738B5B4
:105210000C46054608B9002038BD0368002BFAD0BB
:1052200040680028F7D0FF29F5D000F0C8F8002822
:10523000F1D0EB68286803FB0400EDE738B50546BC
:1052400080B1036873B1406860B1FF290AD08CB2A5
:10525000214600F0B4F828B121466868BDE838401E
:1052600000F05DB838BD2DE9F0418846064618B912
:10527000FF242046BDE8F0810368002BF8D0436886
:10528000002BF5D00027FF24B368FDB2AB42EFD965
:105290002946706800F01EF840B1FF2C08BF2C466C
:1052A0002D1B01354545E4D00137EDE7FF2C07D133
:1052B000FF24F9E721463046FFF7C0FF0134E4B28E
:1052C000A542F7D8F4E720B1CA1DD208002105F0A5
:1052D0006AB970472DE9F3410546D0B1CF0801F016
:1052E00007044FF0010808FA04F4C65DE4B2264052
:1052F00013D102A800F8016DFAF71EF9EB5D9DF8D5
:1053000007001C4205BF1C43EC5535464546FAF7DD
:1053100037F9284602B0BDE8F0810025F9E773B5FA
:105320000546B0B1C1F3C70401F0070301269E4052
:10533000035D33420DD002A8002300F8013DFAF7C7
:10534000FBF82B5D9DF8070023EA06062E55FAF7B9
:1053500017F902B070BD2DE9F74F0E46824630B105
:105360004FF000090127B1451FFA89F804D1B04672
:10537000404603B0BDE8F08F4FEAD80B08F00704B1
:1053800007FA04F41AF80B50E4B2254002D009F1F0
:105390000109E8E70DF107008DF80750FAF7CCF89E
:1053A0001AF80B309DF807001C4202BF1C430AF894
:1053B0000B400125FAF7E4F8002DE8D0D8E758B102
:1053C000CB0801F00701C25C012303FA01F10A4294
:1053D00014BF1846002070470120704758B3027868
:1053E00002F08203802B25D0C2F30213042B21D8B4
:1053F00002F0F203322B1DD041788378994219D8FC
:10540000062917D9102B15D8C17811F0040311D132
:10541000007943070ED4084301070BD4D30700F0EB
:10542000030003D4B0FA80F040097047003018BF81
:10543000012070470020704710B50378182B0446F0
:1054400002D1FEF713F8207010BD70B586B0064685
:105450000C4615460021142201A805F0A4F8304698
:10546000ADF80660FEF7B8FC0D2CADF8080019D1B8
:1054700003238DF804309DB12B7813F0010F0CBF7E
:10548000022301238DF80C3000238DF8103041F2F7
:105490000113ADF80E3001A8FFF770FC06B070BD27
:1054A0000223EFE7862C0BBF062307238DF8043079
:1054B0008DF8043018BF0394EDE730B587B00523AD
:1054C0000D4614468DF80430ADF80600FEF784FC56
:1054D000ADF8080001A8CDE90354FFF74FFC07B071
:1054E00030BD00002DE9F047054686B0904699464C
:1054F0000E46D9B93D4BCDE904111B68039306AAAA
:1055000012E907006B4683E807001A463146284631
:10551000FFF7D3FF364B009F1B7843B99DF8093046
:105520002BB90526304606B0BDE8F0870027424675
:1055300039462846F8F7B2FB8628044624D0A0F165
:105540001103D3F1000A4AEB030A0022294B284633
:105550001978FDF7ADFF284B524619782846FDF71C
:10556000A7FF0D2C06D013D8082C03D00B2C01D08C
:10557000002C39D12646B9F1000FD3D034F00803FE
:10558000D0D0112C2AD1CDE74FF0000A0122DDE75F
:10559000862C13D043F202039C42EBD0112C23D172
:1055A000164B324619782846FDF782FF144B4246C7
:1055B00019782846FDF77CFF0026B3E70F4B3246EB
:1055C00019782846FDF774FF0D4B42461978284696
:1055D000FDF76EFF2646B9F1000FA3D03A462146EB
:1055E0002846FFF732FF9DE70326C4E750DE002080
:1055F0004DDE00201BBF00201ABF002019BF002075
:1056000018BF002070B5094B19780446FDF738FF24
:10561000074B054619782046FDF732FF2A4601461A
:1056200001232046BDE87040FFF75CBF18BF002093
:1056300019BF0020F0B5244B87B00025CDE90455F3
:105640001B68039306AA04460E4612E907006B4640
:1056500083E807001A4631462046FFF72EFF1B4B12
:1056600000991A682046F8F75DFA8628064627D082
:10567000A0F111035F425F412A46154B204619787D
:10568000FDF716FF134B3A4619782046FDF710FF39
:10569000114B002219782046FDF70AFF0F4B00221C
:1056A00019782046FDF704FF36F0080306D0112EC6
:1056B00004D0009A31462046FFF7C7FE07B0F0BD80
:1056C0002F460122D9E700BF50DE002044DE002033
:1056D0001DBF00201CBF00201BBF00201ABF0020E0
:1056E0000021FFF7A7BF000010B50378052B044683
:1056F00006D0122B0AD02046BDE81040FFF73EBB73
:1057000081684088BDE81040FFF794BF0C4B1B68D0
:105710009BB10C4B017A1B7803F0010291420CD82B
:10572000417AC3F34003994294BF00210121012330
:1057300000226088FFF7D6FEDDE70121F7E700BF12
:1057400050DE002048DE002008B50378082B1DD36A
:105750000B2B0DD9132B19D10D4B0E4918780022A4
:10576000FDF7C4FE0C4B0D4918780022FDF7BEFE74
:105770000B4B084918780022FDF7B8FE094B074982
:1057800018780022BDE80840FDF7B0BE08BD00BF94
:105790001DBF0020E15603001BBF0020055603007B
:1057A0001CBF00201ABF002010B50C480C4CFFF79E
:1057B00043FE0C48FFF740FE0B48FFF73DFE0B4849
:1057C000FFF73AFE0A48FFF737FE2046FFF734FEA0
:1057D0002378182B0CBF0320002010BD1ABF002017
:1057E0001DBF00201BBF002018BF002019BF0020D4
:1057F0001CBF002008B5F8F765FA044B0449187877
:105800000022BDE80840FDF771BE00BF1ABF0020AE
:105810000556030010B5044630B90A4B18600A4B10
:1058200001221A70002010BDFFF7D8FD38B1074BD8
:1058300022681A6022791A71024A1360EFE7072082
:10584000F1E700BF50DE00204DDE002048DE0020E2
:10585000F8F728B9A8DF7047AADF7047ABDF7047B9
:10586000ACDF7047AEDF704737B505460C46E1B197
:10587000D8B10388502B18D14B7CB3B1C2884B8967
:105880009A4212D1038A022B0FD10B686BB11230EE
:10589000FDF76BFE58B100238DF80430AB88ADF8EE
:1058A000063001A923682046984703B030BD012384
:1058B000F2E72DE9F043884693B00546002800F052
:1058C000D080002900F0CD800B6803600B79437411
:1058D00012A9FF230374012641F60F03021D21F8CC
:1058E000383D30468DF81260FFF7B4FF04460028BB
:1058F00040F0AF806B7C8BB10146032202A804F01C
:1059000052FE11238DF8083098F80D308DF80930CB
:105910009DF80A3066F342038DF80A301C220021FC
:105920000BA804F040FE9DF82C306A7C43F0020383
:10593000002462F304138DF82C300C94CDE90E444E
:10594000002A40F08A80234603AE4FF00109CDE9DA
:105950001034032242F6192300213046ADF81430EA
:105960008DF8169004F01FFE98F80E308DF80C306C
:1059700098F80F308DF80D309DF80E3069F3420322
:1059800003F0E70364F300038DF80E30142298F857
:105990000C308DF80330002106A804F004FE0DF150
:1059A00003030A9305AFAB1D06AA0BA9A888CDF87F
:1059B0002090CDE90676ADF82490FFF74DFF044620
:1059C000002846D1D8F80830002B48D042F60813FA
:1059D0000322014630468DF81690ADF8143004F0DD
:1059E000E2FD98F810308DF80C309DF80D30D8F8A5
:1059F000081064F3030364F307138DF80D309DF86A
:105A00000E3069F3420364F3C30364F304130DF12E
:105A1000040964F3000348468DF80E30FDF7A9FD34
:105A200021468046142206A804F0BDFD1FFA88F026
:105A3000ADF82000ADF8240005F10E0206A9E888B3
:105A4000ADF82240CDE90676CDF82890FFF706FFA5
:105A50000446204613B0BDE8F08302AB74E7E8814A
:105A6000F7E70E24F5E72DE9F04194B017468DF8DD
:105A700007100546002858D0027CCBB29A4256D077
:105A800003AE08220021304604F08DFD4FF00108DE
:105A90000DF107033246E988CDF80C804FF6FF7010
:105AA0000493FFF7DDFE044608BB9DF807302B7416
:105AB0006B7C002B3DD00146102205A804F073FD3D
:105AC000EB88ADF81430BDF80E30ADF81830049BFB
:105AD00008934FF6FE739F428DF8168007961ED1ED
:105AE00009A8FDF7AFFC2546099B9D4203D320463C
:105AF00014B0BDE8F08109AB03EB45039E88304646
:105B0000FDF782FC022805D105A9304624B9FFF72C
:105B1000A9FE04460135E7E7FFF7A4FEFAE705A969
:105B20003846FFF79FFE0446E1E70E24DFE7002436
:105B3000DDE70824DBE7A8DF7047AADF7047000035
:105B40002DE9F04381468FB0154698460E4611B9AF
:105B50000846F9F741FA15B92846F9F73DFA1C222B
:105B60000DEB0200002104F01EFD9DF81C30ADF885
:105B70000490002443F002030127214603226846D3
:105B80008DF81C300894CDE90A44CDE90C448DF819
:105B9000067004F008FD98F800308DF8003098F891
:105BA00001308DF801309DF8023067F3420303F0B5
:105BB000E70364F300032146142202A88DF80230A3
:105BC00004F0F1FC0A48CDF80CD001AB029302AA14
:105BD000169B0088ADF8105007A9ADF81240ADF83B
:105BE00014500696FFF7A9FF0FB0BDE8F08300BF81
:105BF0008CDE002030B587B006A941F60A030446C2
:105C000021F80C3D01205A4A8DF80E00FFF793FF52
:105C10000546002849D12288002A49D1228952B15B
:105C2000544B0093E16804F13C0342F62420FFF753
:105C300087FF002847D1228A52B14F4B00936169F8
:105C400004F13C0342F62520FFF77AFF00283AD101
:105C5000228B52B1494B0093E16904F13C0342F6B7
:105C60002720FFF76DFF00282DD1228C4AB1444B2D
:105C70000093616A04F13C0342F62620FFF760FFBF
:105C800008BB228D4AB13F4B0093E16A04F13C030B
:105C900042F62820FFF754FFA8B9236BABB9616B1C
:105CA000002938D1A36B002B42D1284607B030BD64
:105CB000354B0093616804F13C0342F62920FFF75D
:105CC0003FFF0028AAD00546EFE71A688DF810209C
:105CD0001A68120A8DF811205A888DF81220DA7885
:105CE0008DF813205A688DF814209B688DF81530B4
:105CF0001A0A1B0C8DF81730244B8DF816200093D0
:105D0000082204F13C0304A942F62320FFF718FF00
:105D10000028C4D0D7E71E4B0A790093096804F124
:105D20003C0342F62A20FFF70BFF0028BAD0CAE74F
:105D30001A788DF810205A888DF81120120A8DF8E3
:105D400012209A888DF81320120A8DF81420DB880F
:105D50008DF815301B0A8DF816300E4B0093072274
:105D600004F13C0304A942F65020FFF7E9FEAAE73C
:105D70008CDE00206CDE002084DE00205CDE002053
:105D800054DE00208EDE002064DE002096DE00203F
:105D90007CDE002074DE0020A8DF7047A9DF70479A
:105DA000AADF7047ABDF7047ACDF7047AEDF7047EC
:105DB000B0DF704764DF70472DE9F04315468BB0C4
:105DC000044688466A46A988D0F878011F46FDF740
:105DD000A5FB10B1636803B19847009E8EB3002104
:105DE000102201A8B5F80E9004F0DDFB01238DF818
:105DF00004300023ADF80830BDF84830A888ADF86D
:105E00000C90A3EB0903ADF80E309DF80A304F4417
:105E10003E4443F0010301A904968DF80A30FFF7D0
:105E2000C7FF10B1636803B1984723684BB10722DD
:105E30008DF81420D8F800200692099505A920466F
:105E400098470BB0BDE8F0832DE9F04186B00546D8
:105E50000C4617468988D0F878016A469846FDF7BF
:105E60005DFB10B16B6803B198470098F0B1228ACE
:105E7000E389BDF8301013448B4217DC04F112069D
:105E80003146404404F06BFB2B687BB104228DF853
:105E900004203A680292E289ADF80C20228AADF81B
:105EA0000E20CDE9046401A92846984706B0BDE854
:105EB000F081F0B513241C80D0F87C41059E4CBBCA
:105EC000D0F88041002C49D1D0F88441002C67D112
:105ED0000020F0BDD0F87C7137F834401F883C4476
:105EE0001C80877CECB2A742EAD90CFB0407013581
:105EF000B7F814E08E454FEAC407EBD142F64D23C4
:105F0000138001239370D470D0F87C21D25B32804F
:105F10000120DEE700254FF00A0CE2E7D0F880719F
:105F200037F834401F883C441C8090F87870ECB2FD
:105F3000A742C9D90CFB04070135B7F87AE07145CF
:105F40004FEAC407EAD142F64D231380022393702F
:105F5000D470D0F88031DB5B3380D9E700254FF077
:105F60000A0CE2E7D0F8847137F834401F883C44CB
:105F70001C8090F8DE70ECB2A742A9D90CFB040794
:105F80000135B7F8E0E071454FEAC407EAD142F6BF
:105F90004D23138003239370D470D0F88431DAE753
:105FA00000254FF00A0CE4E7F0B5168A022E87B000
:105FB00004460F4615460FD103686BB102F112007B
:105FC000FDF7D3FA50B18DF804603B680293059554
:105FD000236801A92046984707B0F0BD03238DF838
:105FE0000430F2E72DE9F04F1F460B7893B00C46D2
:105FF000D90680469346DDE91C9612D5032200217E
:1060000003A804F0D0FA11238DF80C3099F8003071
:106010008DF80D309DF80E30012262F342038DF8A9
:106020000E301C2200210BA804F0BDFA22788DF856
:106030002C200023D20654BF1A4603AACDE9102310
:1060400004AC42F64D224FF0010AADF814200021B5
:10605000032220460C93CDE90E3301938DF816A050
:1060600004F0A1FA99F801208DF8102099F8022087
:106070008DF811209DF812206AF3420202F0E60228
:1060800042F009028DF812200021142206A804F023
:106090008AFA019B08930A93B8F80000ADF824B07F
:1060A00005AD334606AA0BA9CDE90654FFF778FEE5
:1060B0008046002839D142F60813014603222046C3
:1060C000ADF814308DF816A004F06DFA99F801308F
:1060D0008DF8103099F802308DF811309DF812309B
:1060E0006AF3420368F3C30368F3041368F300031D
:1060F0001422414606A88DF8123004F054FA3946AD
:1061000002A8CDE90654FDF734FA80B2ADF82000BC
:10611000ADF8240002AB06F1080206A93088ADF8FC
:1061200022800A93FFF73EFE8046404613B0BDE84A
:10613000F08F2DE9F04790B00DF1040A174605469F
:1061400088460322002150461E4604F02CFA1123F3
:106150008DF804303B788DF805309DF806304FF00F
:10616000010969F342031C22002109A88DF80630B9
:1061700004F019FABB789DF82420ADF80C8013F0D8
:106180000F0318BF4B4642F0020263F3C302D2B2C0
:1061900000240DF1080842F010028DF82420214659
:1061A000032240460A94CDE90C44CDE90EA48DF8B3
:1061B0000E9004F0F8F99DF80A207B788DF80830ED
:1061C00069F34202D2B242F0080202F0EF0264F335
:1061D0000002BB788DF80A202146142204A88DF80D
:1061E000093004F0E0F903ABCDE904380823ADF839
:1061F0001C3004AA334609A9288806940894FFF79E
:10620000CFFD10B0BDE8F08730B587B004460D462D
:1062100001AA8988D0F87801FDF780F910B1636888
:1062200003B19847019BFBB11022002102A804F0A2
:10623000BAF901238DF80830ADF81230019B0593AF
:106240009DF80E30A8880022ADF80C2043F0010321
:10625000EA89ADF8102002A98DF80E30FFF7A8FDED
:1062600010B1636803B1984707B030BDF0B503883B
:10627000502B8BB005460C4658D0512B00F00481B2
:10628000102B40D10AAA0023818842F8183DD4F887
:106290007801FDF743F910B1636803B1984704989A
:1062A00088B3D4F87C11002934D0A67C00231322B3
:1062B000B3422AD3D4F8801121B194F87860002336
:1062C000B34229D3D4F8841121B194F8DE600023BD
:1062D000B34226D3002104F066F963899BB1049B85
:1062E00001261E700822002105A804F05CF9049B19
:1062F0006189A888059605AA0693FFF755FD10B198
:10630000636803B198470BB0F0BD31F833700133C7
:106310003A44CDE71322CDE731F8337001333A44E4
:10632000CEE731F8337001333A44D1E7C188B4F88D
:106330006E01022300228842ADF80C30ADF80E2029
:106340001ED104AAA988D4F87801FDF7E7F810B1A6
:10635000636803B19847049A002AD4D02B8A012B92
:10636000D1D1AB7C0BB1012BCDD18DF81430537052
:106370002368002BC7D0099505A920469847C2E796
:10638000608988421AD104AAA988D4F87801FDF757
:10639000C5F810B1636803B19847049A002AB2D0D7
:1063A0002B8A012BAFD1AB7C1BB1012BABD10621CA
:1063B00000E005218DF814101370D9E7B4F85201EC
:1063C000884209D10AA942F6222341F8143D2A46FF
:1063D0002046FFF7E9FD96E7B4F84E01884204D164
:1063E00042F62222059208220AE0B4F856318B4286
:1063F0000FD142F6322305930A23ADF80C30012267
:10640000ADF80E200092294605AA2046FFF71CFD94
:1064100079E7B4F862318B4203D10AA942F63323FB
:10642000D3E7B4F85E318B4215D0A07C13460A2620
:10643000DAB2824216D30DF10E03009305AA03AB24
:106440002046FFF736FD00283FF45DAFBDF80C3065
:10645000BDF80E20D6E742F6332305930B23ADF8A3
:106460000C30C0E7013306FB0347FF898F42DFD1C1
:1064700042F64D23ADF8143001238DF817208DF826
:1064800016302A4605A9A3E70022ADF8102082792C
:106490000223012AADF80E307FF435AF01896089FF
:1064A000884204D129462046FFF7AEFE2BE7B4F818
:1064B0004E01884204D142F622220592082209E0C8
:1064C000B4F856318B420ED142F6322305930A239B
:1064D000ADF80E30ADF81020009205A92A462046EE
:1064E000FFF76AFC0FE7B4F85E318B4206D142F643
:1064F000332305930B23ADF80E30DFE704AB009395
:1065000005AA0DF10E032046FFF7D3FC00283FF447
:10651000FAAEBDF80E30BDF81020DDE72DE9F04FE2
:106520008B7A0A2B97B005460C4600F2DC800B7C78
:106530000A2B00F2D8800B7E0A2B00F2D4800B6865
:1065400003604B6843608B7A83740B7C80F87830EF
:106550000B7E80F8DE3016A941F6120305F108091A
:10656000012021F8483D4A468DF81200FFF714FC3F
:106570008346002840F0C680064694F83620F3B2E1
:106580009A4200F2B3802389002B4CD01C220021B8
:106590000FA804F008F89DF83C30002643F00603ED
:1065A0000DF1140801278DF83C30032242F64E23EA
:1065B00031464046ADF818301096CDE91266CDE967
:1065C00014668DF81A7003F0EEFF94F83C308DF8E5
:1065D000143094F83D308DF815309DF8163067F37F
:1065E0004203DBB243F0080303F0EF0366F300035A
:1065F000142231460AA88DF8163003F0D4FF06ABFA
:10660000CDE90A3803AB0E930AAA05F10A030FA9D4
:1066100028898DF80C700C97ADF83470FFF7C0FB2B
:10662000834600286ED1A37A002B6FD1237C002BE8
:1066300040F0A980237E002B40F0D4801C22002152
:106640000FA803F0B0FF9DF83C304FF0000A43F074
:10665000020303AE01278DF83C30032242F64B23A0
:1066600051463046ADF81430CDF840A0CDE912AA1D
:10667000CDE914AA8DF8167003F095FF94F82C302C
:106680008DF80C3094F82D308DF80D309DF80E30CB
:1066900067F3420303F0E7033B43142251460AA881
:1066A0008DF80E3003F07FFFA38CADF83030ADF8DD
:1066B0003430236A0E930DF1140805F5A2730AAA6B
:1066C0000FA92889ADF832A0CDE90A86FFF768FB4B
:1066D0008346B8B994F82620002A00F00781A26A00
:1066E000002A40F00C824FF0070B0BE0A16B2889C9
:1066F00031F813100FAAFFF751FB0136834600282B
:106700003FF43BAF584617B0BDE8F08FE368002B6D
:106710008CD000274FF00A0830E0012200210FA89A
:10672000D4F80CB003F03FFF9DF83C300BEBC60AE9
:1067300043F002038DF83C309AF806309DF83C2077
:1067400013F00F0318BF012363F3C302D2B242F068
:1067500010028DF83C203BF8362008FB06560AF163
:1067600004031436009301960AF102030FA9484668
:10677000FFF738FC013783460028C3D1A37AFEB265
:10678000B342CAD852E76369002B3FF453AF0027E6
:106790004FF00A0821E0012200210FA8D4F814B01C
:1067A00003F001FF9DF83C3043F00E038DF83C30C0
:1067B0003BF836200BEBC60A08FB06560AF1040329
:1067C0007A36009301960AF102030FA94846FFF7B3
:1067D00009FC01378346002894D1237CFEB2B342E2
:1067E000D9D827E7E369002B3FF428AF00274FF003
:1067F0000A0822E0012200210FA8D4F81CB003F0FF
:10680000D2FE9DF83C3043F00A038DF83C303BF853
:1068100036200BEBC60A08FB06560AF10403E036E5
:10682000009301960AF102030FA94846FFF7DAFB2D
:106830000137834600287FF465AF237EFEB2B34262
:10684000D8D8FBE642F60713032200213046ADF804
:1068500014308DF8167003F0A6FE9DF80C30A06A77
:10686000022267F3030362F307138DF80C309DF8DF
:106870000D3003F0F0036FF307138DF80D309DF822
:106880000E3067F3420303F0E7036FF3000306AA39
:106890000DF10B0100EB8A008DF80E30FFF78AFA3C
:1068A000834600287FF42EAF014614220AA803F085
:1068B0007AFE9DF80B20ADF83020ADF8342006AB01
:1068C00005F5A6720AA9B5F84401ADF832B0CDE9D4
:1068D0000A860E93FFF766FA834600287FF412AF0C
:1068E0000AF1010A94F826309A45ABDB237A002B93
:1068F00057D005F5A77304F1430242F6222148461A
:10690000FFF717FC834600287FF4FCAE01461C22EB
:106910000FA803F048FE9DF83C20CDF840B042F0AF
:106920000E028DF83C2042F6322201265946ADF87F
:10693000182040460322CDE912BBCDE914BB8DF8E7
:106940001A6003F030FE94F846208DF8142094F875
:1069500047208DF815209DF8162066F34202D2B22A
:1069600042F008026BF304126BF3000259468DF8F3
:1069700016200AA8142203F016FE06AACDE90A285A
:1069800005F5AB730AAA0FA92889CDF830B0CDF868
:1069900038B0ADF83460FFF703FA834600287FF47F
:1069A000B1AE637A002B40F0AC801C2200210FA80E
:1069B00003F0F9FD9DF83C30002743F0020303AEDD
:1069C00039468DF83C304FF0010942F64A23032244
:1069D00030461097CDE91277CDE91477ADF8143031
:1069E0008DF8169003F0DFFD94F834308DF80C30FC
:1069F00094F835308DF80D309DF80E3069F3420370
:106A000003F0E70367F300038DF80E30238E8DF853
:106A100018301B0A8DF8193094F832308DF81A307E
:106A2000394694F833308DF81B3014220AA803F04D
:106A3000BAFD04230C93ADF8343006AF05F5B373FB
:106A40000AAA0FA928890E97CDE90A86FFF7A8F9A7
:106A5000834600287FF456AE01461C220FA803F09F
:106A6000A2FD9DF83C20CDF840B042F004028DF824
:106A70003C2042F64C225946ADF8182040460322ED
:106A8000CDE912BBCDE914BB8DF81A9003F08BFD54
:106A900094F83E208DF8142094F83F208DF81520AE
:106AA0009DF816208DF80CB069F342026BF3C30217
:106AB0006BF304126BF3000259468DF816200AA8F6
:106AC000142203F070FD05F5B7730AAA0FA92889EF
:106AD000CDF83090CDE90A78ADF834900E96FFF7F6
:106AE0005FF9834600287FF40DAEE268C5F87C218B
:106AF0006269C5F88021E269C5F8842102E6824610
:106B0000F0E605F5AF7304F1400242F63321484642
:106B1000FFF70FFB834600283FF447AFF2E52DE96E
:106B2000F0411F46837C86B08B4206460C461546D4
:106B3000BDF830804CD94FF6FF7398454AD0ADF878
:106B40000220414601AAD0F87801FCF7E7FC88BB97
:106B5000019B002B38D01333D6F87C210193C3B2AC
:106B60009C422AD832F83430AB422FD32A463946D9
:106B7000019803F0F4FC0021102202A803F013FD99
:106B80000A2303FB046402A9A38AADF80830012399
:106B90008DF80A300023ADF80C3040460DF10203A9
:106BA000CDE90437FFF702F920B9BDF80230AB4256
:106BB00018BF0C2006B0BDE8F08132F83010019B00
:106BC0000B4401930130CAE70520F3E70C20F1E7FD
:106BD0000720EFE70820EDE7F0B51D464FF6FF73FD
:106BE0009D4287B007460C46164633D0ADF80210DA
:106BF00001AA2946D0F87801FCF790FC30BB019837
:106C000030B30230082C019003D82246314603F0FD
:106C1000A6FC0021102202A803F0C5FCB7F84E31F3
:106C2000ADF8083001238DF80A300023ADF80C30A0
:106C300002A90DF102032846CDE90436FFF7B6F8A4
:106C400020B9BDF80230A34218BF0C2007B0F0BD38
:106C50000520FBE70820F9E72DE9F04788B09A46C0
:106C6000BDF84840BDF840504FF6FF739C420746C0
:106C70008946904649D0EE1CB3B2082BADF80230DD
:106C800041D801AA2146D0F87801FCF747FCA8BBFF
:106C9000019AB2B30B3201928DF808908DF80980F9
:106CA0008DF80AA02DB12A4611990DF10B0003F0C1
:106CB00056FC02ADBDF802200198294603F04FFCB6
:106CC000102200210DEB020003F06DFCB7F85E31DD
:106CD000ADF8103001238DF812300023ADF81430D8
:106CE00004A90DF102032046CDE90635FFF75EF851
:106CF00020B9BDF80230B34218BF0C2008B0BDE87F
:106D0000F0870520FAE70C20F8E70820F6E710DF07
:106D1000704711DF7047000013B504460949684603
:106D2000FAF7ECFA019808B902B010BDD0E90031C9
:106D30002046984718B16846FAF7E9FAF2E71120B9
:106D4000F2E700BF3401040013B504460749684662
:106D5000FAF7D4FA019B0BB902B010BD2046D3E973
:106D6000002190476846FAF7D2FAF3E74C01040095
:106D7000064B9A6822B11A6822F480021A607047A2
:106D8000034B4FF48002C3F880207047CCE500200D
:106D900000E100E00B4A92F816335B09012B08D999
:106DA000042B06D0084B996839B94FF4800313605F
:106DB000704742F20200F8F70FB91A6842F48002F5
:106DC0001A60704700E100E0CCE50020F7B5184FED
:106DD0003C785CBB174E012520463570FFF79CFFC1
:106DE000112820D02046FFF7AFFF134B1868019001
:106DF00002A800F8054DF8F79FFB104901A8FFF71E
:106E000086FF0446B0FA80F0400938709DF8030010
:106E1000F8F7B6FB3CB90A4B34701C70FFF7BAFFA9
:106E20002846FFF791FF204603B0F0BD0824FAE79B
:106E30009FDE00209EDE002030010400C1D1020050
:106E4000A0DE0020F7B5154F3B7813B3144E012098
:106E50003070FFF761FF11284FF000051BD00220B2
:106E6000FFF772FF02A800F8015DF8F765FBFFF776
:106E700050FF04469DF807003D70F8F781FB2CB9E0
:106E80003470FFF775FF0320FFF75EFF204603B065
:106E9000F0BD0824FAE72C46F8E700BF9FDE00208B
:106EA0009EDE0020054B1B7833B1054B1B780BB1E0
:106EB000FFF7C8BFFFF78ABF082070479EDE00209B
:106EC0009FDE0020014B1878704700BF9FDE002036
:106ED00007B508496846FAF711FA019B13B903B0E0
:106EE0005DF804FBD3E9002090476846FAF70FFAF3
:106EF000F3E700BF40010400FFF7EABF4BDF704734
:106F00001FB50D4C01A8FFF7F9FF70B9214602A883
:106F1000FAF7F4F9039B002BF4D00198D3E9002190
:106F2000904702A8FAF7F3F9F4E7052801D0F8F73B
:106F300053F804B010BD00BF60010400026813687C
:106F40005268934291BFD01A80680130801888BF80
:106F5000C01A7047036881681A685B688B4234BF47
:106F600001330023D31A584258417047F7B50446FD
:106F700002A8002300F8013D0D46F8F7DDFA20468F
:106F8000FFF7E8FF10B1237C002B3DD12168A668F4
:106F90004B684A68B24234BF013200224A6038B1BD
:106FA0002168A0680A68824234BF013200220A6068
:106FB000E2686068511E072920D8DFE801F004105C
:106FC0001F141F1F1F182A78C2542046FFF7B6FF50
:106FD00023689A68824200D29860002415E02A88CB
:106FE00020F81320F1E72A6840F82320EDE7D5E9DF
:106FF000006700EBC300C0E90067E6E7294602FB33
:10700000030003F0ACFAE0E704249DF80700F8F76A
:10701000B7FA204603B0F0BD036818685B68C31A6E
:1070200058425841704773B5054602A8002300F83E
:10703000013D0C461646F8F77FFA2846FFF7ECFFAD
:10704000002832D129680B682EB90A68A8688242E4
:1070500038BF561C0E60EA686968501E07281ED8A3
:10706000DFE800F0040E1D121D1D1D16CB5C237001
:1070700000249DF80700F8F783FA204602B070BD9F
:1070800031F813302380F3E751F823302360EFE722
:1070900001EBC301D1E90023C4E90023E8E703FBC6
:1070A0000211204603F05BFAE2E70524E1E7000065
:1070B000054B1B68082B01BF044B1868B0FA80F021
:1070C000400918BF00207047300100103401001043
:1070D00008B54FF080430022C3F80C21C3F81021FB
:1070E000C3F838254FF0805203F54043D2F804141A
:1070F000C3F82015D2F80814C3F82415D2F80C14DC
:10710000C3F82815D2F81014C3F82C15D2F81414AB
:10711000C3F83015D2F81814C3F83415D2F81C147B
:10712000C3F84015D2F82014C3F84415D2F824143B
:10713000C3F84815D2F82814C3F84C15D2F82C140B
:10714000C3F85015D2F83014C3F85415D2F83414DB
:10715000C3F86015D2F83814C3F86415D2F83C149B
:10716000C3F86815D2F84014C3F86C15D2F844245B
:10717000C3F87025FFF79CFF10B1334B334A1A60F8
:10718000FFF796FF18B1324BFB22C3F81825FFF723
:107190008FFF48B12F49304B0A681B6822F00F025D
:1071A00003F00F0313430B60FFF782FF18B12B4B63
:1071B0004FF400721A604FF08043D3F80024D207D6
:1071C00044BF6FF00102C3F80024254AD2F888308A
:1071D00043F47003C2F88830BFF34F8FBFF36F8F53
:1071E0004FF01023D3F80C32DB0729D51D4B0122B9
:1071F000C3F80425D3F80024002AFBD04FF0102256
:10720000D2F80C3223F00103C2F80C32154B1A46A7
:10721000D3F800140029FBD00021C3F80415D2F8DC
:107220000034002BFBD0BFF34F8F0D490E4BCA68C3
:1072300002F4E0621343CB60BFF34F8F00BFFDE762
:107240000A4B0B4A1A6008BD8C5600404881030067
:1072500000F00040E40E004058020010409602404A
:1072600000ED00E000E001400400FA0520BF00202E
:107270000090D0032DE9F04F1C461B7887B00646DE
:10728000884615460E2B3FD8DFE813F00F001E008E
:10729000DA00DF003E003400BA003E003E003E004F
:1072A0003E00E500F7000A010C012A7A0AB9002421
:1072B00015E061889200B1FBF2F302FB13139BB25D
:1072C000002BF4D16C682CB16FF008012846F9F757
:1072D0000DFAECE72B685A0705D501F063FC204650
:1072E00007B0BDE8F08F2B681B07E0D4D8F8143046
:1072F0009B68A2E06378DA094FEA53175DD017F074
:10730000030703D0012F3ED00624E8E703F01F0354
:10731000012BF9D1A378062BF6D103A80297F6F733
:10732000D3FA02ABE2782179009305460346304652
:1073300001F0F8FA052804F1010A06D0029A29465C
:107340005046F6F73BF80446C9E70DF1180949F82D
:10735000087DD8F81430E2780092D3F810B00022FB
:10736000012331464846D84758B9E278D8F8143056
:1073700000921C692A463B4631464846A0473A4699
:10738000DDE70137E5E7A378022B0DD0032B10D002
:10739000012BB9D12379013B012BB5D84B691B686F
:1073A000214630469847CEE73A4605F10801601C71
:1073B000C7E73A4605F10901F9E7012FA4D1A378FF
:1073C0000A2B0CD00B2B0DD0092B9DD12379022B2E
:1073D0009AD14B691A68002A96D05B68E0E7237956
:1073E0002B7264E7B4F80310C9B26972D8F8183088
:1073F000003118BF0121002B3FF459AF984756E7E1
:1074000094F90230002B0ADAE3781BB98B690BB1CF
:10741000032198476B68002B3FF468AF54E74B6932
:10742000DB68002B3FF470AFE3781BB98B690BB1BD
:1074300002219847D8F81430DB683046984782E735
:1074400004212846F9F73CF931E76FF0040128469A
:10745000F9F74CF94AE701F009FC044600287FF4EB
:107460003EAF304601F020FC044600287FF437AFE1
:1074700001212846F9F724F931E701F003FC04461D
:1074800000287FF42CAF304601F016FC044600289B
:107490007FF425AF6FF001012846F9F727F91EE7C1
:1074A0000221CEE76FF0020110E7C068704710B507
:1074B0000B46044628B98A6A18460221904720469E
:1074C00010BD0320FCE70000F0B5BB4D0C7A2C701A
:1074D000046840F2A716B44200F06181B4F5D47F8D
:1074E00065D2B4F5CF7F00F01C812AD840F2971600
:1074F000B44200F0EC80B4F5CC7F0AD2002C00F04E
:10750000C780B4F5CB7F00F0D68000230360184617
:10751000D0E040F29B16B44200F0F68040F29D1697
:10752000B442F2D100240AB106791655A34E36684A
:107530000134767806719C42C0F0F4804FF4CF732A
:10754000B6E040F2A116B44200F00481B4F5D17F58
:1075500014D240F29F16B44200F0EF80B4F5D07F11
:10756000D3D100240AB10679165501344E7E067136
:107570009C42C0F0F08040F2A11399E040F2A516C1
:10758000B44200F0F480B4F5D37F80F0FC80B4F511
:10759000D17FBAD100240AB10679165501340926E3
:1075A0009C420671C0F0E48040F2A51380E0B4F57F
:1075B000E07F00F069813AD8B4F5D57F00F01381FF
:1075C00014D8B4F5D47F00F0018140F2A916B4427A
:1075D0009BD100240AB10679165501344E69067113
:1075E0009C42C0F001814FF4D57361E0B4F5DB7FBC
:1075F00000F02B8140F2B716B44200F0348140F223
:10760000B316B44281D100240AB1067916556C4EE6
:1076100037780E6956F827606A4F36683E80013425
:107620009C420671C0F012814FF4DB7340E0B4F568
:10763000E37F00F04F8116D840F2C116B44200F04B
:107640002F8140F2C516B4427FF45FAF00240AB127
:1076500006791655013403269C420671C0F03B8121
:107660004FF4E37324E0B4F5E47F00F04B81C0F005
:107670003D8140F2C916B4427FF447AF00240AB1FD
:10768000067916554E4F3E78013601343E70C6E0FD
:107690004D4E34704C4E37782E78B74202D340F2BC
:1076A000CD1305E00926A342067105D84FF4CB732C
:1076B00003600120F0BD00240AB10679165501349B
:1076C00004269C42067103D340F29713F0E700248E
:1076D0000AB1067916553C4E0F7A3678DFF8DCC0D1
:1076E000B74204F1010440F21A8101F1090706EBE7
:1076F000460607EB060E9C42BE5DCCF800E0067124
:1077000003D340F29B13D3E700240AB10679165540
:10771000013400269C420671FFF405AF40F29D1330
:10772000C6E700240AB106791655013403269C42A7
:10773000067103D340F29F13BAE700240AB1067919
:10774000165501340E7E06719C42FFF40BAF4FF4C8
:10775000D073ADE700240AB106791655013400262E
:107760009C420671FFF417AF4FF4D173A0E70024D9
:107770000AB106791655013421269C42067103D3BD
:107780004FF4D37394E700240AB1067916550134F7
:1077900011269C42067103D340F2A71388E7002408
:1077A0000AB106791655013401269C4206710ED3A2
:1077B0004FF4D4737CE700BFAADE0020ACDE0020CB
:1077C000ABDE0020A2DE0020A9DE002000240AB1EA
:1077D00006791655013400269C420671FFF4FAAE74
:1077E00040F2A91364E700240AB1067916554F4EFA
:1077F0004F6937704E4E0027013437704C4EDFF81A
:107800002CC137789CF800C0BC4513D8494F3F685D
:1078100097F801C0484F87F800C000273770444EE2
:107820003778454E3678B74227D3444F3E780136F5
:107830003E702FE70E6956F82760A342367906712D
:107840003FF6E2AE40F2B31332E700240AB1067904
:1078500016553B4E36880134360A9C42067103D3D6
:1078600040F2B71324E700240AB106791655304FC9
:107870003E78013601343E70C0E707269C4206710F
:1078800003D34FF4E07313E700240AB106791655C9
:10789000013405269C42067103D340F2C11307E769
:1078A00000240AB106791655224E244F36683F78D7
:1078B00096F801C0BC4504F1010435D996F802C020
:1078C0003E449C4216F80C600671FFF4C0AE40F2D4
:1078D000C513EDE600240AB1067916550134402699
:1078E0009C42067103D340F2C713E1E600240AB1BB
:1078F00006791655013400269C42067103D34FF4D5
:10790000E473D5E600240AB1067916550134012640
:107910009C420671FFF4B3AE40F2C913C8E60023DF
:10792000CCF800301B78FFDE0023FBE7A1DE00204F
:10793000ABDE0020ACDE0020A8DE0020A9DE0020A7
:10794000A2DE002030B5036AC9781A6887B01170CA
:107950001A685B68054606A800240132013B00F85E
:10796000154D039204930594F7F7E6FD204603A90D
:1079700001F012FA044630B9064B01A9CDE90135F0
:10798000F5F70AFD04469DF80300F7F7F9FD2046D8
:1079900007B030BDAF7403000A79012A0B4605D148
:1079A000C169D1E90012581CF5F708BD022A01D1BE
:1079B000016AF6E70620704710B404460B4654F8F7
:1079C000102B214608325DF8044BFFF753BC1FB55E
:1079D000027A0346A2B1817A012900F1090211D984
:1079E000C17A1B6A0A4401A950781A685B6802933D
:1079F00000230192039301F0CFF905B05DF804FB79
:107A00005378FFDE00231B78FBE72DE9FF41037A63
:107A100005680446002B3AD0837A00F10902002B56
:107A200037D0C37A08356FF00801284612F8038072
:107A3000F8F75CFEE06AFFF7EFFA064628BB04F1B0
:107A40001000FFF732FD074601463246E06AFFF7B5
:107A5000EAFA3B68019304A87B6800F80D6DCDE954
:107A60000236F7F769FD01A9404601F095F9044691
:107A700018B908212846F8F723FE9DF80300F7F708
:107A80007FFD204604B0BDE8F0810024F9E75B7873
:107A9000FFDE1B78FCE738B504460568C06AFFF7CF
:107AA000BBFA20B92046BDE83840FFF7AEBF6FF003
:107AB000080105F10800F8F719FE002038BD0000A4
:107AC000F0B504689DF814603CB1B4F5F27F4FF056
:107AD000000420D0046020461CE00D6955F82650B3
:107AE0002F68114D2F60114D2C60104D0E4F2D68D9
:107AF0003F68BD4202D340F2E71309E00F6957F82F
:107B00002670BF68A3427D5D057104D84FF4F273FF
:107B100003600120F0BD0AB105791555034F3D689A
:107B2000013501343D60E0E7B0DE0020A4DE002036
:107B300073B505460668C06ACDE900126946FFF7CD
:107B400015FA044678B9B3685A0704D501F02AF843
:107B5000204602B070BDB3681B07F9D42846FFF772
:107B600054FF0446F4E71124F2E7C36903B1184750
:107B70007047036800229A831A629A62C3E91D2241
:107B8000C3E91F2203F130021A677047F0B5BB4DFD
:107B90000C7A2C700468B4F5517F00F0C98200F2B1
:107BA000DA8040F22636B44200F03D826DD840F2D1
:107BB0001636B44200F0FA8126D840F21336B442A9
:107BC00000F0D981B4F5457F0BD2002C00F0C181C3
:107BD00040F21236B44200F0C4810023036018461C
:107BE000BEE100F0D68140F21536B442F5D1002452
:107BF0000AB106791655013402269C420671C0F07E
